:100000000200037581891201B7E582600302006F67
:10001000780079007A007B007C007D00EC4D601C4C
:1000200088828983E493A3A882A9838A828B83F040
:10003000A3AA82AB831CBCFFE31D80E07582007520
:1000400083007C007D00EC4D600AE4F0A31CBCFF43
:10005000F51D80F27582007583007C007D00EC4DFB
:10006000600AE4F0A31CBCFFF51D80F212018612A9
:1000700004B080FE1B5B324A004144432074657328
:10008000742070726F6772616D0A46696C653A2000
:1000900025730A436F6D70696C65643A2025732C73
:1000A0002025730A0A00736F75726365636F646558
:1000B0002E63004D61722020372032303234003000
:1000C000363A32393A3031002020202020202020BA
:1000D000202020202020202020202000436F6E6E32
:1000E0006563742072656620616E642020202000A4
:1000F000202074657374207369676E616C732020AF
:1001000020202000463A5858487A202020503A2093
:10011000202E5858580056523A582E5858202056DB
:10012000543A582E585800543D25666D732C205073
:10013000686173653A2025662C2076315F526D73B5
:100140003A25662C2076325F526D733A25660D0093
:100150002D00200025332E316600543A006D7300C7
:1001600025332E306600773A007261642000253214
:100170002E306600487A202000463A0025312E3283
:10018000660025336600752300752400752500750B
:100190002600752700752800752900752A00752B23
:1001A00000752C00752D00752E00752F0075300020
:1001B0007531007532002275FF8075EF0675A71046
:1001C00075C12075A70075A90075A900E5A930E7DC
:1001D000FB75A90375A903E5A930E7FB43A41075D6
:1001E000E10175E20075E340759810758DE6858D27
:1001F0008B53890F438920D28ED299758200227544
:10020000A700C2EF75B28075BC2075B91E75E800F5
:1002100075DF3F75B300D2EF22AA82438E407592FC
:10022000B87593FF8592948593957591047B00C36F
:10023000EB9A500BE59130E7FB53917F0B80F07503
:10024000910022AA82AB837C007D00C3EC9AED9BD7
:10025000502B7E00BE0400501D7582FAC002C00300
:10026000C004C005C006120219D006D005D004D0C3
:1002700003D0020E80DE0CBC00D10D80CE22AA82FB
:100280008511F005F07401800225E0D5F0FBFB75C7
:10029000A720BA0002800ABA0102800FBA021E80AB
:1002A00014EBF4FA52F1EB42D48012EBF4FA52F26E
:1002B000EB42D58008EBF4FA52F3EB42CC75A70081
:1002C000228582BBC2EDD2EC30EDFD85BD8285BEBC
:1002D00083221202C1120E70AA82AB83ACF0FDC061
:1002E00002C003C004C00590923A75F053744012E6
:1002F0000EDCAA82AB83ACF0FDE58124FCF581E441
:10030000C0E074FCC0E0747FC0E07446C0E08A8244
:100310008B838CF0ED1210D1AA82AB83ACF0FDE59B
:100320008124FCF5818A828B838CF0ED225389F045
:10033000438901C28C22D2A0758228120219C2A060
:1003400022AA828AE0A2E79290A2E69291A2E59286
:1003500092A2E49293C00212033675822812021907
:10036000D0028AE0A2E39290A2E29291A2E192925C
:10037000A2E09293020336AA82D2978A82120341A4
:10038000900002020243AA82C2978A82120341901D
:100390000005020243C2A09000141202437582338A
:1003A00012038675823312038675823212038675B4
:1003B000822812038675820C12038675820112034D
:1003C00086900014020243AA82AB83ACF07402B59B
:1003D00033047DC080027D808D82C002C003C004D2
:1003E000120386900005120243D004D003D0027D90
:1003F000007E00ED2AFFEE3BF88C018F8288838916
:10040000F0120E54FF60208F82C002C003C004C0EF
:1004100005C006120377D006D005D004D003D00261
:100420000DBD00CF0E80CC3000248D028E03C3EAB8
:100430009410EB648094805015758220C002C00334
:10044000120377D003D0020ABA00E30B80E022AA9D
:1004500082AB83ACF07402B5340774C04535FD80BF
:100460000574804535FD8D82C002C003C0041203AF
:1004700086D004D003D0027D007E00ED2AFFEE3B43
:10048000F88C018F82888389F0120E54FF60208FD0
:1004900082C002C003C004C005C006120377D006A4
:1004A000D005D004D003D0020DBD00CF0E80CC22E9
:1004B000E4F546F547FCFDC004C00512032D120308
:1004C000959001F41202437474C0E07400C0E074AB
:1004D00080C0E0120FF815811581158174BFC0E04E
:1004E0007400C0E07480C0E074B3C0E07400C0E089
:1004F0007480C0E074A6C0E07400C0E07480C0E006
:100500007479C0E07400C0E07480C0E0120FF8E5B8
:100510008124F4F58175110175820212027E751134
:100520000275820212027E1201FFD005D00475828C
:100530000FC004C0051202D2AE82AF83A8F0F974D6
:1005400033C0E0C0E07453C0E07440C0E08E828FDE
:100550008388F0E9120EACAE82E58124FCF581D0EF
:1005600005D004EE605875820EC004C0051202D298
:10057000AE82AF83A8F0F97433C0E0C0E07453C01A
:10058000E07440C0E08E828F8388F0E9120EACAE3A
:1005900082E58124FCF581D005D004EE602075341D
:1005A000017535009000C875F08012044F75340253
:1005B0007535009000C875F08012044F80350CBC72
:1005C00000010DC374649CE49D400302052E753444
:1005D000017535009000DC75F08012044F7534020F
:1005E0007535009000F075F08012044F7C647D003A
:1005F00002052E75340175350090010475F08012E6
:10060000044F75340275350090011675F0801204A0
:100610004F759715758A00758C00C28D752200750F
:1006200097A575820F1202D2AC82AD83AEF0FFE4C3
:10063000C0E0C0E0C0E0C0E08C828D838EF0EF129D
:100640000E7CAC82E58124FCF581EC70D575820FBF
:100650001202D2AC82AD83AEF0FFEC4D4E8FF0C2F1
:10066000F745F060E8D28C75820F1202D2AC82ADF1
:1006700083AEF0FFE4C0E0C0E0C0E0C0E08C828D5B
:10068000838EF0EF120E7CAC82E58124FCF581ECC8
:100690006009108D0280D0052280CC75820F120275
:1006A000D2AC82AD83AEF0FFE4C0E0C0E0C0E0C0F9
:1006B000E08C828D838EF0EF120E7CAC82E581247B
:1006C000FCF581EC6009108D0280D0052280CCC23F
:1006D0008C852282120F7FAC82AD83AEF0FFC00406
:1006E000C005C006C00790000075F0807447120E68
:1006F000DCAC82AD83AEF0FFE58124FCF581858C16
:1007000082C004C005C006C007120F7FA882A9835B
:10071000AAF0FBC000C001C002C00390000075F049
:10072000807443120EDCAA82AB83A8F0F9E5812421
:10073000FCF581D007D006D005D004C002C003C0AC
:1007400000C0018C828D838EF0EF120F8AAA82ABDB
:1007500083ACF0FDE58124FCF581AE8A7F008E82BA
:100760008F83C002C003C004C0051210C4AE82AFA4
:1007700083A8F0F9D005D004D003D002C006C0078A
:10078000C000C0018A828B838CF0ED120F8AAA828E
:10079000AB83ACF0FDE58124FCF581C002C003C051
:1007A00004C00590F4FC75F0B27434120EDC85823E
:1007B0003685833785F038F539E58124FCF581C02D
:1007C00036C037C038C03990000075F080743F12D1
:1007D00010D185823E85833F85F040F541E5812437
:1007E000FCF581C03EC03FC040C041900FDB75F0BA
:1007F000C97440120EDC85824285834385F044F53E
:1008000045E58124FCF58175820F1202D2AE82AFDC
:1008100083A8F0F9E4C0E0C0E0C0E0C0E08E828FC1
:100820008388F0E9120E7CAE82E58124FCF581EE2E
:1008300070D575820F1202D2AE82AF83A8F0F9EEA6
:100840004F4889F0C2F745F060E8C036C037C0387D
:10085000C03990000075F07A7444120EDCAE82AF9D
:1008600083A8F0F9E58124FCF581C006C007C0002B
:10087000C001E4C0E0C0E07480C0E07440C0E08E1D
:10088000828F8388F0E91210D1AA82AB83ACF0FD8D
:10089000E58124FCF5818A828B838CF0ED1210B9FE
:1008A00085826285836312024375820F1202D2AC85
:1008B00082AD83AAF0FB742FC0E074E4C0E074B48E
:1008C000C0E0743FC0E08C828D838AF0EB1210D1BF
:1008D00085822385832485F025F526E58124FCF592
:1008E00081D001D000D007D00675820EC006C007A7
:1008F000C000C0011202D2AA82AB83ACF0FDE4C0FA
:10090000E0C0E0C0E0C0E08A828B838CF0ED120E84
:100910007CAA82E58124FCF581D001D000D007D0EB
:1009200006EA70C575820EC006C007C000C001127D
:1009300002D2AA82AB83ACF0FDD001D000D007D0A8
:1009400006EA4B4C8DF0C2F745F060D8856282858F
:100950006383C006C007C000C00112024375820E47
:100960001202D2AA82AB83ACF0FD742FC0E074E413
:10097000C0E074B4C0E0743FC0E08A828B838CF026
:10098000ED1210D185822785832885F029F52AE587
:100990008124FCF581D001D000D007D006C28C752F
:1009A0002200758C00758A00C28D75820FC006C04A
:1009B00007C000C0011202D2AA82AB83ACF0FDD006
:1009C00001D000D007D006EA4B4C8DF0C2F745F0BD
:1009D00070D875820FC006C007C000C0011202D2D5
:1009E000AA82AB83ACF0FDD001D000D007D006EADC
:1009F0004B4C8DF0C2F745F060D8D28C75820EC09A
:100A000006C007C000C0011202D2AA82AB83ACF0BC
:100A1000FDD001D000D007D006EA4B4C8DF0C2F7D4
:100A200045F06009108D0280D3052280CF75820EBB
:100A3000C006C007C000C0011202D2AA82AB83ACBC
:100A4000F0FDD001D000D007D006EA4B4C8DF0C2AB
:100A5000F745F07009108D0280D3052280CFC28C3B
:100A6000852282C006C007C000C001120F7FAA8283
:100A7000AB83ACF0FDC002C003C004C00590000011
:100A800075F0807447120EDC85826485836585F07D
:100A900066F567E58124FCF581858C82120F7FAABB
:100AA00082AB83ACF0FDC002C003C004C00590005F
:100AB0000075F0807443120EDCAA82AB83ACF0FDAB
:100AC000E58124FCF581C002C003C004C005856433
:100AD000828565838566F0E567120F8A8582648565
:100AE000836585F066F567E58124FCF581AA8A7B3C
:100AF000008A828B831210C4AA82AB83ACF0FDC043
:100B000002C003C004C0058564828565838566F0E4
:100B1000E567120F8AAA82AB83ACF0FDE58124FC65
:100B2000F581C002C003C004C00590F4FC75F0322A
:100B30007434120EDCAA82AB83ACF0FDE58124FC98
:100B4000F581C002C003C004C00590000075F0B478
:100B50007443120EDCAA82AB83ACF0FDE58124FC69
:100B6000F581C036C037C038C0398A828B838CF09B
:100B7000ED1210D185823A85833B85F03CF53DE549
:100B80008124FCF581D001D000D007D006C006C07A
:100B900007C000C001C027C028C029C02AC023C088
:100BA00024C025C026C03AC03BC03CC03DC006C0E2
:100BB00007C000C0017427C0E07401C0E07480C0A9
:100BC000E0120FF8E58124EDF581E4C0E0C0E074A7
:100BD00034C0E07443C0E0853A82853B83853CF0B5
:100BE000E53D120E7CAA82E58124FCF581D001D07E
:100BF00000D007D006EA6045C006C007C000C001AB
:100C0000C03AC03BC03CC03D90000075F0B4744396
:100C10001210AE85823A85833B85F03CF53DE58137
:100C200024FCF58175340175350B90015075F08009
:100C300012044FD001D000D007D006801F753401B8
:100C400075350B90015275F080C006C007C000C01A
:100C50000112044FD001D000D007D00620A5249067
:100C60000032C006C007C000C001120243D001D04C
:100C700000D007D00620A50B30A5FD0546E4B546FB
:100C80000205477401B54606E4B547028002805963
:100C9000C006C007C000C0017454C0E07401C0E0C9
:100CA0007480C0E0745AC0E07400C0E07440C0E0DA
:100CB000121068E58124F6F58175340175350290CE
:100CC000005A75F04012044F7534017535009001DB
:100CD0005A75F08012044F75340175350790015D27
:100CE00075F08012044F020DA97402B54606E4B5F2
:100CF000470280028058C042C043C044C04574606F
:100D0000C0E07401C0E07480C0E0745EC0E07400B4
:100D1000C0E07440C0E0121068E58124F6F58175EA
:100D2000340175350290005E75F04012044F753441
:100D30000175350090016675F08012044F7534011D
:100D400075350590016975F08012044F805BE4F5FC
:100D500046F547C03EC03FC040C041746EC0E0741D
:100D600001C0E07480C0E07448C0E07400C0E0746A
:100D700040C0E0121068E58124F6F58175340175F4
:100D8000350290004875F04012044F7534017535F6
:100D90000490017475F08012044F753401753500AC
:100DA00090017975F08012044FC023C024C025C083
:100DB00026747CC0E07401C0E07480C0E0744CC054
:100DC000E07400C0E07440C0E0121068E58124F6D1
:100DD000F581C027C028C029C02A747CC0E07401F6
:100DE000C0E07480C0E07451C0E07400C0E07440A2
:100DF000C0E0121068E58124F6F581C03AC03BC01E
:100E00003CC03D7482C0E07401C0E07480C0E074F6
:100E100056C0E07400C0E07440C0E0121068E58184
:100E200024F6F58175340175350C90005675F04047
:100E300012044F75340275350390004C75F0401262
:100E4000044F75340275350C90005175F040120452
:100E50004F02061420F71430F6148883A88220F578
:100E600007E6A88375830022E280F7E49322E0225C
:100E7000E4AC83AB82FAF9748E0211F9FFA88118F1
:100E800018121221D2D133E6400730E70B758201E8
:100E90002220E70675820022C2D1121203E97003F4
:100EA000F5822230D101B3E433F58222FFA8811804
:100EB00018121221D2D133E6400730E70B758200B9
:100EC0002220E70675820122C2D1121203E97003C3
:100ED000F5822220D101B3E433F582221212CEBC76
:100EE000000302126DEF60FA30D502B2D1E583B48F
:100EF000FF03021283E582B4FF03021283258340BD
:100F0000072482400B02126D2483145003021283C3
:100F1000F582EA8DF0A4A8F0EA8EF0A428F8E43572
:100F2000F0F9EB8DF0A428E935F0F9E433CA8FF03D
:100F3000A429F9EA35F0FAEBF88EF0A429F9EA359C
:100F4000F0FAE433FBEC8DF0A429F9EA35F0FAE489
:100F50003BFBE88FF0A42AFAEB35F0FBE433CCFD41
:100F60008EF0A42AFAEB35F0FBE43CFCED8FF0A404
:100F70002BFBEC35F0FC20E70312129B02124CE431
:100F8000AC82FBFAF974860211F91212CE7900E5EF
:100F900083B58202800D50031212FCE583C3958253
:100FA000121316E5D0C465D020E117EA2DFAEB3E06
:100FB000FBEC3FFC50097401121316EC4480FC0258
:100FC000124CC3EA9DFAEB9EFBEC9FFC500FC3E46E
:100FD00099F9E49AFAE49BFBE49CFCB2D112129BCF
:100FE00002124C021CE585827685837785F0788530
:100FF0001079900FE3021738C008858108E50824AE
:10100000FBF579E50824FBF886760886770886786C
:10101000900FE3121738D00822AA82AB09AC0AADB0
:101020000B8B828C838DF0EA121CFA0509E4B5095A
:1010300002050A2285820985830A85F00B850C76D4
:10104000850D77850E78850F79901019121738AABB
:1010500082AB83AC09AD0AAE0B8C828D838EF0E43B
:10106000121CFA8A828B8322C008858108E5082435
:10107000F8F579E50824FBF8860908860A08860B46
:10108000E50824F8F886760886770886789010199F
:10109000121738AA82AB83AC09AD0AAE0B8C828DD5
:1010A000838EF0E4121CFA8A828B83D00822A881F6
:1010B0001818C6B2E7C6020F8A7F8E121D15F58377
:1010C00085F08222AC83AB827A007900748E021D97
:1010D000431212CE30D502B2D1BF0009BC000302C8
:1010E0001290021283BC000302126DE583B4FF0B61
:1010F000E582B4FF0302129002126DE582B4FF0391
:10110000021283C395835007247F400B02126D2483
:1011100080145003021283C0E0E4CCCBCAF98D11D5
:101120008E128F13EF54F0C4F5147583068514F0F6
:10113000EB84F582E9C4F9EAC4FAEBC4FBEC540F82
:10114000C47803D6FC18EBD6FB18EAD6FA8582F0F1
:10115000EDA4A8F0FD8582F0EEA428FEE435F0F8B9
:101160008582F0EFA428FFE435F0F8E99DF9EA9EC6
:10117000FAEB9FFBEC98FCAD11AE12AF1330E71009
:101180001582E92DF9EA3EFAEB3FFBE43CFC80EDE9
:10119000C082D58398C3E933F9EA33FAEB33FBEC29
:1011A00033FCC3E99DEA9EEB9FEC9400B3E413F992
:1011B000D002D0E0C44AFAD003D0E0C44BFBD00444
:1011C000D0E0F5F0540FC44CFCD082158230F40FFF
:1011D000D3EC13FCEB13FBEA13FAE913F90582E9EC
:1011E00030E70A74012AFAE43BFBE43CFC02126497
:1011F000FCABF0AA83A982749EC2D1F58212129B25
:1012000002124C7901AA82E68F82B5821318E6B5E4
:10121000F00E18E6B5830918E68A82B582027900D5
:1012200022B4800FE5F0700AE5837006E582700253
:101230007F00EFB6801518B6001018B6000B18B670
:10124000000608080876002208080822B98003EA88
:1012500013B34010EA2401FAE43BFBE43CFC5004E5
:101260007C800582BC000EBB000BBA0008E4F5F0E0
:10127000F583F58222A2D1E582138CF092F78B835D
:101280008A8222E4F583F58275F080F4A2D11322DC
:10129000E4F583F58275F0C0747F227804EC701158
:1012A000E58224F8500AF582E4C9CACBFCD8EF22C3
:1012B000EC7820058220E713D5820122C3E933F9B7
:1012C000EA33FAEB33FBEC33FCD8EA158222AA822C
:1012D000AB83A2F73392D16002D2F7F582ACF0E58E
:1012E0008124F9F8E6FD08E6FE0886F008E6A2F794
:1012F0003392D56002D2F7F583AFF022E582C58341
:10130000F582A2D133A2D592D11392D5ECCFFCEBCA
:10131000CEFBEACDFA226040F82582500274FFF538
:1013200082E824F8501ECCCBCAF9E4CC24F850143F
:10133000CBCAF9E4CB24F8500BCAF9E4CA24F8501C
:101340000379002224086010F8C3EC13FCEB13FBB4
:10135000EA13FAE913F9D8F122AA82746AC0E07498
:1013600013C0E0C068C0698A8222056FE4B56F02CD
:10137000057022AA8274302AFA24C6500A74072AF9
:10138000FA3001034302208A82021359E582FAC42B
:10139000540FF582C002121373D002740F5AF582F3
:1013A000021373AA6AAB6BAC6CAD6DAE6E75752033
:1013B000EE2EFEED235401FF4206EA2AFAEB33FB40
:1013C000EC33FCED33FDC3EE95714008EEC395712F
:1013D000FE430201D575D98A6A8B6B8C6C8D6D8E3C
:1013E0006E227886E624D075F00AA4FA7887E6247F
:1013F000D02AFA78858603BB2D04C3E49AFA757166
:1014000001C3E464808AF063F08095F0502975751B
:10141000038A0374F62575401C0571E57514247A5A
:10142000F8E575247AF98704A604772E1BEBFA6099
:1014300004057580DE8B02EA30E70D787B86037841
:101440007CA603787B762E0AE573600AE57304FBBD
:101450002571F5718005300C020571787A8603E4F8
:10146000BB2D0104FB700620070330080205713014
:101470000503021529300657EB600C75822DC0025A
:10148000121359D002801C30070C75822BC0021237
:101490001359D002800D30080A758220C002121341
:1014A00059D002787B8604BC2E0C758230C00212A3
:1014B0001359D0021572AC721572C3E5719C4003CA
:1014C00002156D758230C002121359D00280E7AC4C
:1014D000721572C3E5719C500C758220C002121304
:1014E00059D00280EA787A8604BC2D0C75822DC012
:1014F00002121359D002801C30070C75822BC002D7
:10150000121359D002800D30080A758220C00212D1
:101510001359D002787B8604BC2E52758230C002EB
:10152000121359D00215728044EB600E75822DC0E3
:1015300002121359D0021572802030070E75822BCB
:10154000C002121359D0021572800F30080C758238
:1015500020C002121359D0021572787B8603BB2E6D
:101560000C758230C002121359D0021572757501C4
:10157000C20EE575247AF88603BB450302162ABB22
:101580002E348A03C3E464808BF063F08095F050BE
:101590000F758230C003121359D0031B8B0280E4F5
:1015A0008B02D20EE5737038200C0302162A758266
:1015B0002E1213598074300E278A03EB30E71FC3B5
:1015C000E464808573F063F08095F0500C75823090
:1015D000C003121359D00315730B8B0280DD8B02ED
:1015E000300E0EC3E464808573F063F08095F05094
:1015F00021E575247AF886038B82C002121359D034
:1016000002300E0EE575247AF88603BB2E028002A6
:1016100015731572C3E464808573F063F08095F0F0
:101620004003200E050575021572C3E464808573BE
:10163000F063F08095F0500A7582301213591573DB
:1016400080E830050FAA721572EA600875822012D0
:10165000135980F122E5737003300C0D7407257364
:10166000FAE572C39AF5728006E57224FAF572758E
:101670007500787A8602BA2B0F20070C787A7620CC
:101680002008057575010572200519AA72C3E46466
:10169000808AF063F08095F0500A75822012135909
:1016A000157280E7C20EE575247AF88602BA000248
:1016B0008069BA451F3001027665C3E46480857392
:1016C000F063F08095F0500A75823012135915734B
:1016D00080E8D20EC3E5759402E433FA7014EA7020
:1016E0000EC3E464808573F063F08095F0400330AE
:1016F0000E16E575247AF886028A82121359E5756A
:1017000024FD50121573800E7402B57509300C0655
:1017100075822E12135905750216A6300519AA7284
:10172000C3E464808AF063F08095F0500A758220EB
:10173000121359157280E722858268858369E4F562
:101740006FF570AA76AB77AC788A828B838CF012B7
:101750000E54FD74012AF576E43BF5778C78EDFAAA
:101760007003021CDEBA25028003021CD6C205C229
:1017700006C207C208C209C20AC20BC20CC202C218
:1017800003C2047571007572007573FFAB76AC7798
:10179000AD788B828C838DF0120E54FAA3AB82ACA1
:1017A000838B768C778D78BA25078A8212135980BD
:1017B000928A06BE3000402E8A06EE24C640277468
:1017C000FFB57313E57275F00AA4FEEA24D02EF576
:1017D0007270BFD20680BBE57375F00AA4FEEA24DE
:1017E000D02EF57380ACBA2E0A74FFB573A475734E
:1017F00000809F8A06BE6100400E8A06EE24854066
:10180000075302DFD2018002C201BA20028075BAFA
:101810002303021893BA2A03021898BA2B02805F96
:10182000BA2D028055BA4202805FBA43030218DD26
:10183000BA4403021A18BA4503021A32BA4603021E
:101840001A2EBA4703021A36BA4903021A18BA4CBA
:1018500002803BBA4E03021A3ABA4F03021A1FBA69
:1018600050030219B1BA5303021901BA5503021AFF
:1018700024BA5803021A29021A64D205021792D216
:1018800007021792D208021792D20A021792D20BBD
:10189000021792D20C02179274FFB57320300A0B14
:1018A000E57914F888798672021792E57924FEF8B2
:1018B00088798606088607188E72021792300A0BFE
:1018C000E57914F888798673021792E57924FEF891
:1018D00088798606088607188E73021792300A0ADE
:1018E000E57914F888798602800FE57924FEF88876
:1018F000798603088604188B028A82121359021A09
:1019000069E57924FDF88879860308860408860548
:1019100018188B6A8C6B8D6C8B828C838DF0121EE9
:1019200086AB82AC838B7474FFB5730385747320AC
:10193000051DC3E57495725016E572C39574F57272
:10194000AB721572EB600875822012135980F18515
:101950006A82856B83856CF0120E54FBFA6029ABAA
:10196000731573C3E464808BF063F08095F05018B6
:101970008A82121359AB6AAC6BAD6C0BBB00010CC5
:101980008B6A8C6B8D6C80C7200503021A69C3E5D6
:101990007495724003021A69E572C39574F572ABCF
:1019A000721572EB7003021A697582201213598046
:1019B000EEE57924FDF88879860308860408860513
:1019C00018188B6A8C6B8D6CE56CFB30E7047A43DE
:1019D0008013EB546060047A50800AEB30E6047A9E
:1019E0004980027A588A82C00212135975823A12CB
:1019F0001359758230121359758278121359D00217
:101A0000BA4902800BBA50028006856B8212138C91
:101A1000856A8212138C8051D20975710A804A75C9
:101A20007108804575710A8040757110803BD20243
:101A30008037D2038033D204802FE57924FDF888E3
:101A400079860308860408860518188B6A8C6B8DC6
:101A50006C8B828C838DF0E56F121CFAA3E57012FB
:101A60001CFA80058A8212135920020620030330D3
:101A70000470E57924FCF8887986030886040886D2
:101A8000050886061818188B6A8C6B8D6C8E6DE5B0
:101A90006AE56BE56CE56D8B828C838DF0EE121D33
:101AA0006774FFB57303757306300427747F556D33
:101AB000FB8B6EE56EEB2BFB8B6EE56C30E70674F3
:101AC00001456EF56EE56E246840067499256E40FA
:101AD00002D2033003061216550217431213E20214
:101AE0001743E57170030217437B7F300A2BE579BA
:101AF00014F88879E6FC3395E0FDFEFF8C6A8D6B67
:101B00008E6C8F6D20095EAC6A7D007E007F008C3C
:101B10006A8D6B8E6C8F6D804C300B1FE57924FCC9
:101B2000F888798604088605088606088607181846
:101B3000188C6A8D6B8E6C8F6D802AE57924FEF887
:101B40008879860408860518ED3395E0FEFF8C6AD7
:101B50008D6B8E6C8F6D20090CAC6AAD6B7E007F37
:101B6000008E6C8F6D300C43E56A456B456C456D9E
:101B700060397408B5710C758230C003121359D0E6
:101B80000380287410B57123758230C00312135975
:101B9000D00330010C758278C003121359D0038032
:101BA0000A758258C003121359D003300925AC6A54
:101BB000AD6BAE6CE56DFF30E717C3E49CFCE49DB4
:101BC000FDE49EFEE49FFF8C6A8D6B8E6C8F6D80B2
:101BD00002C209757400D20D8B00756E00C0001230
:101BE00013A3D000200D0DE56EC4FCE6FD4CF618E5
:101BF00088038002A66E0574B20DE56A456B456CDC
:101C0000456D70D68803E572700375720120061A5F
:101C1000200517E57404FCC39572500E758220C030
:101C200003121359D003157280E930090E75822D05
:101C3000C003121359D00315728024E5746020305C
:101C4000070E75822BC003121359D0031572800F33
:101C500030080C758220C003121359D0031572206E
:101C6000051EAC721572C3E5749C50273006047CC7
:101C70003080027C208C82C003121359D00380E292
:101C8000C3E57495725009E572C39574F5728003CB
:101C90007572008B00AB741574EB6022B20D200DD1
:101CA0000A08E6C4540FFB8B6E80078603740F5B33
:101CB000F56E856E82C000121373D00080D72005A8
:101CC00003021743AB721572EB7003021743758260
:101CD0002012135980EE8A82121359021743856F1E
:101CE0008285708322AA82BA0A0810990280FB7545
:101CF000990D10990280FB8A992220F71030F61175
:101D00008883A88220F507F6A88375830022F280D5
:101D1000F7F0227F9E121EAE30D10302126DC3EF88
:101D20009582500974FFF5F0F583F582227900124F
:101D3000131689828A838BF0EC22FCABF0AA83A96C
:101D400082749EF582C2D1EC30E716D2D1E9F42438
:101D500001F9EAF43400FAEBF43400FBECF434005B
:101D6000FC12129B02124CC0E0F84582458345F0FC
:101D70007009F5F0FBFCFDFE021E35E823A2F79288
:101D8000E0F8A982AA83D2F7ABF07C007E07C37487
:101D90009798404074FF2EFE740A89F0A4F985F0EC
:101DA00082740A8AF0A4FA85F083740A8BF0A4FB8B
:101DB000740529F9EA3582FAEB3583FB740035F0B6
:101DC000FCC3EC13FCEB13FBEA13FAE913F908EC80
:101DD00070EF80BAE8C3947FF88B838EF0E4FBFC4D
:101DE000FDFEFF08C3E933F9EA33FAE58333F583EF
:101DF000EB3BD4FBEC3CD4FCED3DD4FDEE3ED4FEFD
:101E0000EF3FD4FF602D05F074052BD4FBE43CD4E8
:101E1000FCE43DD4FDE43ED4FEE43FD4FF758204EF
:101E2000C3EF13FFEE13FEED13FDEC13FCEB13FBFE
:101E3000D582EDD8AF787AD0E020E704762B800207
:101E4000762D087906E7C4540F4430F608B9060326
:101E5000762E08E7540F4430F60819B902E77645A4
:101E600008E5F020E704762B8004762DF40408754D
:101E7000F00A844430F608E5F04430F608E4F690C1
:101E8000007A75F04022AA82AB83ACF07D007E0020
:101E90008A828B838CF0120E54FFA3AA82AB83EF4D
:101EA00060070DBD00EA0E80E78D828E8322AA8234
:101EB000AB83A2F73392D16002D2F7F582ACF02265
:00000001FF
