:1000000002000375814C120122E582600302006F39
:10001000780079007A007B007C007D00EC4D601C4C
:1000200088828983E493A3A882A9838A828B83F040
:10003000A3AA82AB831CBCFFE31D80E07582007520
:1000400083007C007D00EC4D600AE4F0A31CBCFF43
:10005000F51D80F27582007583007C007D00EC4DFB
:10006000600AE4F0A31CBCFFF51D80F21200F1123F
:1000700002AA80FE1B5B324A004144432074657330
:10008000742070726F6772616D0A46696C653A2000
:1000900025730A436F6D70696C65643A2025732C73
:1000A0002025730A0A00736F75726365636F646558
:1000B0002E63004D617220203620323032340032FF
:1000C000323A34363A323400543D25666D732C2072
:1000D00050686173653A2025662C2076315F4D614A
:1000E000783A25662C2076325F4D61783A25660D88
:1000F00000752300752400752500752600752700FE
:10010000752800752900752A00752B00752C00755F
:100110002D00752E00752F00753000753100753279
:10012000002275A7007597DE7597AD75FF8075EF96
:100130000675A71075C12075A70075A90075A900DF
:10014000E5A930E7FB75A90375A903E5A930E7FB2D
:1001500043A41075E10175E20075E34075981075D0
:100160008DE6858D8B53890F438920D28ED2997568
:1001700082002275A700C2EF75B28075BC2075B9E8
:100180001E75E80075DF3F75B300D2EF22AA8243E7
:100190008E407592B87593FF85929485939575916D
:1001A000047B00C3EB9A500BE59130E7FB53917F42
:1001B0000B80F075910022AA82AB837C007D00C386
:1001C000EC9AED9B502B7E00BE0400501D7582FA08
:1001D000C002C003C004C005C00612018DD006D005
:1001E00005D004D003D0020E80DE0CBC00D10D80FF
:1001F000CE22AA82851CF005F07401800225E0D58C
:10020000F0FBFB75A720BA0002800ABA0102800F3A
:10021000BA021E8014EBF4FA52F1EB42D48012EBD6
:10022000F4FA52F2EB42D58008EBF4FA52F3EB42C7
:10023000CC75A700228582BBC2EDD2EC30EDFD85E6
:10024000BD8285BE8322120235120845AA82AB8385
:10025000ACF0FDC002C003C004C00590923A75F036
:10026000537440120881AA82AB83ACF0FDE581246F
:10027000FCF581E4C0E074FCC0E0747FC0E074462B
:10028000C0E08A828B838CF0ED1209D6AA82AB8300
:10029000ACF0FDE58124FCF5818A828B838CF0ED46
:1002A000225389F0438901C28C221202A19001F4E9
:1002B0001201B77474C0E07400C0E07480C0E01232
:1002C000099D15811581158174BFC0E07400C0E0DF
:1002D0007480C0E074B3C0E07400C0E07480C0E01B
:1002E00074A6C0E07400C0E07480C0E07479C0E01F
:1002F0007400C0E07480C0E012099DE58124F4F52B
:1003000081751C017582021201F2751C0275820250
:100310001201F2120173758A00758C00C28D75226C
:100320000075820F120246AA82AB83ACF0FDE4C0D6
:10033000E0C0E0C0E0C0E08A828B838CF0ED120860
:1003400051AA82E58124FCF581EA70D575820F12ED
:100350000246AA82AB83ACF0FDEA4B4C8DF0C2F7AB
:1003600045F060E8D28C75820F120246AA82AB83F8
:10037000ACF0FDE4C0E0C0E0C0E0C0E08A828B8366
:100380008CF0ED120851AA82E58124FCF581EA6027
:1003900009108D0280D0052280CC75820F12024692
:1003A000AA82AB83ACF0FDE4C0E0C0E0C0E0C0E0F6
:1003B0008A828B838CF0ED120851AA82E58124FC9D
:1003C000F581EA6009108D0280D0052280CCC28CB4
:1003D000852282120924AA82AB83ACF0FDC002C040
:1003E00003C004C00590000075F0807447120881B6
:1003F000AA82AB83ACF0FDE58124FCF581858C827B
:10040000C002C003C004C005120924AE82AF83A895
:10041000F0F9C006C007C000C00190000075F08070
:100420007443120881AE82AF83A8F0F9E58124FC01
:10043000F581D005D004D003D002C006C007C000AB
:10044000C0018A828B838CF0ED12092FAA82AB83C4
:10045000ACF0FDE58124FCF581AE8A7F008E828FB1
:1004600083C002C003C004C0051209C9AE82AF83B5
:10047000A8F0F9D005D004D003D002C006C007C050
:1004800000C0018A828B838CF0ED12092FAA82AB07
:1004900083ACF0FDE58124FCF581C002C003C004FB
:1004A000C00590F4FC75F0327434120881858233F3
:1004B00085833485F035F536E58124FCF581758238
:1004C0000F120246AE82AF83A8F0F9E4C0E0C0E0AC
:1004D000C0E0C0E08E828F8388F0E9120851AE82BE
:1004E000E58124FCF581EE70D575820F120246AECF
:1004F00082AF83A8F0F9EE4F4889F0C2F745F0606B
:10050000E8C033C034C035C03690000075F07A744E
:1005100044120881AE82AF83A8F0F9E58124FCF58E
:1005200081C006C007C000C001E4C0E0C0E0748024
:10053000C0E07440C0E08E828F8388F0E91209D653
:10054000AA82AB83ACF0FDE58124FCF5818A828B25
:10055000838CF0ED1209BE8582378583381201B78E
:1005600075820F120246AC82AD83AAF0FB747CC088
:10057000E07446C0E074B5C0E0743FC0E08C828D8A
:10058000838AF0EB1209D685822385832485F025A2
:10059000F526E58124FCF581D001D000D007D006F6
:1005A00075820EC006C007C000C001120246AA82B2
:1005B000AB83ACF0FDE4C0E0C0E0C0E0C0E08A8204
:1005C0008B838CF0ED120851AA82E58124FCF58121
:1005D000D001D000D007D006EA70C575820EC006E3
:1005E000C007C000C001120246AA82AB83ACF0FD76
:1005F000D001D000D007D006EA4B4C8DF0C2F745B1
:10060000F060D8853782853883C006C007C000C037
:10061000011201B775820E120246AA82AB83ACF0BA
:10062000FD747CC0E07446C0E074B5C0E0743FC0A7
:10063000E08A828B838CF0ED1209D6858227858330
:100640002885F029F52AE58124FCF581D001D00028
:10065000D007D006C28C752200758C00758A00C246
:100660008D75820FC006C007C000C001120246AAE5
:1006700082AB83ACF0FDE4C0E0C0E0C0E0C0E08A43
:10068000828B838CF0ED120851AA82E58124FCF55F
:1006900081D001D000D007D006EA70C5D28C758217
:1006A0000EC006C007C000C001120246AA82AB837A
:1006B000ACF0FDE4C0E0C0E0C0E0C0E08A828B8323
:1006C0008CF0ED120851AA82E58124FCF581D0015D
:1006D000D000D007D006EA6009108D0280C0052244
:1006E00080BCC28C852282C006C007C000C0011237
:1006F0000924AA82AB83ACF0FDC002C003C004C0D1
:100700000590000075F08074471208818582398554
:10071000833A85F03BF53CE58124FCF581858C82AC
:10072000120924AA82AB83ACF0FDC002C003C0044E
:10073000C00590000075F0807443120881AA82AB56
:1007400083ACF0FDE58124FCF581C002C003C00448
:10075000C005853982853A83853BF0E53C12092F37
:1007600085823985833A85F03BF53CE58124FCF5AB
:1007700081AA8A7B008A828B831209C9AA82AB83F1
:10078000ACF0FDC002C003C004C005853982853AC3
:1007900083853BF0E53C12092FAA82AB83ACF0FDC8
:1007A000E58124FCF581C002C003C004C00590F4BB
:1007B000FC75F0327434120881AA82AB83ACF0FD70
:1007C000E58124FCF581C002C003C004C00590008F
:1007D0000075F0B47443120881AA82AB83ACF0FDBB
:1007E000E58124FCF581C033C034C035C0368A822F
:1007F0008B838CF0ED1209D6AA82AB83ACF0FDE5B9
:100800008124FCF581D001D000D007D006C027C0DC
:1008100028C029C02AC023C024C025C026C002C0C9
:1008200003C004C005C006C007C000C00174C8C032
:10083000E07400C0E07480C0E012099DE58124ED01
:10084000F581020316E4AC83AB82FAF9748E020AD6
:10085000FEFFA8811818120B26D2D133E6400730CC
:10086000E70B7582012220E70675820022C2D112B1
:100870000B08E97003F5822230D101B3E433F5822D
:1008800022120BD3BC0003020B72EF60FA30D502C8
:10089000B2D1E583B4FF03020B88E582B4FF030203
:1008A0000B88258340072482400B020B722483149B
:1008B0005003020B88F582EA8DF0A4A8F0EA8EF0CE
:1008C000A428F8E435F0F9EB8DF0A428E935F0F927
:1008D000E433CA8FF0A429F9EA35F0FAEBF88EF088
:1008E000A429F9EA35F0FAE433FBEC8DF0A429F9F8
:1008F000EA35F0FAE43BFBE88FF0A42AFAEB35F096
:10090000FBE433CCFD8EF0A42AFAEB35F0FBE43C9B
:10091000FCED8FF0A42BFBEC35F0FC20E703120B71
:10092000A0020B51E4AC82FBFAF97486020AFE12B3
:100930000BD37900E583B58202800D5003120C01C0
:10094000E583C39582120C1BE5D0C465D020E11766
:10095000EA2DFAEB3EFBEC3FFC50097401120C1B34
:10096000EC4480FC020B51C3EA9DFAEB9EFBEC9F2A
:10097000FC500FC3E499F9E49AFAE49BFBE49CFC75
:10098000B2D1120BA0020B510215EA8582188583A1
:100990001985F01A85091B90098802103DC0088549
:1009A0008108E50824FBF51BE50824FBF8861808F8
:1009B000861908861A90098812103DD008227F8E69
:1009C000121601F58385F08222AC83AB827A00791E
:1009D00000748E02162F120BD330D502B2D1BF0095
:1009E00009BC0003020B95020B88BC0003020B72CA
:1009F000E583B4FF0BE582B4FF03020B95020B7293
:100A0000E582B4FF03020B88C395835007247F401F
:100A10000B020B722480145003020B88C0E0E4CC5C
:100A2000CBCAF98D1C8E1D8F1EEF54F0C4F51F75B7
:100A30008306851FF0EB84F582E9C4F9EAC4FAEB7A
:100A4000C4FBEC540FC47803D6FC18EBD6FB18EAB1
:100A5000D6FA8582F0EDA4A8F0FD8582F0EEA428F8
:100A6000FEE435F0F88582F0EFA428FFE435F0F8D5
:100A7000E99DF9EA9EFAEB9FFBEC98FCAD1CAE1DDC
:100A8000AF1E30E7101582E92DF9EA3EFAEB3FFB85
:100A9000E43CFC80EDC082D58398C3E933F9EA33A6
:100AA000FAEB33FBEC33FCC3E99DEA9EEB9FEC943D
:100AB00000B3E413F9D002D0E0C44AFAD003D0E086
:100AC000C44BFBD004D0E0F5F0540FC44CFCD082F2
:100AD000158230F40FD3EC13FCEB13FBEA13FAE9A5
:100AE00013F90582E930E70A74012AFAE43BFBE4D2
:100AF0003CFC020B69FCABF0AA83A982749EC2D1B4
:100B0000F582120BA0020B517901AA82E68F82B501
:100B1000821318E6B5F00E18E6B5830918E68A8246
:100B2000B58202790022B4800FE5F0700AE5837087
:100B300006E58270027F00EFB6801518B600101827
:100B4000B6000B18B6000608080876002208080848
:100B500022B98003EA13B34010EA2401FAE43BFB14
:100B6000E43CFC50047C800582BC000EBB000BBA48
:100B70000008E4F5F0F583F58222A2D1E582138C1A
:100B8000F092F78B838A8222E4F583F58275F080F8
:100B9000F4A2D11322E4F583F58275F0C0747F22AC
:100BA0007804EC7011E58224F8500AF582E4C9CA91
:100BB000CBFCD8EF22EC7820058220E713D5820108
:100BC00022C3E933F9EA33FAEB33FBEC33FCD8EA1E
:100BD000158222AA82AB83A2F73392D16002D2F7A8
:100BE000F582ACF0E58124F9F8E6FD08E6FE08861A
:100BF000F008E6A2F73392D56002D2F7F583AFF0A2
:100C000022E582C583F582A2D133A2D592D1139277
:100C1000D5ECCFFCEBCEFBEACDFA226040F8258282
:100C2000500274FFF582E824F8501ECCCBCAF9E4D8
:100C3000CC24F85014CBCAF9E4CB24F8500BCAF9F1
:100C4000E4CA24F8500379002224086010F8C3ECA9
:100C500013FCEB13FBEA13FAE913F9D8F122AA8289
:100C6000746FC0E0740CC0E0C00AC00B8A82220519
:100C700011E4B51102051222AA8274302AFA24C6A0
:100C8000500A74072AFA3000034302208A82020CB9
:100C90005EE582FAC4540FF582C002120C78D002CD
:100CA000740F5AF582020C78AA0CAB0DAC0EAD0F86
:100CB000AE10751720EE2EFEED235401FF4206EA1A
:100CC0002AFAEB33FBEC33FCED33FDC3EE95134016
:100CD00008EEC39513FE430201D517D98A0C8B0D7C
:100CE0008C0E8D0F8E10227849E624D075F00AA460
:100CF000FA784AE624D02AFA78488603BB2D04C342
:100D0000E49AFA751301C3E464808AF063F0809575
:100D1000F050297517038A0374F62517401C051334
:100D2000E51714243DF8E517243DF98704A6047758
:100D30002E1BEBFA6004051780DE8B02EA30E70D0C
:100D4000783E8603783FA603783E762E0AE5156046
:100D50000AE51504FB2513F5138005300B02051376
:100D6000783D8603E4BB2D0104FB700620060330AA
:100D700007020513300403020E2E300557EB600CFA
:100D800075822DC002120C5ED002801C30060C75DC
:100D9000822BC002120C5ED002800D30070A7582D1
:100DA00020C002120C5ED002783E8604BC2E0C7568
:100DB0008230C002120C5ED0021514AC141514C39C
:100DC000E5139C4003020E72758230C002120C5E65
:100DD000D00280E7AC141514C3E5139C500C758247
:100DE00020C002120C5ED00280EA783D8604BC2D41
:100DF0000C75822DC002120C5ED002801C30060CD5
:100E000075822BC002120C5ED002800D30070A756D
:100E10008220C002120C5ED002783E8604BC2E52A4
:100E2000758230C002120C5ED00215148044EB6053
:100E30000E75822DC002120C5ED002151480203077
:100E4000060E75822BC002120C5ED0021514800FA4
:100E500030070C758220C002120C5ED00215147887
:100E60003E8603BB2E0C758230C002120C5ED0028F
:100E70001514751701C20DE517243DF88603BB450F
:100E800003020F2FBB2E348A03C3E464808BF0630C
:100E9000F08095F0500F758230C003120C5ED003C5
:100EA0001B8B0280E48B02D20DE5157038200B03FA
:100EB000020F2F75822E120C5E8074300D278A036C
:100EC000EB30E71FC3E464808515F063F08095F094
:100ED000500C758230C003120C5ED00315150B8BBD
:100EE0000280DD8B02300D0EC3E464808515F06353
:100EF000F08095F05021E517243DF886038B82C0E1
:100F000002120C5ED002300D0EE517243DF8860368
:100F1000BB2E02800215151514C3E464808515F0FC
:100F200063F08095F04003200D050517020E77C38E
:100F3000E464808515F063F08095F0500A75823086
:100F4000120C5E151580E830040FAA141514EA601F
:100F500008758220120C5E80F122E5157003300BBB
:100F60000D74072515FAE514C39AF5148006E514E7
:100F700024FAF514751700783D8602BA2B0F200667
:100F80000C783D76202007057517010514200419FB
:100F9000AA14C3E464808AF063F08095F0500A7567
:100FA0008220120C5E151480E7C20DE517243DF86F
:100FB0008602BA00028069BA451F3000027665C316
:100FC000E464808515F063F08095F0500A758230F6
:100FD000120C5E151580E8D20DC3E5179402E433B8
:100FE000FA7014EA700EC3E464808515F063F08033
:100FF00095F04003300D16E517243DF886028A82ED
:10100000120C5EE51724FD50121515800E7402B502
:101010001709300B0675822E120C5E0517020FABF6
:10102000300419AA14C3E464808AF063F08095F058
:10103000500A758220120C5E151480E72285820A00
:1010400085830BE4F511F512AA18AB19AC1A8A8244
:101050008B838CF0121653FD74012AF518E43BF5CE
:10106000198C1AEDFA70030215E3BA250280030207
:1010700015DBC204C205C206C207C208C209C20A01
:10108000C20BC201C202C2037513007514007515AC
:10109000FFAB18AC19AD1A8B828C838DF0121653EE
:1010A000FAA3AB82AC838B188C198D1ABA25078AE8
:1010B00082120C5E80928A06BE3000402E8A06EEB6
:1010C00024C6402774FFB51513E51475F00AA4FE75
:1010D000EA24D02EF51470BFD20580BBE51575F05B
:1010E0000AA4FEEA24D02EF51580ACBA2E0A74FFAD
:1010F000B515A4751500809F8A06BE6100400E8A52
:1011000006EE248540075302DFD2008002C200BAF7
:1011100020028075BA2303021198BA2A0302119D96
:10112000BA2B02805FBA2D028055BA4202805FBAA4
:1011300043030211E2BA440302131DBA450302132A
:1011400037BA4603021333BA470302133BBA4903C3
:1011500002131DBA4C02803BBA4E0302133FBA4F32
:1011600003021324BA50030212B6BA530302120642
:10117000BA5503021329BA580302132E021369D277
:1011800004021097D206021097D207021097D209D4
:10119000021097D20A021097D20B02109774FFB573
:1011A000152030090BE51B14F8881B8614021097D4
:1011B000E51B24FEF8881B8606088607188E140295
:1011C000109730090BE51B14F8881B861502109741
:1011D000E51B24FEF8881B8606088607188E150274
:1011E000109730090AE51B14F8881B8602800FE56A
:1011F0001B24FEF8881B8603088604188B028A824B
:10120000120C5E02136EE51B24FDF8881B86030892
:10121000860408860518188B0C8C0D8D0E8B828C1D
:10122000838DF01217A7AB82AC838B1674FFB515B4
:101230000385161520041DC3E51695145016E514F4
:10124000C39516F514AB141514EB600875822012C3
:101250000C5E80F1850C82850D83850EF01216538D
:10126000FBFA6029AB151515C3E464808BF063F0BD
:101270008095F050188A82120C5EAB0CAC0DAD0E4E
:101280000BBB00010C8B0C8C0D8D0E80C720040352
:1012900002136EC3E5169514400302136EE514C3E2
:1012A0009516F514AB141514EB700302136E7582CA
:1012B00020120C5E80EEE51B24FDF8881B860308D7
:1012C000860408860518188B0C8C0D8D0EE50EFB18
:1012D00030E7047A438013EB546060047A50800A4C
:1012E000EB30E6047A4980027A588A82C002120CF6
:1012F0005E75823A120C5E758230120C5E758278D1
:10130000120C5ED002BA4902800BBA5002800685E8
:101310000D82120C91850C82120C918051D20875AD
:10132000130A804A751308804575130A80407513A7
:1013300010803BD2018037D2028033D203802FE568
:101340001B24FDF8881B86030886040886051818E8
:101350008B0C8C0D8D0E8B828C838DF0E51112170A
:101360008EA3E51212178E80058A82120C5E200170
:1013700006200203300370E51B24FCF8881B86035B
:101380000886040886050886061818188B0C8C0D2C
:101390008D0E8E0FE50CE50DE50EE50F8B828C832F
:1013A0008DF0EE12166F74FFB51503751506300338
:1013B00027747F550FFB8B10E510EB2BFB8B10E593
:1013C0000E30E70674014510F510E510246840065C
:1013D000749925104002D202300206120F5A0210F0
:1013E00048120CE7021048E51370030210487B42D4
:1013F00030092BE51B14F8881BE6FC3395E0FDFE55
:10140000FF8C0C8D0D8E0E8F0F20085EAC0C7D00B6
:101410007E007F008C0C8D0D8E0E8F0F804C300A5D
:101420001FE51B24FCF8881B860408860508860631
:101430000886071818188C0C8D0D8E0E8F0F802AB9
:10144000E51B24FEF8881B860408860518ED3395F5
:10145000E0FEFF8C0C8D0D8E0E8F0F20080CAC0C57
:10146000AD0D7E007F008E0E8F0F300B43E50C45D7
:101470000D450E450F60397408B5130C758230C0E8
:1014800003120C5ED00380287410B51323758230CC
:10149000C003120C5ED00330000C758278C00312BA
:1014A0000C5ED003800A758258C003120C5ED00314
:1014B000300825AC0CAD0DAE0EE50FFF30E717C3BD
:1014C000E49CFCE49DFDE49EFEE49FFF8C0C8D0DEE
:1014D0008E0E8F0F8002C208751600D20C8B00751D
:1014E0001000C000120CA8D000200C0DE510C4FCA8
:1014F000E6FD4CF61888038002A6100516B20CE52E
:101500000C450D450E450F70D68803E51470037524
:10151000140120051A200417E51604FCC395145085
:101520000E758220C003120C5ED003151480E930C2
:10153000080E75822DC003120C5ED0031514802492
:10154000E516602030060E75822BC003120C5ED0AB
:10155000031514800F30070C758220C003120C5E37
:10156000D003151420041EAC141514C3E5169C50AA
:10157000273005047C3080027C208C82C003120C52
:101580005ED00380E2C3E51695145009E514C395B7
:1015900016F51480037514008B00AB161516EB605E
:1015A00022B20C200C0A08E6C4540FFB8B108007F3
:1015B0008603740F5BF510851082C000120C78D082
:1015C0000080D7200403021048AB141514EB7003FD
:1015D000021048758220120C5E80EE8A82120C5E28
:1015E00002104885118285128322AA82BA0A081045
:1015F000990280FB75990D10990280FB8A99227FD0
:101600009E1217CF30D103020B72C3EF958250099F
:1016100074FFF5F0F583F582227900120C1B8982A4
:101620008A838BF0EC22FCABF0AA83A982749EF52E
:1016300082C2D1EC30E716D2D1E9F42401F9EAF400
:101640003400FAEBF43400FBECF43400FC120BA091
:10165000020B5120F71430F6148883A88220F50776
:10166000E6A88375830022E280F7E49322E022C09B
:10167000E0F84582458345F07009F5F0FBFCFDFE7E
:1016800002173DE823A2F792E0F8A982AA83D2F7D5
:10169000ABF07C007E07C3749798404074FF2EFE29
:1016A000740A89F0A4F985F082740A8AF0A4FA8594
:1016B000F083740A8BF0A4FB740529F9EA3582FAE9
:1016C000EB3583FB740035F0FCC3EC13FCEB13FB30
:1016D000EA13FAE913F908EC70EF80BAE8C3947FD3
:1016E000F88B838EF0E4FBFCFDFEFF08C3E933F9C1
:1016F000EA33FAE58333F583EB3BD4FBEC3CD4FCD3
:10170000ED3DD4FDEE3ED4FEEF3FD4FF602D05F05D
:1017100074052BD4FBE43CD4FCE43DD4FDE43ED47E
:10172000FEE43FD4FF758204C3EF13FFEE13FEED1A
:1017300013FDEC13FCEB13FBD582EDD8AF783DD055
:10174000E020E704762B8002762D087906E7C45462
:101750000F4430F608B90603762E08E7540F4430DC
:10176000F60819B902E7764508E5F020E704762B7C
:101770008004762DF4040875F00A844430F608E5F8
:10178000F04430F608E4F690003D75F0402220F772
:101790001030F6118883A88220F507F6A883758398
:1017A0000022F280F7F022AA82AB83ACF07D007EAB
:1017B000008A828B838CF0121653FFA3AA82AB831C
:1017C000EF60070DBD00EA0E80E78D828E8322AAAE
:1017D00082AB83A2F73392D16002D2F7F582ACF0EC
:1017E00022000000000000000000000000000000D7
:00000001FF
