:1000000002000375814A12013CE582600302006F21
:10001000780079007A007B007C007D00EC4D601C4C
:1000200088828983E493A3A882A9838A828B83F040
:10003000A3AA82AB831CBCFFE31D80E07582007520
:1000400083007C007D00EC4D600AE4F0A31CBCFF43
:10005000F51D80F27582007583007C007D00EC4DFB
:10006000600AE4F0A31CBCFFF51D80F212010B1224
:1000700002C480FE1B5B324A004144432074657316
:10008000742070726F6772616D0A46696C653A2000
:1000900025730A436F6D70696C65643A2025732C73
:1000A0002025730A0A00736F75726365636F646558
:1000B0002E63004D617220203620323032340032FF
:1000C000303A32303A3030006F766572666C6F7756
:1000D00020636F756E743A25642C2025642C2025CE
:1000E000640A00543D25666D732C2054696D6520AB
:1000F000646966663A2025352E35666D732C20506E
:10010000686173653A202566200A0075230075240E
:1001100000752500752600752700752800752900D3
:10012000752A00752B00752C00752D00752E007535
:100130002F007530007531007532002275A70075EB
:1001400097DE7597AD75FF8075EF0675A71075C1C1
:100150002075A70075A90075A900E5A930E7FB7512
:10016000A90375A903E5A930E7FB43A41075E101D4
:1001700075E20075E340759810758DE6858D8B539B
:10018000890F438920D28ED2997582002275A700EB
:10019000C2EF75B28075BC2075B91E75E80075DFB9
:1001A0003F75B300D2EF22AA82438E407592B87594
:1001B00093FF8592948593957591047B00C3EB9A88
:1001C000500BE59130E7FB53917F0B80F075910068
:1001D00022AA82AB837C007D00C3EC9AED9B502B5E
:1001E0007E00BE0400501D7582FAC002C003C00428
:1001F000C005C0061201A7D006D005D004D003D098
:10020000020E80DE0CBC00D10D80CE22AA82851C9D
:10021000F005F07401800225E0D5F0FBFB75A72006
:10022000BA0002800ABA0102800FBA021E8014EBE3
:10023000F4FA52F1EB42D48012EBF4FA52F2EB42B0
:10024000D58008EBF4FA52F3EB42CC75A700228577
:1002500082BBC2EDD2EC30EDFD85BD8285BE83222E
:1002600012024F1206B5AA82AB83ACF0FDC002C0E9
:1002700003C004C00590923A75F05374401206C151
:10028000AA82AB83ACF0FDE58124FCF581E4C0E0FB
:1002900074FCC0E0747FC0E07446C0E08A828B8347
:1002A0008CF0ED120816AA82AB83ACF0FDE5812438
:1002B000FCF5818A828B838CF0ED225389F043898F
:1002C00001C28C221202BB9001F41201D17474C0DD
:1002D000E07400C0E07480C0E01207DD1581158174
:1002E000158174BFC0E07400C0E07480C0E074B3D6
:1002F000C0E07400C0E07480C0E074A6C0E0740088
:10030000C0E07480C0E07479C0E07400C0E0748024
:10031000C0E01207DDE58124F4F581751C017582CA
:100320000212020C751C0275820212020C12018D5F
:10033000758A00758C00C28D7522002086FD30867E
:10034000FDD28C308609108D0280F8052280F420C1
:100350008609108D0280F8052280F4C28C852282E5
:10036000120764AA82AB83ACF0FDC002C003C004D4
:10037000C00590000075F08074471206C1AA82ABD8
:1003800083ACF0FDE58124FCF581858C82C002C040
:1003900003C004C005120764AE82AF83A8F0F9C0A1
:1003A00006C007C000C00190000075F080744312C1
:1003B00006C1AE82AF83A8F0F9E58124FCF581D0B7
:1003C00005D004D003D002C006C007C000C0018A17
:1003D000828B838CF0ED12076FAA82AB83ACF0FDA9
:1003E000E58124FCF581AE8A7F008E828F83C00276
:1003F000C003C004C005120809AE82AF83A8F0F99B
:10040000D005D004D003D002C006C007C000C00190
:100410008A828B838CF0ED12076FAA82AB83ACF0DB
:10042000FDE58124FCF581C002C003C004C0059035
:10043000F4FC75F03274341206C18582338583343E
:1004400085F035F536E58124FCF581E4C0E0C0E0B7
:100450007480C0E07440C0E0853382853483853584
:10046000F0E536120816AE82AF83A8F0F9E58124D4
:10047000FCF5813086222086FA8E828F8388F0E90F
:10048000C006C007C000C0011207FE1201D1D00192
:10049000D000D007D00680DE75820E120260858201
:1004A0002385832485F025F526E4C0E0C0E0748030
:1004B000C0E07440C0E08533828534838535F0E543
:1004C00036120816AE82AF83A8F0F9E58124FCF558
:1004D0008130A22220A2FA8E828F8388F0E9C006A2
:1004E000C007C000C0011207FE1201D1D001D00028
:1004F000D007D00680DE75820F12026085822785C4
:10050000832885F029F52AC28C752200758C007528
:100510008A00C28D2086FD9000011201D1D28CD2BA
:10052000B2308109108D0280F8052280F49000011C
:100530001201D1C28CC2B2AE8A7F00A88C7900AA07
:10054000227B00C006C007C000C001C002C0037407
:10055000C8C0E07400C0E07480C0E01207DDE5812F
:1005600024F7F581858C82120764AA82AB83ACF0F4
:10057000FDC002C003C004C00590000075F0807487
:10058000431206C1AA82AB83ACF0FDE58124FCF5E1
:1005900081AE8A7F008E828F83C002C003C004C0F8
:1005A00005120809AE82AF83A8F0F9D005D004D0B7
:1005B00003D002C006C007C000C0018A828B838CB2
:1005C000F0ED12076FAA82AB83ACF0FDE58124FC4D
:1005D000F581C002C003C004C00590F4FC75F03280
:1005E00074341206C1AA82AB83ACF0FDE58124FC11
:1005F000F581C002C003C004C005C002C003C0042E
:10060000C00590000075F0B474431206C1AE82AF0D
:1006100083A8F0F9E58124FCF581C033C034C035EE
:10062000C0368E828F8388F0E9120816858237855E
:10063000833885F039F53AE58124FCF58190000096
:1006400075F07A74441206C1AA82AB83ACF0FDE562
:100650008124FCF581C002C003C004C005C033C0C2
:1006600034C035C03690000075F07A74441206C16B
:10067000AE82AF83A8F0F9E58124FCF581D005D0E6
:1006800004D003D002C037C038C039C03AC002C05D
:1006900003C004C005C006C007C000C00174E3C0A9
:1006A000E07400C0E07480C0E01207DDE58124F151
:1006B000F581020330E4AC83AB82FAF9748E02094F
:1006C0003E1209CABC0003020969EF60FA30D50284
:1006D000B2D1E583B4FF0302097FE582B4FF0302D0
:1006E000097F258340072482400B02096924831473
:1006F000500302097FF582EA8DF0A4A8F0EA8EF09B
:10070000A428F8E435F0F9EB8DF0A428E935F0F9E8
:10071000E433CA8FF0A429F9EA35F0FAEBF88EF049
:10072000A429F9EA35F0FAE433FBEC8DF0A429F9B9
:10073000EA35F0FAE43BFBE88FF0A42AFAEB35F057
:10074000FBE433CCFD8EF0A42AFAEB35F0FBE43C5D
:10075000FCED8FF0A42BFBEC35F0FC20E703120935
:1007600097020948E4AC82FBFAF9748602093E124A
:1007700009CA7900E583B58202800D50031209F899
:10078000E583C39582120A12E5D0C465D020E11733
:10079000EA2DFAEB3EFBEC3FFC50097401120A1201
:1007A000EC4480FC020948C3EA9DFAEB9EFBEC9FF7
:1007B000FC500FC3E499F9E49AFAE49BFBE49CFC37
:1007C000B2D11209970209480213E1858218858384
:1007D0001985F01A85091B9007C8020E34C00885D8
:1007E0008108E50824FBF51BE50824FBF8861808BA
:1007F000861908861A9007C8120E34D008227F8EF8
:100800001213F8F58385F08222AC83AB827A0079EB
:1008100000748E0214261209CA30D502B2D1BF006C
:1008200009BC000302098C02097FBC0003020969AC
:10083000E583B4FF0BE582B4FF0302098C0209696A
:10084000E582B4FF0302097FC395835007247F40EC
:100850000B020969248014500302097FC0E0E4CC34
:10086000CBCAF98D1C8E1D8F1EEF54F0C4F51F7579
:100870008306851FF0EB84F582E9C4F9EAC4FAEB3C
:10088000C4FBEC540FC47803D6FC18EBD6FB18EA73
:10089000D6FA8582F0EDA4A8F0FD8582F0EEA428BA
:1008A000FEE435F0F88582F0EFA428FFE435F0F897
:1008B000E99DF9EA9EFAEB9FFBEC98FCAD1CAE1D9E
:1008C000AF1E30E7101582E92DF9EA3EFAEB3FFB47
:1008D000E43CFC80EDC082D58398C3E933F9EA3368
:1008E000FAEB33FBEC33FCC3E99DEA9EEB9FEC94FF
:1008F00000B3E413F9D002D0E0C44AFAD003D0E048
:10090000C44BFBD004D0E0F5F0540FC44CFCD082B3
:10091000158230F40FD3EC13FCEB13FBEA13FAE966
:1009200013F90582E930E70A74012AFAE43BFBE493
:100930003CFC020960FCABF0AA83A982749EC2D180
:10094000F582120997020948B98003EA13B34010EF
:10095000EA2401FAE43BFBE43CFC50047C80058281
:10096000BC000EBB000BBA0008E4F5F0F583F5827D
:1009700022A2D1E582138CF092F78B838A8222E443
:10098000F583F58275F080F4A2D11322E4F583F5A6
:100990008275F0C0747F227804EC7011E58224F82F
:1009A000500AF582E4C9CACBFCD8EF22EC782005C6
:1009B0008220E713D5820122C3E933F9EA33FAEB47
:1009C00033FBEC33FCD8EA158222AA82AB83A2F770
:1009D0003392D16002D2F7F582ACF0E58124F9F8C8
:1009E000E6FD08E6FE0886F008E6A2F73392D56039
:1009F00002D2F7F583AFF022E582C583F582A2D15A
:100A000033A2D592D11392D5ECCFFCEBCEFBEACD3D
:100A1000FA226040F82582500274FFF582E824F83B
:100A2000501ECCCBCAF9E4CC24F85014CBCAF9E45C
:100A3000CB24F8500BCAF9E4CA24F85003790022F9
:100A400024086010F8C3EC13FCEB13FBEA13FAE97B
:100A500013F9D8F122AA827466C0E0740AC0E0C01B
:100A60000AC00B8A82220511E4B51102051222AADE
:100A70008274302AFA24C6500A74072AFA30000316
:100A80004302208A82020A55E582FAC4540FF58295
:100A9000C002120A6FD002740F5AF582020A6FAABE
:100AA0000CAB0DAC0EAD0FAE10751720EE2EFEED9B
:100AB000235401FF4206EA2AFAEB33FBEC33FCED48
:100AC00033FDC3EE95134008EEC39513FE430201B8
:100AD000D517D98A0C8B0D8C0E8D0F8E102278476E
:100AE000E624D075F00AA4FA7848E624D02AFA78E9
:100AF000468603BB2D04C3E49AFA751301C3E4646C
:100B0000808AF063F08095F050297517038A03748A
:100B1000F62517401C0513E51714243BF8E51724A8
:100B20003BF98704A604772E1BEBFA6004051780B7
:100B3000DE8B02EA30E70D783C8603783DA6037829
:100B40003C762E0AE515600AE51504FB2513F5131E
:100B50008005300B020513783B8603E4BB2D0104AE
:100B6000FB70062006033007020513300403020C55
:100B700025300557EB600C75822DC002120A55D046
:100B800002801C30060C75822BC002120A55D0025E
:100B9000800D30070A758220C002120A55D00278F3
:100BA0003C8604BC2E0C758230C002120A55D0025D
:100BB0001514AC141514C3E5139C4003020C69759D
:100BC0008230C002120A55D00280E7AC141514C35B
:100BD000E5139C500C758220C002120A55D0028089
:100BE000EA783B8604BC2D0C75822DC002120A5592
:100BF000D002801C30060C75822BC002120A55D020
:100C000002800D30070A758220C002120A55D002F8
:100C1000783C8604BC2E52758230C002120A55D030
:100C20000215148044EB600E75822DC002120A5525
:100C3000D0021514802030060E75822BC002120AD5
:100C400055D0021514800F30070C758220C0021297
:100C50000A55D0021514783C8603BB2E0C758230E1
:100C6000C002120A55D0021514751701C20DE517FE
:100C7000243BF88603BB4503020D26BB2E348A03B2
:100C8000C3E464808BF063F08095F0500F75823080
:100C9000C003120A55D0031B8B0280E48B02D20DD5
:100CA000E5157038200B03020D2675822E120A55A9
:100CB0008074300D278A03EB30E71FC3E46480851E
:100CC00015F063F08095F0500C758230C003120A65
:100CD00055D00315150B8B0280DD8B02300D0EC332
:100CE000E464808515F063F08095F05021E51724C9
:100CF0003BF886038B82C002120A55D002300D0EDB
:100D0000E517243BF88603BB2E0280021515151447
:100D1000C3E464808515F063F08095F04003200DF6
:100D2000050517020C6EC3E464808515F063F0803E
:100D300095F0500A758230120A55151580E8300476
:100D40000FAA141514EA6008758220120A5580F162
:100D500022E5157003300B0D74072515FAE514C351
:100D60009AF5148006E51424FAF514751700783BFB
:100D70008602BA2B0F20060C783B762020070575DB
:100D800017010514200419AA14C3E464808AF063CF
:100D9000F08095F0500A758220120A55151480E7EC
:100DA000C20DE517243BF88602BA00028069BA45F5
:100DB0001F3000027665C3E464808515F063F0801F
:100DC00095F0500A758230120A55151580E8D20D3B
:100DD000C3E5179402E433FA7014EA700EC3E464B6
:100DE000808515F063F08095F04003300D16E5170F
:100DF000243BF886028A82120A55E51724FD501218
:100E00001515800E7402B51709300B0675822E1267
:100E10000A550517020DA2300419AA14C3E4648010
:100E20008AF063F08095F0500A758220120A5515F9
:100E30001480E72285820A85830BE4F511F512AA56
:100E400018AB19AC1A8A828B838CF012144AFD7489
:100E5000012AF518E43BF5198C1AEDFA7003021318
:100E6000DABA250280030213D2C204C205C206C246
:100E700007C208C209C20AC20BC201C202C203757C
:100E800013007514007515FFAB18AC19AD1A8B82E1
:100E90008C838DF012144AFAA3AB82AC838B188C2E
:100EA000198D1ABA25078A82120A5580928A06BEBF
:100EB0003000402E8A06EE24C6402774FFB5151375
:100EC000E51475F00AA4FEEA24D02EF51470BFD202
:100ED0000580BBE51575F00AA4FEEA24D02EF515B1
:100EE00080ACBA2E0A74FFB515A4751500809F8AD0
:100EF00006BE6100400E8A06EE248540075302DFDD
:100F0000D2008002C200BA20028075BA2303020F09
:100F10008FBA2A03020F94BA2B02805FBA2D028087
:100F200055BA4202805FBA4303020FD9BA440302A2
:100F30001114BA450302112EBA460302112ABA4708
:100F400003021132BA4903021114BA4C02803BBAAF
:100F50004E03021136BA4F0302111BBA500302109E
:100F6000ADBA5303020FFDBA5503021120BA58035C
:100F7000021125021160D204020E8ED206020E8EDC
:100F8000D207020E8ED209020E8ED20A020E8ED225
:100F90000B020E8E74FFB5152030090BE51B14F8FB
:100FA000881B8614020E8EE51B24FEF8881B86061D
:100FB000088607188E14020E8E30090BE51B14F8F4
:100FC000881B8615020E8EE51B24FEF8881B8606FC
:100FD000088607188E15020E8E30090AE51B14F8D4
:100FE000881B8602800FE51B24FEF8881B860308F9
:100FF0008604188B028A82120A55021165E51B24A9
:10100000FDF8881B860308860408860518188B0CD3
:101010008C0D8D0E8B828C838DF012159EAB82AC65
:10102000838B1674FFB5150385161520041DC3E5C3
:101030001695145016E514C39516F514AB14151433
:10104000EB6008758220120A5580F1850C82850DAF
:1010500083850EF012144AFBFA6029AB151515C3EF
:10106000E464808BF063F08095F050188A82120A55
:1010700055AB0CAC0DAD0E0BBB00010C8B0C8C0DED
:101080008D0E80C7200403021165C3E51695144038
:1010900003021165E514C39516F514AB141514EB92
:1010A0007003021165758220120A5580EEE51B243B
:1010B000FDF8881B860308860408860518188B0C23
:1010C0008C0D8D0EE50EFB30E7047A438013EB5454
:1010D0006060047A50800AEB30E6047A4980027A34
:1010E000588A82C002120A5575823A120A557582D0
:1010F00030120A55758278120A55D002BA49028018
:101100000BBA50028006850D82120A88850C821265
:101110000A888051D20875130A804A7513088045E1
:1011200075130A8040751310803BD2018037D202BC
:101130008033D203802FE51B24FDF8881B8603082B
:10114000860408860518188B0C8C0D8D0E8B828CEE
:10115000838DF0E511121585A3E512121585800522
:101160008A82120A55200106200203300370E51B13
:1011700024FCF8881B860308860408860508860672
:101180001818188B0C8C0D8D0E8E0FE50CE50DE5E7
:101190000EE50F8B828C838DF0EE12146674FFB512
:1011A0001503751506300327747F550FFB8B10E56B
:1011B00010EB2BFB8B10E50E30E70674014510F5A4
:1011C00010E51024684006749925104002D20230C0
:1011D0000206120D51020E3F120ADE020E3FE51307
:1011E0007003020E3F7B4030092BE51B14F8881B6F
:1011F000E6FC3395E0FDFEFF8C0C8D0D8E0E8F0FFF
:1012000020085EAC0C7D007E007F008C0C8D0D8E66
:101210000E8F0F804C300A1FE51B24FCF8881B86BC
:10122000040886050886060886071818188C0C8D91
:101230000D8E0E8F0F802AE51B24FEF8881B860476
:1012400008860518ED3395E0FEFF8C0C8D0D8E0E93
:101250008F0F20080CAC0CAD0D7E007F008E0E8F22
:101260000F300B43E50C450D450E450F60397408F2
:10127000B5130C758230C003120A55D00380287450
:1012800010B51323758230C003120A55D003300005
:101290000C758278C003120A55D003800A758258F3
:1012A000C003120A55D003300825AC0CAD0DAE0EAC
:1012B000E50FFF30E717C3E49CFCE49DFDE49EFED0
:1012C000E49FFF8C0C8D0D8E0E8F0F8002C208756F
:1012D0001600D20C8B00751000C000120A9FD000BF
:1012E000200C0DE510C4FCE6FD4CF61888038002C6
:1012F000A6100516B20CE50C450D450E450F70D62F
:101300008803E514700375140120051A200417E5FD
:101310001604FCC39514500E758220C003120A55A2
:10132000D003151480E930080E75822DC003120A0F
:1013300055D00315148024E516602030060E758202
:101340002BC003120A55D0031514800F30070C75FB
:101350008220C003120A55D003151420041EAC14B9
:101360001514C3E5169C50273005047C3080027CA0
:10137000208C82C003120A55D00380E2C3E5169583
:10138000145009E514C39516F51480037514008BE9
:1013900000AB161516EB6022B20C200C0A08E6C44E
:1013A000540FFB8B1080078603740F5BF5108510BC
:1013B00082C000120A6FD00080D7200403020E3FC3
:1013C000AB141514EB7003020E3F758220120A5500
:1013D00080EE8A82120A55020E3F851182851283A1
:1013E00022AA82BA0A0810990280FB75990D1099F9
:1013F0000280FB8A99227F9E1215C630D103020912
:1014000069C3EF9582500974FFF5F0F583F58222E8
:101410007900120A1289828A838BF0EC22FCABF0ED
:10142000AA83A982749EF582C2D1EC30E716D2D18C
:10143000E9F42401F9EAF43400FAEBF43400FBECAB
:10144000F43400FC12099702094820F71430F6140E
:101450008883A88220F507E6A88375830022E280AE
:10146000F7E49322E022C0E0F84582458345F0701E
:1014700009F5F0FBFCFDFE021534E823A2F792E02B
:10148000F8A982AA83D2F7ABF07C007E07C37497D9
:1014900098404074FF2EFE740A89F0A4F985F0820A
:1014A000740A8AF0A4FA85F083740A8BF0A4FB74A2
:1014B0000529F9EA3582FAEB3583FB740035F0FC37
:1014C000C3EC13FCEB13FBEA13FAE913F908EC7015
:1014D000EF80BAE8C3947FF88B838EF0E4FBFCFDC9
:1014E000FEFF08C3E933F9EA33FAE58333F583EB0A
:1014F0003BD4FBEC3CD4FCED3DD4FDEE3ED4FEEF02
:101500003FD4FF602D05F074052BD4FBE43CD4FCE4
:10151000E43DD4FDE43ED4FEE43FD4FF758204C331
:10152000EF13FFEE13FEED13FDEC13FCEB13FBD5F5
:1015300082EDD8AF783BD0E020E704762B800276AE
:101540002D087906E7C4540F4430F608B90603762F
:101550002E08E7540F4430F60819B902E77645081B
:10156000E5F020E704762B8004762DF4040875F06E
:101570000A844430F608E5F04430F608E4F69000BA
:101580003B75F0402220F71030F6118883A88220A6
:10159000F507F6A88375830022F280F7F022AA826D
:1015A000AB83ACF07D007E008A828B838CF01214BA
:1015B0004AFFA3AA82AB83EF60070DBD00EA0E804D
:1015C000E78D828E8322AA82AB83A2F73392D16009
:1015D00002D2F7F582ACF02200000000000000000B
:00000001FF
