:1000000002000375815E12014FE582600302006FFA
:10001000780079007A007B007C007D00EC4D601C4C
:1000200088828983E493A3A882A9838A828B83F040
:10003000A3AA82AB831CBCFFE31D80E07582007520
:1000400083007C007D00EC4D600AE4F0A31CBCFF43
:10005000F51D80F27582007583007C007D00EC4DFB
:10006000600AE4F0A31CBCFFF51D80F2120101122E
:1000700002E580FE1B5B324A0041444320746573F5
:10008000742070726F6772616D0A46696C653A2000
:1000900025730A436F6D70696C65643A2025732C73
:1000A0002025730A0A00736F75726365636F646558
:1000B0002E63004D61722020352032303234003200
:1000C000313A33343A32380020543D25352E3566E6
:1000D0006D732C20206C6F6769632050305F363A57
:1000E00025642C20564050325F313A25332E33663A
:1000F0002C20564050325F323A25332E3366200D85
:1001000000E4F523F524752D00752E00752F00757C
:100110003000753100753200753300753400753567
:1001200000753600753700753800753900753A006E
:10013000753B00753C00753D00753E00753F0075D0
:1001400040007541007542007543007544002275FA
:10015000A7007597DE7597AD75FF8075EF0675A7DB
:100160001075C12075A70075A90075A900E5A93013
:10017000E7FB75A90375A903E5A930E7FB43A410C4
:1001800075E10175E20075E340759810758DE6859F
:100190008D8B53890F438920D28ED299758200228C
:1001A00075A700C2EF75B28075BC2075B91E75E8E1
:1001B0000075DF3F75B300D2EF22AA82438E4075EF
:1001C00092B87593FF8592948593957591047B0001
:1001D000C3EB9A500BE59130E7FB53917F0B80F016
:1001E00075910022AA82AB837C007D00C3EC9AED5E
:1001F0009B502B7E00BE0400501D7582FAC002C0C9
:1002000003C004C005C0061201BAD006D005D00450
:10021000D003D0020E80DE0CBC00D10D80CE22AA0D
:1002200082851CF005F07401800225E0D5F0FBFB0F
:1002300075A720BA0002800ABA0102800FBA021E16
:100240008014EBF4FA52F1EB42D48012EBF4FA5240
:10025000F2EB42D58008EBF4FA52F3EB42CC75A7EF
:1002600000228582BBC2EDD2EC30EDFD85BD8285DA
:10027000BE8322C2EDD2EC30EDFD85BD8285BE830A
:1002800022120262120585AA82AB83ACF0FDC00285
:10029000C003C004C00590923A75F0537440120533
:1002A000C1AA82AB83ACF0FDE58124FCF581E4C0FA
:1002B000E074FCC0E0747FC0E07446C0E08A828BCA
:1002C000838CF0ED12070BAA82AB83ACF0FDE581C5
:1002D00024FCF5818A828B838CF0ED225389F043D4
:1002E0008901C28C221202DC9001F41201E47474C0
:1002F000C0E07400C0E07480C0E01206DD15811516
:1003000081158174BFC0E07400C0E07480C0E074E7
:10031000B3C0E07400C0E07480C0E074A6C0E074B4
:1003200000C0E07480C0E07479C0E07400C0E07484
:1003300080C0E01206DDE58124F4F581751C0175AD
:10034000820212021F751C0275820212021F120124
:10035000A0758A00758C00C28D7522002086FD2054
:100360008604D28C80F9308609108D0280F805222F
:1003700080F4208609108D0280F8052280F4C28C5A
:10038000852282120664AA82AB83ACF0FDC002C053
:1003900003C004C00590000075F08074471205C1C9
:1003A000AA82AB83ACF0FDE58124FCF581858C82CB
:1003B000C002C003C004C005120664AE82AF83A8A9
:1003C000F0F9C006C007C000C00190000075F080C1
:1003D00074431205C1AE82AF83A8F0F9E58124FC15
:1003E000F581D005D004D003D002C006C007C000FC
:1003F000C0018A828B838CF0ED12066FAA82AB83D8
:10040000ACF0FDE58124FCF581AE8A7F008E828F01
:1004100083C002C003C004C0051206FEAE82AF83D3
:10042000A8F0F9D005D004D003D002C006C007C0A0
:1004300000C0018A828B838CF0ED12066FAA82AB1A
:1004400083ACF0FDE58124FCF581C002C003C0044B
:10045000C00590F4FC75F03274341205C1858245F4
:1004600085834685F047F548E58124FCF581758252
:100470000F120281AE82AF83A8F0F975820EC0061A
:10048000C007C000C00112028185824985834A8568
:10049000F04BF54CA286E433F54D754E00C045C0D7
:1004A00046C047C04890000075F07A74441205C1F8
:1004B000AC82AD83AAF0FBE58124FCF581C049C084
:1004C0004AC04BC04CC04DC04EC004C005C002C0A5
:1004D0000374C8C0E07400C0E07480C0E01206DDA0
:1004E000E58124EFF58175820E12028185823D85BA
:1004F000833E85F03FF540C02DC02EC02FC0308513
:100500003D82853E83853FF0E540120591AA82E554
:100510008124FCF581EA600C853D35853E36853FBA
:1005200037854038853D2D853E2E853F2F854030CF
:1005300075820F12028185824185834285F043F5E1
:1005400044C031C032C033C0348541828542838586
:1005500043F0E544120591AA82E58124FCF581EA85
:10056000600C85413985423A85433B85443C854151
:10057000318542328543338544340523E4B5230273
:100580000524020351E4AC83AB82FAF9748E0208AD
:1005900033FFA881181812085BD2D133E640073028
:1005A000E70B7582012220E70675820022C2D11274
:1005B000083DE97003F5822230D101B3E433F582BE
:1005C00022120908BC00030208A7EF60FA30D50226
:1005D000B2D1E583B4FF030208BDE582B4FF030294
:1005E00008BD258340072482400B0208A7248314FA
:1005F00050030208BDF582EA8DF0A4A8F0EA8EF05F
:10060000A428F8E435F0F9EB8DF0A428E935F0F9E9
:10061000E433CA8FF0A429F9EA35F0FAEBF88EF04A
:10062000A429F9EA35F0FAE433FBEC8DF0A429F9BA
:10063000EA35F0FAE43BFBE88FF0A42AFAEB35F058
:10064000FBE433CCFD8EF0A42AFAEB35F0FBE43C5E
:10065000FCED8FF0A42BFBEC35F0FC20E703120837
:10066000D5020886E4AC82FBFAF9748602083312DC
:1006700009087900E583B58202800D50031209361E
:10068000E583C39582120950E5D0C465D020E117F7
:10069000EA2DFAEB3EFBEC3FFC50097401120950C5
:1006A000EC4480FC020886C3EA9DFAEB9EFBEC9FBB
:1006B000FC500FC3E499F9E49AFAE49BFBE49CFC38
:1006C000B2D11208D502088602131F8582188583CD
:1006D0001985F01A85091B9006C8020D72C008859D
:1006E0008108E50824FBF51BE50824FBF8861808BB
:1006F000861908861A9006C8120D72D00822AC839B
:10070000AB827A007900748E02133D12090830D54D
:1007100002B2D1BF0009BC00030208CA0208BDBC76
:1007200000030208A7E583B4FF0BE582B4FF0302D0
:1007300008CA0208A7E582B4FF030208BDC3958377
:100740005007247F400B0208A7248014500302089E
:10075000BDC0E0E4CCCBCAF98D1C8E1D8F1EEF54BA
:10076000F0C4F51F758306851FF0EB84F582E9C49C
:10077000F9EAC4FAEBC4FBEC540FC47803D6FC18B6
:10078000EBD6FB18EAD6FA8582F0EDA4A8F0FD8539
:1007900082F0EEA428FEE435F0F88582F0EFA4287C
:1007A000FFE435F0F8E99DF9EA9EFAEB9FFBEC983F
:1007B000FCAD1CAE1DAF1E30E7101582E92DF9EA25
:1007C0003EFAEB3FFBE43CFC80EDC082D58398C34E
:1007D000E933F9EA33FAEB33FBEC33FCC3E99DEA86
:1007E0009EEB9FEC9400B3E413F9D002D0E0C44A2E
:1007F000FAD003D0E0C44BFBD004D0E0F5F0540FA6
:10080000C44CFCD082158230F40FD3EC13FCEB13F4
:10081000FBEA13FAE913F90582E930E70A74012AC1
:10082000FAE43BFBE43CFC02089EFCABF0AA83A983
:1008300082749EC2D1F5821208D50208867901AA77
:1008400082E68F82B5821318E6B5F00E18E6B583FE
:100850000918E68A82B58202790022B4800FE5F099
:10086000700AE5837006E58270027F00EFB680159E
:1008700018B6001018B6000B18B60006080808765F
:10088000002208080822B98003EA13B34010EA24C2
:1008900001FAE43BFBE43CFC50047C800582BC0094
:1008A0000EBB000BBA0008E4F5F0F583F58222A236
:1008B000D1E582138CF092F78B838A8222E4F58350
:1008C000F58275F080F4A2D11322E4F583F58275E8
:1008D000F0C0747F227804EC7011E58224F8500A8D
:1008E000F582E4C9CACBFCD8EF22EC78200582203F
:1008F000E713D5820122C3E933F9EA33FAEB33FB7C
:10090000EC33FCD8EA158222AA82AB83A2F7339299
:10091000D16002D2F7F582ACF0E58124F9F8E6FD6A
:1009200008E6FE0886F008E6A2F73392D56002D208
:10093000F7F583AFF022E582C583F582A2D133A219
:10094000D592D11392D5ECCFFCEBCEFBEACDFA22B7
:100950006040F82582500274FFF582E824F8501EAA
:10096000CCCBCAF9E4CC24F85014CBCAF9E4CB249C
:10097000F8500BCAF9E4CA24F8500379002224087D
:100980006010F8C3EC13FCEB13FBEA13FAE913F95C
:10099000D8F122AA8274A4C0E07409C0E0C00AC0E1
:1009A0000B8A82220511E4B51102051222AA827473
:1009B000302AFA24C6500A74072AFA300003430288
:1009C000208A82020993E582FAC4540FF582C0029C
:1009D0001209ADD002740F5AF5820209ADAA0CAB10
:1009E0000DAC0EAD0FAE10751720EE2EFEED23549C
:1009F00001FF4206EA2AFAEB33FBEC33FCED33FD50
:100A0000C3EE95134008EEC39513FE430201D517BC
:100A1000D98A0C8B0D8C0E8D0F8E1022785BE624FC
:100A2000D075F00AA4FA785CE624D02AFA785A86BF
:100A300003BB2D04C3E49AFA751301C3E464808AEE
:100A4000F063F08095F050297517038A0374F6253A
:100A500017401C0513E51714244FF8E517244FF928
:100A60008704A604772E1BEBFA6004051780DE8B43
:100A700002EA30E70D785086037851A60378507665
:100A80002E0AE515600AE51504FB2513F51380050C
:100A9000300B020513784F8603E4BB2D0104FB7075
:100AA000062006033007020513300403020B6330EF
:100AB0000557EB600C75822DC002120993D002809D
:100AC0001C30060C75822BC002120993D002800DD7
:100AD00030070A758220C002120993D0027850862E
:100AE00004BC2E0C758230C002120993D00215147A
:100AF000AC141514C3E5139C4003020BA775823098
:100B0000C002120993D00280E7AC141514C3E51398
:100B10009C500C758220C002120993D00280EA78A2
:100B20004F8604BC2D0C75822DC002120993D00291
:100B3000801C30060C75822BC002120993D00280F3
:100B40000D30070A758220C002120993D002785036
:100B50008604BC2E52758230C002120993D0021551
:100B6000148044EB600E75822DC002120993D002EE
:100B70001514802030060E75822BC002120993D006
:100B8000021514800F30070C758220C002120993E1
:100B9000D002151478508603BB2E0C758230C0022B
:100BA000120993D0021514751701C20DE517244FD1
:100BB000F88603BB4503020C64BB2E348A03C3E4EE
:100BC00064808BF063F08095F0500F758230C00325
:100BD000120993D0031B8B0280E48B02D20DE51522
:100BE0007038200B03020C6475822E1209938074F6
:100BF000300D278A03EB30E71FC3E464808515F0CE
:100C000063F08095F0500C758230C003120993D0C8
:100C10000315150B8B0280DD8B02300D0EC3E464CF
:100C2000808515F063F08095F05021E517244FF88A
:100C300086038B82C002120993D002300D0EE51795
:100C4000244FF88603BB2E02800215151514C3E449
:100C500064808515F063F08095F04003200D050554
:100C600017020BACC3E464808515F063F08095F047
:100C7000500A758230120993151580E830040FAAC6
:100C8000141514EA600875822012099380F122E598
:100C9000157003300B0D74072515FAE514C39AF58A
:100CA000148006E51424FAF514751700784F8602AF
:100CB000BA2B0F20060C784F7620200705751701F8
:100CC0000514200419AA14C3E464808AF063F08038
:100CD00095F0500A758220120993151480E7C20D11
:100CE000E517244FF88602BA00028069BA451F3022
:100CF00000027665C3E464808515F063F08095F0AA
:100D0000500A758230120993151580E8D20DC3E59B
:100D1000179402E433FA7014EA700EC3E464808519
:100D200015F063F08095F04003300D16E517244F61
:100D3000F886028A82120993E51724FD50121515D0
:100D4000800E7402B51709300B0675822E120993B6
:100D50000517020CE0300419AA14C3E464808AF079
:100D600063F08095F0500A75822012099315148063
:100D7000E72285820A85830BE4F511F512AA18ABE8
:100D800019AC1A8A828B838CF0121361FD74012ACC
:100D9000F518E43BF5198C1AEDFA7003021318BA32
:100DA00025028003021310C204C205C206C207C294
:100DB00008C209C20AC20BC201C202C203751300F3
:100DC0007514007515FFAB18AC19AD1A8B828C83A6
:100DD0008DF0121361FAA3AB82AC838B188C198D42
:100DE0001ABA25078A8212099380928A06BE3000B9
:100DF000402E8A06EE24C6402774FFB51513E5146D
:100E000075F00AA4FEEA24D02EF51470BFD2058036
:100E1000BBE51575F00AA4FEEA24D02EF51580ACCA
:100E2000BA2E0A74FFB515A4751500809F8A06BEF8
:100E30006100400E8A06EE248540075302DFD2008F
:100E40008002C200BA20028075BA2303020ECDBA16
:100E50002A03020ED2BA2B02805FBA2D028055BA45
:100E60004202805FBA4303020F17BA4403021052D2
:100E7000BA450302106CBA4603021068BA4703026F
:100E80001070BA4903021052BA4C02803BBA4E03AA
:100E9000021074BA4F03021059BA5003020FEBBA92
:100EA0005303020F3BBA550302105EBA58030210F7
:100EB0006302109ED204020DCCD206020DCCD207E2
:100EC000020DCCD209020DCCD20A020DCCD20B02FB
:100ED0000DCC74FFB5152030090BE51B14F8881BE9
:100EE0008614020DCCE51B24FEF8881B86060886B6
:100EF00007188E14020DCC30090BE51B14F8881B63
:100F00008615020DCCE51B24FEF8881B8606088694
:100F100007188E15020DCC30090AE51B14F8881B42
:100F20008602800FE51B24FEF8881B8603088604D2
:100F3000188B028A821209930210A3E51B24FDF884
:100F4000881B860308860408860518188B0C8C0DF0
:100F50008D0E8B828C838DF01214B5AB82AC838B9B
:100F60001674FFB5150385161520041DC3E51695E7
:100F7000145016E514C39516F514AB141514EB6054
:100F80000875822012099380F1850C82850D838576
:100F90000EF0121361FBFA6029AB151515C3E4645A
:100FA000808BF063F08095F050188A82120993AB21
:100FB0000CAC0DAD0E0BBB00010C8B0C8C0D8D0E13
:100FC00080C72004030210A3C3E516951440030252
:100FD00010A3E514C39516F514AB141514EB7003A8
:100FE0000210A375822012099380EEE51B24FDF800
:100FF000881B860308860408860518188B0C8C0D40
:101000008D0EE50EFB30E7047A438013EB546060ED
:10101000047A50800AEB30E6047A4980027A588AD2
:1010200082C00212099375823A12099375823012B6
:101030000993758278120993D002BA4902800BBADB
:1010400050028006850D821209C6850C821209C6DF
:101050008051D20875130A804A75130880457513AC
:101060000A8040751310803BD2018037D202803352
:10107000D203802FE51B24FDF8881B860308860415
:1010800008860518188B0C8C0D8D0E8B828C838D29
:10109000F0E51112149CA3E51212149C80058A82BB
:1010A000120993200106200203300370E51B24FC83
:1010B000F8881B8603088604088605088606181823
:1010C000188B0C8C0D8D0E8E0FE50CE50DE50EE5E5
:1010D0000F8B828C838DF0EE12137D74FFB5150398
:1010E000751506300327747F550FFB8B10E510EB49
:1010F0002BFB8B10E50E30E70674014510F510E56B
:101100001024684006749925104002D2023002066D
:10111000120C8F020D7D120A1C020D7DE513700367
:10112000020D7D7B5430092BE51B14F8881BE6FC6F
:101130003395E0FDFEFF8C0C8D0D8E0E8F0F200879
:101140005EAC0C7D007E007F008C0C8D0D8E0E8FB2
:101150000F804C300A1FE51B24FCF8881B8604080E
:1011600086050886060886071818188C0C8D0D8EC3
:101170000E8F0F802AE51B24FEF8881B8604088644
:101180000518ED3395E0FEFF8C0C8D0D8E0E8F0F44
:1011900020080CAC0CAD0D7E007F008E0E8F0F3042
:1011A0000B43E50C450D450E450F60397408B5132A
:1011B0000C758230C003120993D00380287410B5D7
:1011C0001323758230C003120993D00330000C75CD
:1011D0008278C003120993D003800A758258C00335
:1011E000120993D003300825AC0CAD0DAE0EE50FFF
:1011F000FF30E717C3E49CFCE49DFDE49EFEE49F02
:10120000FF8C0C8D0D8E0E8F0F8002C2087516009C
:10121000D20C8B00751000C0001209DDD000200C2C
:101220000DE510C4FCE6FD4CF61888038002A610FC
:101230000516B20CE50C450D450E450F70D688031A
:10124000E514700375140120051A200417E516042F
:10125000FCC39514500E758220C003120993D0036D
:10126000151480E930080E75822DC003120993D041
:101270000315148024E516602030060E75822BC0FD
:1012800003120993D0031514800F30070C758220C8
:10129000C003120993D003151420041EAC141514B6
:1012A000C3E5169C50273005047C3080027C208CDE
:1012B00082C003120993D00380E2C3E5169514504F
:1012C00009E514C39516F51480037514008B00AB63
:1012D000161516EB6022B20C200C0A08E6C4540F57
:1012E000FB8B1080078603740F5BF510851082C09E
:1012F000001209ADD00080D7200403020D7DAB148D
:101300001514EB7003020D7D75822012099380EE97
:101310008A82120993020D7D85118285128322AA89
:1013200082BA0A0810990280FB75990D1099028003
:10133000FB8A9922FCABF0AA83A982749EF582C233
:10134000D1EC30E716D2D1E9F42401F9EAF4340003
:10135000FAEBF43400FBECF43400FC1208D502087C
:101360008620F71430F6148883A88220F507E6A8B3
:101370008375830022E280F7E49322E022C0E0F844
:101380004582458345F07009F5F0FBFCFDFE021433
:101390004BE823A2F792E0F8A982AA83D2F7ABF038
:1013A0007C007E07C3749798404074FF2EFE740A39
:1013B00089F0A4F985F082740A8AF0A4FA85F08392
:1013C000740A8BF0A4FB740529F9EA3582FAEB352F
:1013D00083FB740035F0FCC3EC13FCEB13FBEA1346
:1013E000FAE913F908EC70EF80BAE8C3947FF88B40
:1013F000838EF0E4FBFCFDFEFF08C3E933F9EA331A
:10140000FAE58333F583EB3BD4FBEC3CD4FCED3DB8
:10141000D4FDEE3ED4FEEF3FD4FF602D05F0740501
:101420002BD4FBE43CD4FCE43DD4FDE43ED4FEE408
:101430003FD4FF758204C3EF13FFEE13FEED13FDDF
:10144000EC13FCEB13FBD582EDD8AF784FD0E02046
:10145000E704762B8002762D087906E7C4540F4402
:1014600030F608B90603762E08E7540F4430F60824
:1014700019B902E7764508E5F020E704762B8004E9
:10148000762DF4040875F00A844430F608E5F0443B
:1014900030F608E4F690004F75F0402220F7103047
:1014A000F6118883A88220F507F6A88375830022A9
:1014B000F280F7F022AA82AB83ACF07D007E008A36
:1014C000828B838CF0121361FFA3AA82AB83EF603F
:1014D000070DBD00EA0E80E78D828E83220000009A
:00000001FF
