:1000000002000375814F120144E582600302006F14
:10001000780079007A007B007C007D00EC4D601C4C
:1000200088828983E493A3A882A9838A828B83F040
:10003000A3AA82AB831CBCFFE31D80E07582007520
:1000400083007C007D00EC4D600AE4F0A31CBCFF43
:10005000F51D80F27582007583007C007D00EC4DFB
:10006000600AE4F0A31CBCFFF51D80F2120113121C
:10007000044680FE1B5B324A004144432074657392
:10008000742070726F6772616D0A46696C653A2000
:1000900025730A436F6D70696C65643A2025732C73
:1000A0002025730A0A00736F75726365636F646558
:1000B0002E63004D61722020372032303234003000
:1000C000303A31343A313600463A5858487A20208E
:1000D0002050483A5F5858580056523A582E5858AF
:1000E000202056543A582E585800543D25666D73BA
:1000F0002C2050686173653A2025662C2076315F8C
:10010000526D733A25662C2076325F526D733A2514
:10011000660D007523007524007525007526007591
:100120002700752800752900752A00752B00752C8D
:1001300000752D00752E00752F007530007531008B
:100140007532002275A7007597DE7597AD75FF8033
:1001500075EF0675A71075C12075A70075A9007504
:10016000A900E5A930E7FB75A90375A903E5A93046
:10017000E7FB43A41075E10175E20075E340759853
:1001800010758DE6858D8B53890F438920D28ED2D1
:10019000997582002275A700C2EF75B28075BC20E8
:1001A00075B91E75E80075DF3F75B300D2EF22AA5E
:1001B00082438E407592B87593FF8592948593958E
:1001C0007591047B00C3EB9A500BE59130E7FB532C
:1001D000917F0B80F075910022AA82AB837C007D19
:1001E00000C3EC9AED9B502B7E00BE0400501D75A1
:1001F00082FAC002C003C004C005C0061201AFD01D
:1002000006D005D004D003D0020E80DE0CBC00D195
:100210000D80CE22AA82851CF005F0740180022593
:10022000E0D5F0FBFB75A720BA0002800ABA0102F4
:10023000800FBA021E8014EBF4FA52F1EB42D48024
:1002400012EBF4FA52F2EB42D58008EBF4FA52F3D7
:10025000EB42CC75A700228582BBC2EDD2EC30ED1B
:10026000FD85BD8285BE8322120257120A51AA82E1
:10027000AB83ACF0FDC002C003C004C00590923A4D
:1002800075F0537440120A8DAA82AB83ACF0FDE581
:100290008124FCF581E4C0E074FCC0E0747FC0E020
:1002A0007446C0E08A828B838CF0ED120BE2AA8246
:1002B000AB83ACF0FDE58124FCF5818A828B838CD5
:1002C000F0ED225389F0438901C28C22D2A07582BD
:1002D000281201AFC2A022AA828AE0A2E79290A2CD
:1002E000E69291A2E59292A2E49293C0021202CC0D
:1002F0007582281201AFD0028AE0A2E39290A2E2B6
:100300009291A2E19292A2E092930202CCAA82D2AE
:10031000978A821202D79000020201D9AA82C2975C
:100320008A821202D79000050201D9C2A09000145F
:100330001201D975823312031C75823312031C75A6
:10034000823212031C75822812031C75820C120360
:100350001C75820112031C9000140201D9AA82AB01
:1003600083ACF07402B533047DC080027D808D8241
:10037000C002C003C00412031C9000051201D9D0B2
:1003800004D003D0027D007E00ED2AFFEE3BF88C06
:10039000018F82888389F0120A35FF60208F82C026
:1003A00002C003C004C005C00612030DD006D0056C
:1003B000D004D003D0020DBD00CF0E80CC3000247D
:1003C0008D028E03C3EA9410EB64809480501575FF
:1003D0008220C002C00312030DD003D0020ABA006B
:1003E000E30B80E022AA82AB83ACF07402B5340741
:1003F00074C04535FD800574804535FD8D82C00291
:10040000C003C00412031CD004D003D0027D007EC0
:1004100000ED2AFFEE3BF88C018F82888389F01271
:100420000A35FF60208F82C002C003C004C005C02F
:100430000612030DD006D005D004D003D0020DBDA6
:1004400000CF0E80CC221202C312032B9001F412B3
:1004500001D97474C0E07400C0E07480C0E0120B75
:10046000A915811581158174BFC0E07400C0E074C6
:1004700080C0E074B3C0E07400C0E07480C0E07479
:10048000A6C0E07400C0E07480C0E07479C0E0747D
:1004900000C0E07480C0E0120BA9E58124F4F5816E
:1004A0007534017535009000C875F0801203E5754C
:1004B00034027535009000D975F0801203E5751C83
:1004C00001758202120214751C0275820212021456
:1004D000120195758A00758C00C28D752200758297
:1004E0000F120268AA82AB83ACF0FDE4C0E0C0E06A
:1004F000C0E0C0E08A828B838CF0ED120A5DAA8294
:10050000E58124FCF581EA70D575820F120268AA94
:1005100082AB83ACF0FDEA4B4C8DF0C2F745F06046
:10052000E8D28C75820F120268AA82AB83ACF0FD10
:10053000E4C0E0C0E0C0E0C0E08A828B838CF0EDD4
:10054000120A5DAA82E58124FCF581EA6009108D1A
:100550000280D0052280CC75820F120268AA82AB7D
:1005600083ACF0FDE4C0E0C0E0C0E0C0E08A828B74
:10057000838CF0ED120A5DAA82E58124FCF581EA04
:100580006009108D0280D0052280CCC28C85228229
:10059000120B30AA82AB83ACF0FDC002C003C004D2
:1005A000C00590000075F0807447120A8DAA82ABD6
:1005B00083ACF0FDE58124FCF581858C82C002C00E
:1005C00003C004C005120B30AE82AF83A8F0F9C09F
:1005D00006C007C000C00190000075F0807443128F
:1005E0000A8DAE82AF83A8F0F9E58124FCF581D0B5
:1005F00005D004D003D002C006C007C000C0018AE5
:10060000828B838CF0ED120B3BAA82AB83ACF0FDA6
:10061000E58124FCF581AE8A7F008E828F83C00243
:10062000C003C004C005120BD5AE82AF83A8F0F999
:10063000D005D004D003D002C006C007C000C0015E
:100640008A828B838CF0ED120B3BAA82AB83ACF0D9
:10065000FDE58124FCF581C002C003C004C0059003
:10066000F4FC75F0B27434120A8D858236858337B6
:1006700085F038F539E58124FCF58175820F120289
:1006800068AE82AF83A8F0F9E4C0E0C0E0C0E0C08B
:10069000E08E828F8388F0E9120A5DAE82E58124C4
:1006A000FCF581EE70D575820F120268AE82AF83C1
:1006B000A8F0F9EE4F4889F0C2F745F060E8C0367F
:1006C000C037C038C03990000075F07A7444120AFF
:1006D0008DAE82AF83A8F0F9E58124FCF581C006D8
:1006E000C007C000C001E4C0E0C0E07480C0E07496
:1006F00040C0E08E828F8388F0E9120BE2AA82ABC1
:1007000083ACF0FDE58124FCF5818A828B838CF03B
:10071000ED120BCA85823A85833B1201D975820F8F
:10072000120268AC82AD83AAF0FB742FC0E074E4BF
:10073000C0E074B4C0E0743FC0E08C828D838AF066
:10074000EB120BE285822385832485F025F526E5CF
:100750008124FCF581D001D000D007D00675820E2F
:10076000C006C007C000C001120268AA82AB83ACF9
:10077000F0FDE4C0E0C0E0C0E0C0E08A828B838C82
:10078000F0ED120A5DAA82E58124FCF581D001D04A
:1007900000D007D006EA70C575820EC006C007C03B
:1007A00000C001120268AA82AB83ACF0FDD001D078
:1007B00000D007D006EA4B4C8DF0C2F745F060D868
:1007C000853A82853B83C006C007C000C001120184
:1007D000D975820E120268AA82AB83ACF0FD742F29
:1007E000C0E074E4C0E074B4C0E0743FC0E08A824A
:1007F0008B838CF0ED120BE285822785832885F0B0
:1008000029F52AE58124FCF581D001D000D007D05C
:1008100006C28C752200758C00758A00C28D7582A7
:100820000FC006C007C000C001120268AA82AB83D5
:10083000ACF0FDD001D000D007D006EA4B4C8DF0D3
:10084000C2F745F070D875820FC006C007C000C05F
:1008500001120268AA82AB83ACF0FDD001D000D0B7
:1008600007D006EA4B4C8DF0C2F745F060D8D28C29
:1008700075820EC006C007C000C001120268AA82BD
:10088000AB83ACF0FDD001D000D007D006EA4B4CD2
:100890008DF0C2F745F06009108D0280D3052280EB
:1008A000CF75820EC006C007C000C001120268AA40
:1008B00082AB83ACF0FDD001D000D007D006EA4B6C
:1008C0004C8DF0C2F745F07009108D0280D30522DF
:1008D00080CFC28C852282C006C007C000C0011232
:1008E0000B30AA82AB83ACF0FDC002C003C004C0D1
:1008F0000590000075F0807447120A8D85823C8552
:10090000833D85F03EF53FE58124FCF581858C82B1
:10091000120B30AA82AB83ACF0FDC002C003C0044E
:10092000C00590000075F0807443120A8DAA82AB56
:1009300083ACF0FDE58124FCF581C002C003C00456
:10094000C005853C82853D83853EF0E53F120B3B2B
:1009500085823C85833D85F03EF53FE58124FCF5AD
:1009600081AA8A7B008A828B83120BD5AA82AB83F1
:10097000ACF0FDC002C003C004C005853C82853DCB
:1009800083853EF0E53F120B3BAA82AB83ACF0FDC2
:10099000E58124FCF581C002C003C004C00590F4C9
:1009A000FC75F0327434120A8DAA82AB83ACF0FD70
:1009B000E58124FCF581C002C003C004C00590009D
:1009C0000075F0B47443120A8DAA82AB83ACF0FDBB
:1009D000E58124FCF581C036C037C038C0398A8231
:1009E0008B838CF0ED120BE2AA82AB83ACF0FDE5B9
:1009F0008124FCF581D001D000D007D006C027C0EB
:100A000028C029C02AC023C024C025C026C002C0D7
:100A100003C004C005C006C007C000C00174EAC01E
:100A2000E07400C0E07480C0E0120BA9E58124ED01
:100A3000F5810204D320F71430F6148883A88220AD
:100A4000F507E6A88375830022E280F7E49322E0AD
:100A500022E4AC83AB82FAF9748E020D0AFFA881FE
:100A60001818120D32D2D133E6400730E70B7582E9
:100A7000012220E70675820022C2D1120D14E9700E
:100A800003F5822230D101B3E433F58222120DDF67
:100A9000BC0003020D7EEF60FA30D502B2D1E583CF
:100AA000B4FF03020D94E582B4FF03020D94258385
:100AB00040072482400B020D7E2483145003020D54
:100AC00094F582EA8DF0A4A8F0EA8EF0A428F8E468
:100AD00035F0F9EB8DF0A428E935F0F9E433CA8F4D
:100AE000F0A429F9EA35F0FAEBF88EF0A429F9EA36
:100AF00035F0FAE433FBEC8DF0A429F9EA35F0FA8D
:100B0000E43BFBE88FF0A42AFAEB35F0FBE433CCAE
:100B1000FD8EF0A42AFAEB35F0FBE43CFCED8FF0FF
:100B2000A42BFBEC35F0FC20E703120DAC020D5DAD
:100B3000E4AC82FBFAF97486020D0A120DDF79002B
:100B4000E583B58202800D5003120E0DE583C39537
:100B500082120E27E5D0C465D020E117EA2DFAEB0A
:100B60003EFBEC3FFC50097401120E27EC4480FC64
:100B7000020D5DC3EA9DFAEB9EFBEC9FFC500FC398
:100B8000E499F9E49AFAE49BFBE49CFCB2D1120DDF
:100B9000AC020D5D0217F685821885831985F01A5F
:100BA00085091B900B94021249C008858108E5084D
:100BB00024FBF51BE50824FBF8861808861908862F
:100BC0001A900B94121249D008227F8E12180DF53C
:100BD0008385F08222AC83AB827A007900748E0226
:100BE000183B120DDF30D502B2D1BF0009BC0003A3
:100BF000020DA1020D94BC0003020D7EE583B4FF3B
:100C00000BE582B4FF03020DA1020D7EE582B4FF65
:100C100003020D94C395835007247F400B020D7E81
:100C20002480145003020D94C0E0E4CCCBCAF98DAB
:100C30001C8E1D8F1EEF54F0C4F51F758306851F93
:100C4000F0EB84F582E9C4F9EAC4FAEBC4FBEC5496
:100C50000FC47803D6FC18EBD6FB18EAD6FA8582C7
:100C6000F0EDA4A8F0FD8582F0EEA428FEE435F0B6
:100C7000F88582F0EFA428FFE435F0F8E99DF9EA61
:100C80009EFAEB9FFBEC98FCAD1CAE1DAF1E30E74F
:100C9000101582E92DF9EA3EFAEB3FFBE43CFC80BB
:100CA000EDC082D58398C3E933F9EA33FAEB33FB1D
:100CB000EC33FCC3E99DEA9EEB9FEC9400B3E41394
:100CC000F9D002D0E0C44AFAD003D0E0C44BFBD044
:100CD00004D0E0F5F0540FC44CFCD082158230F4FF
:100CE0000FD3EC13FCEB13FBEA13FAE913F90582BB
:100CF000E930E70A74012AFAE43BFBE43CFC020D0C
:100D000075FCABF0AA83A982749EC2D1F582120D44
:100D1000AC020D5D7901AA82E68F82B5821318E6D6
:100D2000B5F00E18E6B5830918E68A82B582027915
:100D30000022B4800FE5F0700AE5837006E582704A
:100D4000027F00EFB6801518B6001018B6000B1819
:100D5000B6000608080876002208080822B98003B1
:100D6000EA13B34010EA2401FAE43BFBE43CFC50F4
:100D7000047C800582BC000EBB000BBA0008E4F5C1
:100D8000F0F583F58222A2D1E582138CF092F78BE5
:100D9000838A8222E4F583F58275F080F4A2D11370
:100DA00022E4F583F58275F0C0747F227804EC703C
:100DB00011E58224F8500AF582E4C9CACBFCD8EFC9
:100DC00022EC7820058220E713D5820122C3E93383
:100DD000F9EA33FAEB33FBEC33FCD8EA158222AAAA
:100DE00082AB83A2F73392D16002D2F7F582ACF0E6
:100DF000E58124F9F8E6FD08E6FE0886F008E6A29B
:100E0000F73392D56002D2F7F583AFF022E582C5C1
:100E100083F582A2D133A2D592D11392D5ECCFFC27
:100E2000EBCEFBEACDFA226040F82582500274FF37
:100E3000F582E824F8501ECCCBCAF9E4CC24F85053
:100E400014CBCAF9E4CB24F8500BCAF9E4CA24F84D
:100E5000500379002224086010F8C3EC13FCEB1354
:100E6000FBEA13FAE913F9D8F122AA82747BC0E0F5
:100E7000740EC0E0C00AC00B8A82220511E4B511CD
:100E800002051222AA8274302AFA24C6500A740774
:100E90002AFA3001034302208A82020E6AE582FAAE
:100EA000C4540FF582C002120E84D002740F5AF59A
:100EB00082020E84AA0CAB0DAC0EAD0FAE107517EE
:100EC00020EE2EFEED235401FF4206EA2AFAEB3310
:100ED000FBEC33FCED33FDC3EE95134008EEC395F8
:100EE00013FE430201D517D98A0C8B0D8C0E8D0F82
:100EF0008E1022784CE624D075F00AA4FA784DE6DC
:100F000024D02AFA784B8603BB2D04C3E49AFA75E1
:100F10001301C3E464808AF063F08095F050297572
:100F200017038A0374F62517401C0513E5171424CC
:100F300040F8E5172440F98704A604772E1BEBFA46
:100F40006004051780DE8B02EA30E70D78418603E6
:100F50007842A6037841762E0AE515600AE5150465
:100F6000FB2513F5138005300C020513784086032A
:100F7000E4BB2D0104FB70062007033008020513B3
:100F800030050302103A300657EB600C75822DC015
:100F900002120E6AD002801C30070C75822BC00230
:100FA000120E6AD002800D30080A758220C002122B
:100FB0000E6AD00278418604BC2E0C758230C002C5
:100FC000120E6AD0021514AC141514C3E5139C401C
:100FD0000302107E758230C002120E6AD00280E7D2
:100FE000AC141514C3E5139C500C758220C002127A
:100FF0000E6AD00280EA78408604BC2D0C75822DE2
:10100000C002120E6AD002801C30070C75822BC001
:1010100002120E6AD002800D30080A758220C002CA
:10102000120E6AD00278418604BC2E52758230C0FE
:1010300002120E6AD00215148044EB600E75822DE8
:10104000C002120E6AD0021514802030070E75827D
:101050002BC002120E6AD0021514800F30080C75D6
:101060008220C002120E6AD002151478418603BB9A
:101070002E0C758230C002120E6AD002151475173C
:1010800001C20EE5172440F88603BB450302113B5D
:10109000BB2E348A03C3E464808BF063F08095F048
:1010A000500F758230C003120E6AD0031B8B028072
:1010B000E48B02D20EE5157038200C0302113B754B
:1010C000822E120E6A8074300E278A03EB30E71FDF
:1010D000C3E464808515F063F08095F0500C758250
:1010E00030C003120E6AD00315150B8B0280DD8B06
:1010F00002300E0EC3E464808515F063F08095F035
:101100005021E5172440F886038B82C002120E6A34
:10111000D002300E0EE5172440F88603BB2E028065
:101120000215151514C3E464808515F063F08095ED
:10113000F04003200E050517021083C3E464808588
:1011400015F063F08095F0500A758230120E6A1522
:101150001580E830050FAA141514EA60087582207E
:10116000120E6A80F122E5157003300C0D7407250C
:1011700015FAE514C39AF5148006E51424FAF5145B
:1011800075170078408602BA2B0F20070C7840763E
:10119000202008057517010514200519AA14C3E4B9
:1011A00064808AF063F08095F0500A758220120EF8
:1011B0006A151480E7C20EE5172440F88602BA00CB
:1011C000028069BA451F3001027665C3E4648085F8
:1011D00015F063F08095F0500A758230120E6A1592
:1011E0001580E8D20EC3E5179402E433FA7014EACE
:1011F000700EC3E464808515F063F08095F04003C1
:10120000300E16E5172440F886028A82120E6AE52F
:101210001724FD50121515800E7402B51709300CF5
:101220000675822E120E6A05170211B7300519AA2B
:1012300014C3E464808AF063F08095F0500A7582EC
:1012400020120E6A151480E72285820A85830BE43A
:10125000F511F512AA18AB19AC1A8A828B838CF09F
:10126000120A35FD74012AF518E43BF5198C1AEDC4
:10127000FA70030217EFBA250280030217E7C205CE
:10128000C206C207C208C209C20AC20BC20CC2020D
:10129000C203C2047513007514007515FFAB18ACBA
:1012A00019AD1A8B828C838DF0120A35FAA3AB82AA
:1012B000AC838B188C198D1ABA25078A82120E6A94
:1012C00080928A06BE3000402E8A06EE24C6402751
:1012D00074FFB51513E51475F00AA4FEEA24D02EA8
:1012E000F51470BFD20680BBE51575F00AA4FEEABE
:1012F00024D02EF51580ACBA2E0A74FFB515A4754E
:101300001500809F8A06BE6100400E8A06EE248585
:1013100040075302DFD2018002C201BA2002807569
:10132000BA23030213A4BA2A030213A9BA2B028018
:101330005FBA2D028055BA4202805FBA430302139E
:10134000EEBA4403021529BA4503021543BA46030F
:1013500002153FBA4703021547BA4903021529BAD5
:101360004C02803BBA4E0302154BBA4F03021530B4
:10137000BA50030214C2BA5303021412BA5503023C
:101380001535BA580302153A021575D2050212A393
:10139000D2070212A3D2080212A3D20A0212A3D2C7
:1013A0000B0212A3D20C0212A374FFB51520300A4F
:1013B0000BE51B14F8881B86140212A3E51B24FE00
:1013C000F8881B8606088607188E140212A3300AB6
:1013D0000BE51B14F8881B86150212A3E51B24FEDF
:1013E000F8881B8606088607188E150212A3300A95
:1013F0000AE51B14F8881B8602800FE51B24FEF803
:10140000881B8603088604188B028A82120E6A02E1
:10141000157AE51B24FDF8881B86030886040886D8
:101420000518188B0C8C0D8D0E8B828C838DF01211
:101430001997AB82AC838B1674FFB515038516150F
:1014400020051DC3E51695145016E514C39516F531
:1014500014AB141514EB6008758220120E6A80F12B
:10146000850C82850D83850EF0120A35FBFA602902
:10147000AB151515C3E464808BF063F08095F050D4
:10148000188A82120E6AAB0CAC0DAD0E0BBB0001BC
:101490000C8B0C8C0D8D0E80C720050302157AC3B2
:1014A000E5169514400302157AE514C39516F51454
:1014B000AB141514EB700302157A758220120E6AB4
:1014C00080EEE51B24FDF8881B8603088604088649
:1014D0000518188B0C8C0D8D0EE50EFB30E7047A89
:1014E000438013EB546060047A50800AEB30E604CA
:1014F0007A4980027A588A82C002120E6A75823A4C
:10150000120E6A758230120E6A758278120E6AD0D7
:1015100002BA4902800BBA50028006850D82120E73
:101520009D850C82120E9D8051D20975130A804A46
:10153000751308804575130A8040751310803BD2DF
:10154000028037D2038033D204802FE51B24FDF8BC
:10155000881B860308860408860518188B0C8C0DDA
:101560008D0E8B828C838DF0E51112197EA3E5120E
:1015700012197E80058A82120E6A20020620030359
:10158000300470E51B24FCF8881B860308860408D9
:1015900086050886061818188B0C8C0D8D0E8E0F7C
:1015A000E50CE50DE50EE50F8B828C838DF0EE12D8
:1015B000185F74FFB51503751506300427747F5541
:1015C0000FFB8B10E510EB2BFB8B10E50E30E706C5
:1015D00074014510F510E510246840067499251033
:1015E0004002D203300306121166021254120EF3A7
:1015F000021254E51370030212547B45300A2BE5A6
:101600001B14F8881BE6FC3395E0FDFEFF8C0C8D67
:101610000D8E0E8F0F20095EAC0C7D007E007F00CA
:101620008C0C8D0D8E0E8F0F804C300B1FE51B2404
:10163000FCF8881B860408860508860608860718B5
:1016400018188C0C8D0D8E0E8F0F802AE51B24FE32
:10165000F8881B860408860518ED3395E0FEFF8C9C
:101660000C8D0D8E0E8F0F20090CAC0CAD0D7E0075
:101670007F008E0E8F0F300C43E50C450D450E4557
:101680000F60397408B5130C758230C003120E6AEE
:10169000D00380287410B51323758230C003120E56
:1016A0006AD00330010C758278C003120E6AD00331
:1016B000800A758258C003120E6AD003300925AC27
:1016C0000CAD0DAE0EE50FFF30E717C3E49CFCE454
:1016D0009DFDE49EFEE49FFF8C0C8D0D8E0E8F0F02
:1016E0008002C209751600D20D8B00751000C00073
:1016F000120EB4D000200D0DE510C4FCE6FD4CF632
:101700001888038002A6100516B20DE50C450D459C
:101710000E450F70D68803E514700375140120067A
:101720001A200517E51604FCC39514500E75822087
:10173000C003120E6AD003151480E930090E7582B9
:101740002DC003120E6AD00315148024E516602004
:1017500030070E75822BC003120E6AD00315148059
:101760000F30080C758220C003120E6AD0031514C6
:1017700020051EAC141514C3E5169C502730060432
:101780007C3080027C208C82C003120E6AD00380E1
:10179000E2C3E51695145009E514C39516F51480B7
:1017A000037514008B00AB161516EB6022B20D20EA
:1017B0000D0A08E6C4540FFB8B1080078603740FD4
:1017C0005BF510851082C000120E84D00080D720F7
:1017D0000503021254AB141514EB70030212547576
:1017E0008220120E6A80EE8A82120E6A02125485DC
:1017F000118285128322AA82BA0A0810990280FBFC
:1018000075990D10990280FB8A99227F9E1219BF4B
:1018100030D103020D7EC3EF9582500974FFF5F0BD
:10182000F583F582227900120E2789828A838BF054
:10183000EC22FCABF0AA83A982749EF582C2D1ECA3
:1018400030E716D2D1E9F42401F9EAF43400FAEBD6
:10185000F43400FBECF43400FC120DAC020D5DC05E
:10186000E0F84582458345F07009F5F0FBFCFDFE8C
:1018700002192DE823A2F792E0F8A982AA83D2F7F1
:10188000ABF07C007E07C3749798404074FF2EFE37
:10189000740A89F0A4F985F082740A8AF0A4FA85A2
:1018A000F083740A8BF0A4FB740529F9EA3582FAF7
:1018B000EB3583FB740035F0FCC3EC13FCEB13FB3E
:1018C000EA13FAE913F908EC70EF80BAE8C3947FE1
:1018D000F88B838EF0E4FBFCFDFEFF08C3E933F9CF
:1018E000EA33FAE58333F583EB3BD4FBEC3CD4FCE1
:1018F000ED3DD4FDEE3ED4FEEF3FD4FF602D05F06C
:1019000074052BD4FBE43CD4FCE43DD4FDE43ED48C
:10191000FEE43FD4FF758204C3EF13FFEE13FEED28
:1019200013FDEC13FCEB13FBD582EDD8AF7840D060
:10193000E020E704762B8002762D087906E7C45470
:101940000F4430F608B90603762E08E7540F4430EA
:10195000F60819B902E7764508E5F020E704762B8A
:101960008004762DF4040875F00A844430F608E506
:10197000F04430F608E4F690004075F0402220F77D
:101980001030F6118883A88220F507F6A8837583A6
:101990000022F280F7F022AA82AB83ACF07D007EB9
:1019A000008A828B838CF0120A35FFA3AA82AB8354
:1019B000EF60070DBD00EA0E80E78D828E8322AABC
:1019C00082AB83A2F73392D16002D2F7F582ACF0FA
:1019D00022000000000000000000000000000000E5
:00000001FF
