:10000000020003758154120168E582600302006FEB
:10001000780079007A007B007C007D00EC4D601C4C
:1000200088828983E493A3A882A9838A828B83F040
:10003000A3AA82AB831CBCFFE31D80E07582007520
:1000400083007C007D00EC4D600AE4F0A31CBCFF43
:10005000F51D80F27582007583007C007D00EC4DFB
:10006000600AE4F0A31CBCFFF51D80F212011F1210
:1000700002FE80FE1B5B324A0041444320746573DC
:10008000742070726F6772616D0A46696C653A2000
:1000900025730A436F6D70696C65643A2025732C73
:1000A0002025730A0A00736F75726365636F646558
:1000B0002E63004D61722020352032303234003101
:1000C000313A31303A30310068657265310A006882
:1000D000616C667761790A0025660A0062616C6C62
:1000E000730A7700200D543D2566206D7320202073
:1000F00020004D617820416D70204070322E313DDE
:1001000025372E3566562C204D617820416D7020A4
:100110004070322E323D25372E3566562C0D007537
:100120002D00752E00752F00753000753100753269
:10013000007533007534007535007536007537006D
:10014000753800753900753A00753B00753C0075CF
:100150003D00753E00753F007540007541007542D9
:10016000007543007544002275A7007597DE7597EA
:10017000AD75FF8075EF0675A71075C12075A700D6
:1001800075A90075A900E5A930E7FB75A90375A954
:1001900003E5A930E7FB43A41075E10175E20075A2
:1001A000E340759810758DE6858D8B53890F4389D3
:1001B00020D28ED2997582002275A700C2EF75B247
:1001C0008075BC2075B91E75E80075DF3F75B300FA
:1001D000D2EF22AA82438E407592B87593FF859222
:1001E000948593957591047B00C3EB9A500BE59130
:1001F00030E7FB53917F0B80F075910022AA82AB10
:10020000837C007D00C3EC9AED9B502B7E00BE04E6
:1002100000501D7582FAC002C003C004C005C006AC
:100220001201D3D006D005D004D003D0020E80DE58
:100230000CBC00D10D80CE22AA82851CF005F07482
:1002400001800225E0D5F0FBFB75A720BA000280F3
:100250000ABA0102800FBA021E8014EBF4FA52F1BE
:10026000EB42D48012EBF4FA52F2EB42D58008EB69
:10027000F4FA52F3EB42CC75A700228582BBC2EDA3
:10028000D2EC30EDFD85BD8285BE8322C2EDD2EC7D
:1002900030EDFD85BD8285BE832212027B1205E111
:1002A000AA82AB83ACF0FDC002C003C004C00590BD
:1002B000923A75F053744012061DAA82AB83ACF0DB
:1002C000FDE58124FCF581E4C0E074FCC0E0747FAE
:1002D000C0E07446C0E08A828B838CF0ED12076721
:1002E000AA82AB83ACF0FDE58124FCF5818A828B88
:1002F000838CF0ED225389F0438905C28C221202CF
:10030000F59001F41201FD7474C0E07400C0E07453
:1003100080C0E012073915811581158174BFC0E0D6
:100320007400C0E07480C0E074B3C0E07400C0E04A
:100330007480C0E074A6C0E07400C0E07480C0E0C7
:100340007479C0E07400C0E07480C0E0120739E541
:100350008124F4F581751C01758202120238751C26
:10036000027582021202381201B9758A00758C007A
:10037000C28D75220074C8C0E07400C0E07480C0F3
:10038000E012073915811581158120A1FD74CFC0B8
:10039000E07400C0E07480C0E01207391581158157
:1003A0001581A2A1E433FA7B00C002C00374D8C057
:1003B000E07400C0E07480C0E0120739E58124FBDE
:1003C000F58130A1FD74DCC0E07400C0E07480C031
:1003D000E0120739158115811581D28C30A10910E1
:1003E0008D0280F8052280F420A109108D0280F88A
:1003F000052280F4C28C8522821206C0AA82AB83B9
:10040000ACF0FDC002C003C004C00590000075F050
:1004100080744712061DAA82AB83ACF0FDE58124EF
:10042000FCF581858C82C002C003C004C0051206A1
:10043000C0AE82AF83A8F0F9C006C007C000C001FB
:1004400090000075F080744312061DAE82AF83A841
:10045000F0F9E58124FCF581D005D004D003D00269
:10046000C006C007C000C0018A828B838CF0ED12E9
:1004700006CBAA82AB83ACF0FDE58124FCF581AE0E
:100480008A7F008E828F83C002C003C004C0051221
:10049000075AAE82AF83A8F0F9D005D004D003D0BC
:1004A00002C006C007C000C0018A828B838CF0EDB9
:1004B0001206CBAA82AB83ACF0FDE58124FCF5816A
:1004C000C002C003C004C00590F4FC75F03274345F
:1004D00012061DAA82AB83ACF0FDE58124FCF581F8
:1004E000C002C003C004C00590000075F07A7444D7
:1004F00012061DAA82AB83ACF0FDE58124FCF581D8
:10050000C002C003C004C00574E4C0E07400C0E0D1
:100510007480C0E0120739E58124F9F58175820EF7
:1005200012029A85823D85833E85F03FF540C02DBD
:10053000C02EC02FC030853D82853E83853FF0E5CB
:10054000401205EDAA82E58124FCF581EA600C8564
:100550003D35853E36853F37854038853D2D853E86
:100560002E853F2F85403075820F12029A85824179
:1005700085834285F043F544C031C032C033C03476
:100580008541828542838543F0E5441205EDAA82C8
:10059000E58124FCF581EA600C85413985423A8584
:1005A000433B85443C854131854232854333854414
:1005B000340523E4B523020524C039C03AC03BC04A
:1005C0003CC035C036C037C03874F2C0E07400C0DB
:1005D000E07480C0E0120739E58124F5F58102035B
:1005E0006AE4AC83AB82FAF9748E02088FFFA881AB
:1005F00018181208B7D2D133E6400730E70B7582DE
:10060000012220E70675820022C2D1120899E97002
:1006100003F5822230D101B3E433F582221209645A
:10062000BC0003020903EF60FA30D502B2D1E583C2
:10063000B4FF03020919E582B4FF030209192583F7
:1006400040072482400B020903248314500302094B
:1006500019F582EA8DF0A4A8F0EA8EF0A428F8E457
:1006600035F0F9EB8DF0A428E935F0F9E433CA8FC1
:10067000F0A429F9EA35F0FAEBF88EF0A429F9EAAA
:1006800035F0FAE433FBEC8DF0A429F9EA35F0FA01
:10069000E43BFBE88FF0A42AFAEB35F0FBE433CC23
:1006A000FD8EF0A42AFAEB35F0FBE43CFCED8FF074
:1006B000A42BFBEC35F0FC20E7031209310208E221
:1006C000E4AC82FBFAF9748602088F12096479009F
:1006D000E583B58202800D5003120992E583C3952C
:1006E000821209ACE5D0C465D020E117EA2DFAEBFF
:1006F0003EFBEC3FFC500974011209ACEC4480FC59
:100700000208E2C3EA9DFAEB9EFBEC9FFC500FC38C
:10071000E499F9E49AFAE49BFBE49CFCB2D1120957
:10072000310208E202137B85821885831985F01A4D
:1007300085091B900724020DCEC008858108E508B5
:1007400024FBF51BE50824FBF886180886190886A3
:100750001A900724120DCED00822AC83AB827A0007
:100760007900748E02139912096430D502B2D1BF98
:100770000009BC0003020926020919BC0003020992
:1007800003E583B4FF0BE582B4FF030209260209E7
:1007900003E582B4FF03020919C395835007247F40
:1007A000400B0209032480145003020919C0E0E43D
:1007B000CCCBCAF98D1C8E1D8F1EEF54F0C4F51FD3
:1007C000758306851FF0EB84F582E9C4F9EAC4FA63
:1007D000EBC4FBEC540FC47803D6FC18EBD6FB1823
:1007E000EAD6FA8582F0EDA4A8F0FD8582F0EEA4A9
:1007F00028FEE435F0F88582F0EFA428FFE435F018
:10080000F8E99DF9EA9EFAEB9FFBEC98FCAD1CAE73
:100810001DAF1E30E7101582E92DF9EA3EFAEB3FD5
:10082000FBE43CFC80EDC082D58398C3E933F9EA50
:1008300033FAEB33FBEC33FCC3E99DEA9EEB9FEC10
:100840009400B3E413F9D002D0E0C44AFAD003D044
:10085000E0C44BFBD004D0E0F5F0540FC44CFCD006
:1008600082158230F40FD3EC13FCEB13FBEA13FA7E
:10087000E913F90582E930E70A74012AFAE43BFB3F
:10088000E43CFC0208FAFCABF0AA83A982749EC285
:10089000D1F5821209310208E27901AA82E68F823B
:1008A000B5821318E6B5F00E18E6B5830918E68A86
:1008B00082B58202790022B4800FE5F0700AE583E8
:1008C0007006E58270027F00EFB6801518B6001042
:1008D00018B6000B18B600060808087600220808AB
:1008E0000822B98003EA13B34010EA2401FAE43B7A
:1008F000FBE43CFC50047C800582BC000EBB000B7A
:10090000BA0008E4F5F0F583F58222A2D1E582135E
:100910008CF092F78B838A8222E4F583F58275F05E
:1009200080F4A2D11322E4F583F58275F0C0747FC0
:10093000227804EC7011E58224F8500AF582E4C9AB
:10094000CACBFCD8EF22EC7820058220E713D582B1
:100950000122C3E933F9EA33FAEB33FBEC33FCD879
:10096000EA158222AA82AB83A2F73392D16002D227
:10097000F7F582ACF0E58124F9F8E6FD08E6FE081B
:1009800086F008E6A2F73392D56002D2F7F583AF7E
:10099000F022E582C583F582A2D133A2D592D1138C
:1009A00092D5ECCFFCEBCEFBEACDFA226040F825E5
:1009B00082500274FFF582E824F8501ECCCBCAF9AD
:1009C000E4CC24F85014CBCAF9E4CB24F8500BCA79
:1009D000F9E4CA24F8500379002224086010F8C30F
:1009E000EC13FCEB13FBEA13FAE913F9D8F122AA92
:1009F000827400C0E0740AC0E0C00AC00B8A822280
:100A00000511E4B51102051222AA8274302AFA24D3
:100A1000C6500A74072AFA3000034302208A820271
:100A200009EFE582FAC4540FF582C002120A09D018
:100A300002740F5AF582020A09AA0CAB0DAC0EAD76
:100A40000FAE10751720EE2EFEED235401FF420667
:100A5000EA2AFAEB33FBEC33FCED33FDC3EE9513DE
:100A60004008EEC39513FE430201D517D98A0C8BBB
:100A70000D8C0E8D0F8E10227851E624D075F00A61
:100A8000A4FA7852E624D02AFA78508603BB2D04C3
:100A9000C3E49AFA751301C3E464808AF063F080BA
:100AA00095F050297517038A0374F62517401C0525
:100AB00013E517142445F8E5172445F98704A6041F
:100AC000772E1BEBFA6004051780DE8B02EA30E715
:100AD0000D784686037847A6037846762E0AE515F4
:100AE000600AE51504FB2513F5138005300B02059C
:100AF0001378458603E4BB2D0104FB700620060332
:100B00003007020513300403020BBF300557EB60BA
:100B10000C75822DC0021209EFD002801C30060C29
:100B200075822BC0021209EFD002800D30070A75C2
:100B30008220C0021209EFD00278468604BC2E0C37
:100B4000758230C0021209EFD0021514AC141514CE
:100B5000C3E5139C4003020C03758230C0021209E6
:100B6000EFD00280E7AC141514C3E5139C500C754C
:100B70008220C0021209EFD00280EA78458604BCC8
:100B80002D0C75822DC0021209EFD002801C300698
:100B90000C75822BC0021209EFD002800D30070ABB
:100BA000758220C0021209EFD00278468604BC2E5E
:100BB00052758230C0021209EFD00215148044EB46
:100BC000600E75822DC0021209EFD002151480202C
:100BD00030060E75822BC0021209EFD00215148068
:100BE0000F30070C758220C0021209EFD0021514D5
:100BF00078468603BB2E0C758230C0021209EFD0F6
:100C0000021514751701C20DE5172445F88603BBBC
:100C10004503020CC0BB2E348A03C3E464808BF00E
:100C200063F08095F0500F758230C0031209EFD049
:100C3000031B8B0280E48B02D20DE5157038200B6C
:100C400003020CC075822E1209EF8074300D278AC2
:100C500003EB30E71FC3E464808515F063F08095F3
:100C6000F0500C758230C0031209EFD00315150B3C
:100C70008B0280DD8B02300D0EC3E464808515F09D
:100C800063F08095F05021E5172445F886038B82A8
:100C9000C0021209EFD002300D0EE5172445F88688
:100CA00003BB2E02800215151514C3E4648085155C
:100CB000F063F08095F04003200D050517020C0845
:100CC000C3E464808515F063F08095F0500A758266
:100CD000301209EF151580E830040FAA141514EA34
:100CE00060087582201209EF80F122E5157003304B
:100CF0000B0D74072515FAE514C39AF5148006E563
:100D00001424FAF51475170078458602BA2B0F20C3
:100D1000060C784576202007057517010514200478
:100D200019AA14C3E464808AF063F08095F0500A35
:100D30007582201209EF151480E7C20DE5172445CE
:100D4000F88602BA00028069BA451F300002766553
:100D5000C3E464808515F063F08095F0500A7582D5
:100D6000301209EF151580E8D20DC3E5179402E49F
:100D700033FA7014EA700EC3E464808515F063F0F2
:100D80008095F04003300D16E5172445F886028A59
:100D9000821209EFE51724FD50121515800E74021A
:100DA000B51709300B0675822E1209EF0517020DD3
:100DB0003C300419AA14C3E464808AF063F080957F
:100DC000F0500A7582201209EF151480E7228582FF
:100DD0000A85830BE4F511F512AA18AB19AC1A8A2F
:100DE000828B838CF01213BDFD74012AF518E43B4D
:100DF000F5198C1AEDFA7003021374BA25028003F8
:100E000002136CC204C205C206C207C208C209C2EC
:100E10000AC20BC201C202C2037513007514007529
:100E200015FFAB18AC19AD1A8B828C838DF01213A1
:100E3000BDFAA3AB82AC838B188C198D1ABA250727
:100E40008A821209EF80928A06BE3000402E8A06FE
:100E5000EE24C6402774FFB51513E51475F00AA4F7
:100E6000FEEA24D02EF51470BFD20580BBE51575BF
:100E7000F00AA4FEEA24D02EF51580ACBA2E0A742E
:100E8000FFB515A4751500809F8A06BE6100400E4F
:100E90008A06EE248540075302DFD2008002C2009A
:100EA000BA20028075BA2303020F29BA2A03020F5F
:100EB0002EBA2B02805FBA2D028055BA4202805FA3
:100EC000BA4303020F73BA44030210AEBA450302D9
:100ED00010C8BA46030210C4BA47030210CCBA497C
:100EE000030210AEBA4C02803BBA4E030210D0BAD5
:100EF0004F030210B5BA5003021047BA5303020F52
:100F000097BA55030210BABA58030210BF0210FA7A
:100F1000D204020E28D206020E28D207020E28D2D0
:100F200009020E28D20A020E28D20B020E2874FFE4
:100F3000B5152030090BE51B14F8881B8614020E2A
:100F400028E51B24FEF8881B8606088607188E14E1
:100F5000020E2830090BE51B14F8881B8615020EBB
:100F600028E51B24FEF8881B8606088607188E15C0
:100F7000020E2830090AE51B14F8881B8602800F30
:100F8000E51B24FEF8881B8603088604188B028A5A
:100F9000821209EF0210FFE51B24FDF8881B86036F
:100FA00008860408860518188B0C8C0D8D0E8B8214
:100FB0008C838DF0121511AB82AC838B1674FFB548
:100FC000150385161520041DC3E51695145016E566
:100FD00014C39516F514AB141514EB600875822034
:100FE0001209EF80F1850C82850D83850EF01213B6
:100FF000BDFBFA6029AB151515C3E464808BF06363
:10100000F08095F050188A821209EFAB0CAC0DAD50
:101010000E0BBB00010C8B0C8C0D8D0E80C72004B9
:10102000030210FFC3E516951440030210FFE514F8
:10103000C39516F514AB141514EB70030210FF756D
:1010400082201209EF80EEE51B24FDF8881B860341
:1010500008860408860518188B0C8C0D8D0EE50E7D
:10106000FB30E7047A438013EB546060047A5080CD
:101070000AEB30E6047A4980027A588A82C002126A
:1010800009EF75823A1209EF7582301209EF758205
:10109000781209EFD002BA4902800BBA50028006DA
:1010A000850D82120A22850C82120A228051D208F2
:1010B00075130A804A751308804575130A804075B8
:1010C0001310803BD2018037D2028033D203802FAD
:1010D000E51B24FDF8881B8603088604088605188E
:1010E000188B0C8C0D8D0E8B828C838DF0E511127C
:1010F00014F8A3E5121214F880058A821209EF2071
:101100000106200203300370E51B24FCF8881B86CF
:10111000030886040886050886061818188B0C8CA8
:101120000D8D0E8E0FE50CE50DE50EE50F8B828C17
:10113000838DF0EE1213D974FFB5150375150630C3
:101140000327747F550FFB8B10E510EB2BFB8B10E7
:10115000E50E30E70674014510F510E510246840EF
:1011600006749925104002D202300206120CEB02DE
:101170000DD9120A78020DD9E5137003020DD97B3F
:101180004A30092BE51B14F8881BE6FC3395E0FD7B
:10119000FEFF8C0C8D0D8E0E8F0F20085EAC0C7D2B
:1011A000007E007F008C0C8D0D8E0E8F0F804C30DA
:1011B0000A1FE51B24FCF8881B86040886050886A0
:1011C000060886071818188C0C8D0D8E0E8F0F8050
:1011D0002AE51B24FEF8881B860408860518ED33D3
:1011E00095E0FEFF8C0C8D0D8E0E8F0F20080CAC41
:1011F0000CAD0D7E007F008E0E8F0F300B43E50C83
:10120000450D450E450F60397408B5130C758230D5
:10121000C0031209EFD00380287410B51323758220
:1012200030C0031209EFD00330000C758278C00380
:101230001209EFD003800A758258C0031209EFD05B
:1012400003300825AC0CAD0DAE0EE50FFF30E717EF
:10125000C3E49CFCE49DFDE49EFEE49FFF8C0C8DAA
:101260000D8E0E8F0F8002C208751600D20C8B00F7
:10127000751000C000120A39D000200C0DE510C412
:10128000FCE6FD4CF61888038002A6100516B20C89
:10129000E50C450D450E450F70D68803E514700327
:1012A00075140120051A200417E51604FCC39514D3
:1012B000500E758220C0031209EFD003151480E987
:1012C00030080E75822DC0031209EFD0031514806B
:1012D00024E516602030060E75822BC0031209EF3C
:1012E000D0031514800F30070C758220C00312093B
:1012F000EFD003151420041EAC141514C3E5169C7E
:1013000050273005047C3080027C208C82C0031280
:1013100009EFD00380E2C3E51695145009E514C324
:101320009516F51480037514008B00AB161516EB9B
:101330006022B20C200C0A08E6C4540FFB8B10800C
:10134000078603740F5BF510851082C000120A092E
:10135000D00080D7200403020DD9AB141514EB7014
:1013600003020DD97582201209EF80EE8A821209DC
:10137000EF020DD985118285128322AA82BA0A084A
:1013800010990280FB75990D10990280FB8A9922B1
:10139000FCABF0AA83A982749EF582C2D1EC30E73F
:1013A00016D2D1E9F42401F9EAF43400FAEBF4346A
:1013B00000FBECF43400FC1209310208E220F714BF
:1013C00030F6148883A88220F507E6A88375830089
:1013D00022E280F7E49322E022C0E0F845824583D0
:1013E00045F07009F5F0FBFCFDFE0214A7E823A20E
:1013F000F792E0F8A982AA83D2F7ABF07C007E07CF
:10140000C3749798404074FF2EFE740A89F0A4F9C3
:1014100085F082740A8AF0A4FA85F083740A8BF04E
:10142000A4FB740529F9EA3582FAEB3583FB7400D5
:1014300035F0FCC3EC13FCEB13FBEA13FAE913F9E8
:1014400008EC70EF80BAE8C3947FF88B838EF0E4E9
:10145000FBFCFDFEFF08C3E933F9EA33FAE5833309
:10146000F583EB3BD4FBEC3CD4FCED3DD4FDEE3EF0
:10147000D4FEEF3FD4FF602D05F074052BD4FBE4C0
:101480003CD4FCE43DD4FDE43ED4FEE43FD4FF75FF
:101490008204C3EF13FFEE13FEED13FDEC13FCEB20
:1014A00013FBD582EDD8AF7845D0E020E704762B4A
:1014B0008002762D087906E7C4540F4430F608B947
:1014C0000603762E08E7540F4430F60819B902E7F0
:1014D000764508E5F020E704762B8004762DF404A9
:1014E0000875F00A844430F608E5F04430F608E464
:1014F000F690004575F0402220F71030F6118883F1
:10150000A88220F507F6A88375830022F280F7F001
:1015100022AA82AB83ACF07D007E008A828B838C12
:10152000F01213BDFFA3AA82AB83EF60070DBD00CD
:10153000EA0E80E78D828E8322000000000000000A
:00000001FF
