:10000000020003758147120122E582600302006F3E
:10001000780079007A007B007C007D00EC4D601C4C
:1000200088828983E493A3A882A9838A828B83F040
:10003000A3AA82AB831CBCFFE31D80E07582007520
:1000400083007C007D00EC4D600AE4F0A31CBCFF43
:10005000F51D80F27582007583007C007D00EC4DFB
:10006000600AE4F0A31CBCFFF51D80F21200F1123F
:1000700002AA80FE1B5B324A004144432074657330
:10008000742070726F6772616D0A46696C653A2000
:1000900025730A436F6D70696C65643A2025732C73
:1000A0002025730A0A00736F75726365636F646558
:1000B0002E63004D617220203620323032340032FF
:1000C000323A31303A303900543D25666D732C2078
:1000D00050686173653A2025662C2076315F4D614A
:1000E000783A25662C2076325F4D61783A25660D88
:1000F00000750A00750B00750C00750D00750E007B
:10010000750F0075100075110075120075130075DC
:10011000140075150075160075170075180075190F
:10012000002275A7007597DE7597AD75FF8075EF96
:100130000675A71075C12075A70075A90075A900DF
:10014000E5A930E7FB75A90375A903E5A930E7FB2D
:1001500043A41075E10175E20075E34075981075D0
:100160008DE6858D8B53890F438920D28ED2997568
:1001700082002275A700C2EF75B28075BC2075B9E8
:100180001E75E80075DF3F75B300D2EF22AA8243E7
:100190008E407592B87593FF85929485939575916D
:1001A000047B00C3EB9A500BE59130E7FB53917F42
:1001B0000B80F075910022AA82AB837C007D00C386
:1001C000EC9AED9B502B7E00BE0400501D7582FA08
:1001D000C002C003C004C005C00612018DD006D005
:1001E00005D004D003D0020E80DE0CBC00D10D80FF
:1001F000CE22AA828534F005F07401800225E0D574
:10020000F0FBFB75A720BA0002800ABA0102800F3A
:10021000BA021E8014EBF4FA52F1EB42D48012EBD6
:10022000F4FA52F2EB42D58008EBF4FA52F3EB42C7
:10023000CC75A700228582BBC2EDD2EC30EDFD85E6
:10024000BD8285BE83221202351206EEAA82AB83DE
:10025000ACF0FDC002C003C004C00590923A75F036
:1002600053744012072AAA82AB83ACF0FDE58124C7
:10027000FCF581E4C0E074FCC0E0747FC0E074462B
:10028000C0E08A828B838CF0ED12087FAA82AB8358
:10029000ACF0FDE58124FCF5818A828B838CF0ED46
:1002A000225389F0438901C28C221202A19001F4E9
:1002B0001201B77474C0E07400C0E07480C0E01232
:1002C000084615811581158174BFC0E07400C0E037
:1002D0007480C0E074B3C0E07400C0E07480C0E01B
:1002E00074A6C0E07400C0E07480C0E07479C0E01F
:1002F0007400C0E07480C0E0120846E58124F4F583
:10030000817534017582021201F275340275820220
:100310001201F2120173758A00758C00C28D750985
:10032000002086FD3086FDD28C308609108D02803B
:10033000F8050980F4208609108D0280F8050980EF
:10034000F4C28C8509821207CDAA82AB83ACF0FD82
:10035000C002C003C004C00590000075F08074475F
:1003600012072AAA82AB83ACF0FDE58124FCF5815B
:10037000858C82C002C003C004C0051207CDAE82C6
:10038000AF83A8F0F9C006C007C000C0019000000C
:1003900075F080744312072AAE82AF83A8F0F9E5A6
:1003A0008124FCF581D005D004D003D002C006C062
:1003B00007C000C0018A828B838CF0ED1207D8AA97
:1003C00082AB83ACF0FDE58124FCF581AE8A7F0031
:1003D0008E828F83C002C003C004C005120872AEB3
:1003E00082AF83A8F0F9D005D004D003D002C006B4
:1003F000C007C000C0018A828B838CF0ED1207D841
:10040000AA82AB83ACF0FDE58124FCF581C002C07B
:1004100003C004C00590F4FC75F032743412072A4E
:1004200085821A85831B85F01CF51DE58124FCF56A
:1004300081E4C0E0C0E07480C0E07440C0E0851A90
:1004400082851B83851CF0E51D12087FAE82AF8379
:10045000A8F0F9E58124FCF5813086222086FA8E09
:10046000828F8388F0E9C006C007C000C00112086F
:10047000671201B7D001D000D007D00680DE7582A8
:100480000E12024685820A85830B85F00CF50DE479
:10049000C0E0C0E07480C0E07440C0E0851A82858E
:1004A0001B83851CF0E51D12087FAE82AF83A8F088
:1004B000F9E58124FCF58130A22220A2FA8E828FF8
:1004C0008388F0E9C006C007C000C00112086712A7
:1004D00001B7D001D000D007D00680DE75820F12A0
:1004E000024685820E85830F85F010F511C28C754A
:1004F0000900758C00758A00C28D75820F12024644
:10050000AE82AF83A8F0F9E4C0E0C0E0C0E0C0E094
:100510008E828F8388F0E91206FAAE82E58124FC90
:10052000F581EE70D5D28C75820E120246AE82AF86
:1005300083A8F0F9E4C0E0C0E0C0E0C0E08E828FA4
:100540008388F0E91206FAAE82E58124FCF581EE9B
:100550006009108D0280D0050980CCC28C8509828B
:100560001207CDAE82AF83A8F0F9C006C007C00065
:10057000C00190000075F080744712072AAE82AF68
:1005800083A8F0F9E58124FCF581858C82C006C042
:1005900007C000C0011207CDAA82AB83ACF0FDC03A
:1005A00002C003C004C00590000075F080744312BF
:1005B000072AAA82AB83ACF0FDE58124FCF581D04B
:1005C00001D000D007D006C002C003C004C0058E11
:1005D000828F8388F0E91207D8AA82AB83ACF0FD42
:1005E000E58124FCF581AE8A7F008E828F83C00274
:1005F000C003C004C005120872AE82AF83A8F0F930
:10060000D005D004D003D002C006C007C000C0018E
:100610008A828B838CF0ED1207D8AA82AB83ACF070
:10062000FDE58124FCF581C002C003C004C0059033
:10063000F4FC75F032743412072AAA82AB83ACF052
:10064000FDE58124FCF581C002C003C004C0059013
:10065000000075F0B4744312072AAA82AB83ACF091
:10066000FDE58124FCF581C01AC01BC01CC01D8A99
:10067000828B838CF0ED12087FAA82AB83ACF0FDF5
:10068000E58124FCF581C002C003C004C005C01A86
:10069000C01BC01CC01D90000075F07A7444120786
:1006A0002AAE82AF83A8F0F9E58124FCF581D0055C
:1006B000D004D003D002C00EC00FC010C011C00AB9
:1006C000C00BC00CC00DC002C003C004C005C006F2
:1006D000C007C000C00174C8C0E07400C0E07480EE
:1006E000C0E0120846E58124EDF581020316E4AC72
:1006F00083AB82FAF9748E0209A7FFA88118181239
:1007000009CFD2D133E6400730E70B7582012220B2
:10071000E70675820022C2D11209B1E97003F582A1
:100720002230D101B3E433F58222120A7CBC0003EB
:10073000020A1BEF60FA30D502B2D1E583B4FF03A1
:10074000020A31E582B4FF03020A312583400724FF
:1007500082400B020A1B2483145003020A31F582E3
:10076000EA8DF0A4A8F0EA8EF0A428F8E435F0F9B8
:10077000EB8DF0A428E935F0F9E433CA8FF0A42911
:10078000F9EA35F0FAEBF88EF0A429F9EA35F0FA37
:10079000E433FBEC8DF0A429F9EA35F0FAE43BFBF5
:1007A000E88FF0A42AFAEB35F0FBE433CCFD8EF0B1
:1007B000A42AFAEB35F0FBE43CFCED8FF0A42BFB14
:1007C000EC35F0FC20E703120A490209FAE4AC8296
:1007D000FBFAF974860209A7120A7C7900E583B551
:1007E0008202800D5003120AAAE583C39582120A81
:1007F000C4E5D0C465D020E117EA2DFAEB3EFBEC4E
:100800003FFC50097401120AC4EC4480FC0209FA4E
:10081000C3EA9DFAEB9EFBEC9FFC500FC3E499F9F1
:10082000E49AFAE49BFBE49CFCB2D1120A49020967
:10083000FA02149385823085833185F032851E3328
:10084000900831020EE6C008858108E50824FBF512
:1008500033E50824FBF88630088631088632900894
:1008600031120EE6D008227F8E1214AAF58385F08D
:100870008222AC83AB827A007900748E0214D81283
:100880000A7C30D502B2D1BF0009BC0003020A3E87
:10089000020A31BC0003020A1BE583B4FF0BE582A8
:1008A000B4FF03020A3E020A1BE582B4FF03020AF8
:1008B00031C395835007247F400B020A1B24801408
:1008C0005003020A31C0E0E4CCCBCAF98D348E3536
:1008D0008F36EF54F0C4F5377583068537F0EB8417
:1008E000F582E9C4F9EAC4FAEBC4FBEC540FC4780E
:1008F00003D6FC18EBD6FB18EAD6FA8582F0EDA4F5
:10090000A8F0FD8582F0EEA428FEE435F0F885829B
:10091000F0EFA428FFE435F0F8E99DF9EA9EFAEB40
:100920009FFBEC98FCAD34AE35AF3630E710158246
:10093000E92DF9EA3EFAEB3FFBE43CFC80EDC08296
:10094000D58398C3E933F9EA33FAEB33FBEC33FC94
:10095000C3E99DEA9EEB9FEC9400B3E413F9D00247
:10096000D0E0C44AFAD003D0E0C44BFBD004D0E0BE
:10097000F5F0540FC44CFCD082158230F40FD3EC48
:1009800013FCEB13FBEA13FAE913F90582E930E7EC
:100990000A74012AFAE43BFBE43CFC020A12FCABB9
:1009A000F0AA83A982749EC2D1F582120A49020973
:1009B000FA7901AA82E68F82B5821318E6B5F00EA5
:1009C00018E6B5830918E68A82B58202790022B456
:1009D000800FE5F0700AE5837006E58270027F0003
:1009E000EFB6801518B6001018B6000B18B6000642
:1009F00008080876002208080822B98003EA13B321
:100A00004010EA2401FAE43BFBE43CFC50047C8007
:100A10000582BC000EBB000BBA0008E4F5F0F583BC
:100A2000F58222A2D1E582138CF092F78B838A8221
:100A300022E4F583F58275F080F4A2D11322E4F567
:100A400083F58275F0C0747F227804EC7011E58222
:100A500024F8500AF582E4C9CACBFCD8EF22EC781E
:100A600020058220E713D5820122C3E933F9EA3356
:100A7000FAEB33FBEC33FCD8EA158222AA82AB8373
:100A8000A2F73392D16002D2F7F582ACF0E581246F
:100A9000F9F8E6FD08E6FE0886F008E6A2F73392CC
:100AA000D56002D2F7F583AFF022E582C583F582E7
:100AB000A2D133A2D592D11392D5ECCFFCEBCEFBD1
:100AC000EACDFA226040F82582500274FFF582E8F0
:100AD00024F8501ECCCBCAF9E4CC24F85014CBCA6D
:100AE000F9E4CB24F8500BCAF9E4CA24F85003798E
:100AF000002224086010F8C3EC13FCEB13FBEA138C
:100B0000FAE913F9D8F122AA827418C0E0740BC074
:100B1000E0C022C0238A82220529E4B52902052AE1
:100B200022AA8274302AFA24C6500A74072AFA309C
:100B300000034302208A82020B07E582FAC4540FA5
:100B4000F582C002120B21D002740F5AF582020BFB
:100B500021AA24AB25AC26AD27AE28752F20EE2E7A
:100B6000FEED235401FF4206EA2AFAEB33FBEC3395
:100B7000FCED33FDC3EE952B4008EEC3952BFE43F1
:100B80000201D52FD98A248B258C268D278E2822E9
:100B90007844E624D075F00AA4FA7845E624D02AF1
:100BA000FA78438603BB2D04C3E49AFA752B01C37C
:100BB000E464808AF063F08095F05029752F038AF1
:100BC0000374F6252F401C052BE52F142438F8E577
:100BD0002F2438F98704A604772E1BEBFA6004054E
:100BE0002F80DE8B02EA30E70D78398603783AA64B
:100BF000037839762E0AE52D600AE52D04FB252BB6
:100C0000F52B8005300B02052B78388603E4BB2DCD
:100C10000104FB7006200603300702052B30040395
:100C2000020CD7300557EB600C75822DC002120BF9
:100C300007D002801C30060C75822BC002120B07F5
:100C4000D002800D30070A758220C002120B07D037
:100C50000278398604BC2E0C758230C002120B0754
:100C6000D002152CAC2C152CC3E52B9C4003020D97
:100C70001B758230C002120B07D00280E7AC2C1526
:100C80002CC3E52B9C500C758220C002120B07D0A0
:100C90000280EA78388604BC2D0C75822DC00212C1
:100CA0000B07D002801C30060C75822BC002120B81
:100CB00007D002800D30070A758220C002120B0790
:100CC000D00278398604BC2E52758230C002120BD5
:100CD00007D002152C8044EB600E75822DC00212E5
:100CE0000B07D002152C802030060E75822BC00217
:100CF000120B07D002152C800F30070C758220C014
:100D000002120B07D002152C78398603BB2E0C7506
:100D10008230C002120B07D002152C752F01C20DB4
:100D2000E52F2438F88603BB4503020DD8BB2E34CB
:100D30008A03C3E464808BF063F08095F0500F75F4
:100D40008230C003120B07D0031B8B0280E48B029E
:100D5000D20DE52D7038200B03020DD875822E12AE
:100D60000B078074300D278A03EB30E71FC3E46460
:100D700080852DF063F08095F0500C758230C003B3
:100D8000120B07D003152D0B8B0280DD8B02300D6B
:100D90000EC3E46480852DF063F08095F05021E56A
:100DA0002F2438F886038B82C002120B07D0023042
:100DB0000D0EE52F2438F88603BB2E028002152D78
:100DC000152CC3E46480852DF063F08095F040031A
:100DD000200D05052F020D20C3E46480852DF063EE
:100DE000F08095F0500A758230120B07152D80E8BF
:100DF00030040FAA2C152CEA6008758220120B070C
:100E000080F122E52D7003300B0D7407252DFAE5D6
:100E10002CC39AF52C8006E52C24FAF52C752F00AE
:100E200078388602BA2B0F20060C783876202007F7
:100E300005752F01052C200419AA2CC3E464808AAF
:100E4000F063F08095F0500A758220120B07152C84
:100E500080E7C20DE52F2438F88602BA00028069C7
:100E6000BA451F3000027665C3E46480852DF063C7
:100E7000F08095F0500A758230120B07152D80E82E
:100E8000D20DC3E52F9402E433FA7014EA700EC356
:100E9000E46480852DF063F08095F04003300D16FA
:100EA000E52F2438F886028A82120B07E52F24FDED
:100EB0005012152D800E7402B52F09300B06758265
:100EC0002E120B07052F020E54300419AA2CC3E46E
:100ED00064808AF063F08095F0500A758220120BCE
:100EE00007152C80E722858222858323E4F529F5E6
:100EF0002AAA30AB31AC328A828B838CF01214FC7C
:100F0000FD74012AF530E43BF5318C32EDFA7003C3
:100F100002148CBA25028003021484C204C205C2E2
:100F200006C207C208C209C20AC20BC201C202C27B
:100F300003752B00752C00752DFFAB30AC31AD3235
:100F40008B828C838DF01214FCFAA3AB82AC838B62
:100F5000308C318D32BA25078A82120B0780928A33
:100F600006BE3000402E8A06EE24C6402774FFB528
:100F70002D13E52C75F00AA4FEEA24D02EF52C7072
:100F8000BFD20580BBE52D75F00AA4FEEA24D02E61
:100F9000F52D80ACBA2E0A74FFB52DA4752D0080F6
:100FA0009F8A06BE6100400E8A06EE2485400753E4
:100FB00002DFD2008002C200BA20028075BA230389
:100FC000021041BA2A03021046BA2B02805FBA2DE2
:100FD000028055BA4202805FBA430302108BBA44C2
:100FE000030211C6BA45030211E0BA46030211DC3E
:100FF000BA47030211E4BA49030211C6BA4C02808F
:101000003BBA4E030211E8BA4F030211CDBA5003A6
:1010100002115FBA53030210AFBA55030211D2BADC
:1010200058030211D7021212D204020F40D2060254
:101030000F40D207020F40D209020F40D20A020F1E
:1010400040D20B020F4074FFB52D2030090BE53361
:1010500014F88833862C020F40E53324FEF88833D9
:101060008606088607188E2C020F4030090BE533E0
:1010700014F88833862D020F40E53324FEF88833B8
:101080008606088607188E2D020F4030090AE533C0
:1010900014F888338602800FE53324FEF8883386FF
:1010A00003088604188B028A82120B07021217E5C6
:1010B0003324FDF88833860308860408860518184B
:1010C0008B248C258D268B828C838DF0121650AB51
:1010D00082AC838B2E74FFB52D03852E2D20041D2D
:1010E000C3E52E952C5016E52CC3952EF52CAB2C74
:1010F000152CEB6008758220120B0780F185248285
:101100008525838526F01214FCFBFA6029AB2D158A
:101110002DC3E464808BF063F08095F050188A82D0
:10112000120B07AB24AC25AD260BBB00010C8B24A6
:101130008C258D2680C7200403021217C3E52E9547
:101140002C4003021217E52CC3952EF52CAB2C1561
:101150002CEB7003021217758220120B0780EEE54C
:101160003324FDF88833860308860408860518189A
:101170008B248C258D26E526FB30E7047A438013EB
:10118000EB546060047A50800AEB30E6047A4980C0
:10119000027A588A82C002120B0775823A120B0734
:1011A000758230120B07758278120B07D002BA498C
:1011B00002800BBA50028006852582120B3A8524E4
:1011C00082120B3A8051D208752B0A804A752B087F
:1011D0008045752B0A8040752B10803BD2018037EB
:1011E000D2028033D203802FE53324FDF888338682
:1011F0000308860408860518188B248C258D268BF9
:10120000828C838DF0E529121637A3E52A12163752
:1012100080058A82120B072001062002033003702A
:10122000E53324FCF888338603088604088605081D
:1012300086061818188B248C258D268E27E524E524
:1012400025E526E5278B828C838DF0EE1215187428
:10125000FFB52D03752D06300327747F5527FB8BB3
:1012600028E528EB2BFB8B28E52630E706740145A3
:1012700028F528E52824684006749925284002D2DC
:1012800002300206120E03020EF1120B90020EF152
:10129000E52B7003020EF17B3D30092BE53314F88A
:1012A0008833E6FC3395E0FDFEFF8C248D258E26E9
:1012B0008F2720085EAC247D007E007F008C248D6B
:1012C000258E268F27804C300A1FE53324FCF888B2
:1012D0003386040886050886060886071818188CC1
:1012E000248D258E268F27802AE53324FEF8883327
:1012F000860408860518ED3395E0FEFF8C248D25C5
:101300008E268F2720080CAC24AD257E007F008E12
:10131000268F27300B43E524452545264527603990
:101320007408B52B0C758230C003120B07D00380F4
:10133000287410B52B23758230C003120B07D0031D
:1013400030000C758278C003120B07D003800A7539
:101350008258C003120B07D003300825AC24AD25FA
:10136000AE26E527FF30E717C3E49CFCE49DFDE4CF
:101370009EFEE49FFF8C248D258E268F278002C23F
:1013800008752E00D20C8B00752800C000120B517E
:10139000D000200C0DE528C4FCE6FD4CF6188803AF
:1013A0008002A628052EB20CE524452545264527B2
:1013B00070D68803E52C7003752C0120051A2004D3
:1013C00017E52E04FCC3952C500E758220C0031225
:1013D0000B07D003152C80E930080E75822DC00351
:1013E000120B07D003152C8024E52E602030060E4A
:1013F00075822BC003120B07D003152C800F30070A
:101400000C758220C003120B07D003152C20041E7C
:10141000AC2C152CC3E52E9C50273005047C308065
:10142000027C208C82C003120B07D00380E2C3E54C
:101430002E952C5009E52CC3952EF52C8003752C88
:10144000008B00AB2E152EEB6022B20C200C0A088C
:10145000E6C4540FFB8B2880078603740F5BF528C6
:10146000852882C000120B21D00080D720040302FF
:101470000EF1AB2C152CEB7003020EF175822012CD
:101480000B0780EE8A82120B07020EF185298285F6
:101490002A8322AA82BA0A0810990280FB75990D44
:1014A00010990280FB8A99227F9E12167830D10310
:1014B000020A1BC3EF9582500974FFF5F0F583F51E
:1014C00082227900120AC489828A838BF0EC22FC82
:1014D000ABF0AA83A982749EF582C2D1EC30E716E4
:1014E000D2D1E9F42401F9EAF43400FAEBF434003F
:1014F000FBECF43400FC120A490209FA20F714301C
:10150000F6148883A88220F507E6A8837583002255
:10151000E280F7E49322E022C0E0F845824583456B
:10152000F07009F5F0FBFCFDFE0215E6E823A2F7DA
:1015300092E0F8A982AA83D2F7ABF07C007E07C3C1
:10154000749798404074FF2EFE740A89F0A4F985C0
:10155000F082740A8AF0A4FA85F083740A8BF0A4EE
:10156000FB740529F9EA3582FAEB3583FB74003503
:10157000F0FCC3EC13FCEB13FBEA13FAE913F908D4
:10158000EC70EF80BAE8C3947FF88B838EF0E4FBB5
:10159000FCFDFEFF08C3E933F9EA33FAE58333F5CE
:1015A00083EB3BD4FBEC3CD4FCED3DD4FDEE3ED4D0
:1015B000FEEF3FD4FF602D05F074052BD4FBE43C17
:1015C000D4FCE43DD4FDE43ED4FEE43FD4FF758278
:1015D00004C3EF13FFEE13FEED13FDEC13FCEB134E
:1015E000FBD582EDD8AF7838D0E020E704762B80A9
:1015F00002762D087906E7C4540F4430F608B90680
:1016000003762E08E7540F4430F60819B902E7763E
:101610004508E5F020E704762B8004762DF40408D5
:1016200075F00A844430F608E5F04430F608E4F634
:1016300090003875F0402220F71030F6118883A80A
:101640008220F507F6A88375830022F280F7F02246
:10165000AA82AB83ACF07D007E008A828B838CF003
:101660001214FCFFA3AA82AB83EF60070DBD00EA52
:101670000E80E78D828E8322AA82AB83A2F73392FB
:10168000D16002D2F7F582ACF02200000000000029
:00000001FF
