:1000000002000375814E12012BE582600302006F2E
:10001000780079007A007B007C007D00EC4D601C4C
:1000200088828983E493A3A882A9838A828B83F040
:10003000A3AA82AB831CBCFFE31D80E07582007520
:1000400083007C007D00EC4D600AE4F0A31CBCFF43
:10005000F51D80F27582007583007C007D00EC4DFB
:10006000600AE4F0A31CBCFFF51D80F21200FA1236
:1000700002B880FE1B5B324A004144432074657322
:10008000742070726F6772616D0A46696C653A2000
:1000900025730A436F6D70696C65643A2025732C73
:1000A0002025730A0A00736F75726365636F646558
:1000B0002E63004D61722020362032303234003001
:1000C000333A30333A313500256C660A004D617899
:1000D00020416D70204070322E313D25372E35661F
:1000E000562C204D617820416D70204070322E32A8
:1000F0003D25372E3566562C0D00752B00752C00CE
:10010000752D00752E00752F007530007531007546
:10011000320075330075340075350075360075375B
:1001200000753800753900753A002275A70075977B
:10013000DE7597AD75FF8075EF0675A71075C12048
:1001400075A70075A90075A900E5A930E7FB75A999
:100150000375A903E5A930E7FB43A41075E1017518
:10016000E20075E340759810758DE6858D8B538997
:100170000F438920D28ED2997582002275A700C2C2
:10018000EF75B28075BC2075B91E75E80075DF3F4C
:1001900075B300D2EF22AA82438E407592B8759350
:1001A000FF8592948593957591047B00C3EB9A50DB
:1001B0000BE59130E7FB53917F0B80F075910022A6
:1001C000AA82AB83BA0004BB0001227582F9C00287
:1001D000C0031201967582F91201967582F9120117
:1001E000967582FA120196D003D0021ABAFF011B4B
:1001F00080D2AA82851CF005F07401800225E0D52A
:10020000F0FBFB75A720BA0002800ABA0102800F3A
:10021000BA021E8014EBF4FA52F1EB42D48012EBD6
:10022000F4FA52F2EB42D58008EBF4FA52F3EB42C7
:10023000CC75A700228582BBC2EDD2EC30EDFD85E6
:10024000BD8285BE8322C2EDD2EC30EDFD85BD823C
:1002500085BE8322120235120353AA82AB83ACF00F
:10026000FDC002C003C004C00590923A75F05374FB
:100270004012035FAA82AB83ACF0FDE58124FCF55C
:1002800081E4C0E074FCC0E0747FC0E07446C0E06C
:100290008A828B838CF0ED120438AA82AB83ACF097
:1002A000FDE58124FCF5818A828B838CF0ED22535D
:1002B00089F0438901C28C221202AF9001F412012D
:1002C000C07474C0E07400C0E07480C0E012041711
:1002D00015811581158174BFC0E07400C0E0748081
:1002E000C0E074B3C0E07400C0E07480C0E074A6E5
:1002F000C0E07400C0E07480C0E07479C0E07400B5
:10030000C0E07480C0E0120417E58124F4F5817523
:100310001C017582021201F2751C02758202120123
:10032000F212017CA2A1E433F582120254AA82AB3C
:1003300083ACF0FDC002C003C004C00574C8C0E0B7
:100340007400C0E07480C0E0120417E58124F9F560
:100350008180D1E4AC83AB82FAF9748E020560121D
:1003600005ECBC000302058BEF60FA30D502B2D178
:10037000E583B4FF030205A1E582B4FF030205A1F2
:10038000258340072482400B02058B2483145003ED
:100390000205A1F582EA8DF0A4A8F0EA8EF0A42867
:1003A000F8E435F0F9EB8DF0A428E935F0F9E43301
:1003B000CA8FF0A429F9EA35F0FAEBF88EF0A429F7
:1003C000F9EA35F0FAE433FBEC8DF0A429F9EA35CB
:1003D000F0FAE43BFBE88FF0A42AFAEB35F0FBE4FB
:1003E00033CCFD8EF0A42AFAEB35F0FBE43CFCEDB7
:1003F0008FF0A42BFBEC35F0FC20E7031205B902CB
:10040000056A020FA685821885831985F01A850969
:100410001B9004020209F9C008858108E50824FB45
:10042000F51BE50824FBF8861808861908861A903B
:1004300004021209F9D008221205EC30D502B2D11B
:10044000BF0009BC00030205AE0205A1BC00030207
:10045000058BE583B4FF0BE582B4FF030205AE0212
:10046000058BE582B4FF030205A1C39583500724E1
:100470007F400B02058B24801450030205A1C0E0CD
:10048000E4CCCBCAF98D1C8E1D8F1EEF54F0C4F541
:100490001F758306851FF0EB84F582E9C4F9EAC471
:1004A000FAEBC4FBEC540FC47803D6FC18EBD6FB74
:1004B00018EAD6FA8582F0EDA4A8F0FD8582F0EE68
:1004C000A428FEE435F0F88582F0EFA428FFE43597
:1004D000F0F8E99DF9EA9EFAEB9FFBEC98FCAD1C65
:1004E000AE1DAF1E30E7101582E92DF9EA3EFAEB9A
:1004F0003FFBE43CFC80EDC082D58398C3E933F92F
:10050000EA33FAEB33FBEC33FCC3E99DEA9EEB9F45
:10051000EC9400B3E413F9D002D0E0C44AFAD0035B
:10052000D0E0C44BFBD004D0E0F5F0540FC44CFC39
:10053000D082158230F40FD3EC13FCEB13FBEA13DB
:10054000FAE913F90582E930E70A74012AFAE43B73
:10055000FBE43CFC020582FCABF0AA83A982749EFA
:10056000C2D1F5821205B902056AB98003EA13B354
:100570004010EA2401FAE43BFBE43CFC50047C809C
:100580000582BC000EBB000BBA0008E4F5F0F58351
:10059000F58222A2D1E582138CF092F78B838A82B6
:1005A00022E4F583F58275F080F4A2D11322E4F5FC
:1005B00083F58275F0C0747F227804EC7011E582B7
:1005C00024F8500AF582E4C9CACBFCD8EF22EC78B3
:1005D00020058220E713D5820122C3E933F9EA33EB
:1005E000FAEB33FBEC33FCD8EA158222AA82AB8308
:1005F000A2F73392D16002D2F7F582ACF0E5812404
:10060000F9F8E6FD08E6FE0886F008E6A2F7339260
:10061000D56002D2F7F583AFF022AA82742BC0E036
:100620007406C0E0C00AC00B8A82220511E4B5112D
:1006300002051222AA8274302AFA24C6500A7407CC
:100640002AFA3000034302208A8202061AE582FA5F
:10065000C4540FF582C002120634D002740F5AF54A
:1006600082020634AA0CAB0DAC0EAD0FAE1075179E
:1006700020EE2EFEED235401FF4206EA2AFAEB3368
:10068000FBEC33FCED33FDC3EE95134008EEC39550
:1006900013FE430201D517D98A0C8B0D8C0E8D0FDA
:1006A0008E1022784BE624D075F00AA4FA784CE636
:1006B00024D02AFA784A8603BB2D04C3E49AFA753B
:1006C0001301C3E464808AF063F08095F0502975CB
:1006D00017038A0374F62517401C0513E517142425
:1006E0003FF8E517243FF98704A604772E1BEBFAA1
:1006F0006004051780DE8B02EA30E70D7840860340
:100700007841A6037840762E0AE515600AE51504BF
:10071000FB2513F5138005300B020513783F860384
:10072000E4BB2D0104FB700620060330070205130D
:100730003004030207EA300557EB600C75822DC0C8
:100740000212061AD002801C30060C75822BC002E1
:1007500012061AD002800D30070A758220C00212DC
:10076000061AD00278408604BC2E0C758230C00276
:1007700012061AD0021514AC141514C3E5139C40CC
:100780000302082E758230C00212061AD00280E7DA
:10079000AC141514C3E5139C500C758220C00212D2
:1007A000061AD00280EA783F8604BC2D0C75822D93
:1007B000C00212061AD002801C30060C75822BC0B3
:1007C0000212061AD002800D30070A758220C0027C
:1007D00012061AD00278408604BC2E52758230C0B0
:1007E0000212061AD00215148044EB600E75822D99
:1007F000C00212061AD0021514802030060E75822F
:100800002BC00212061AD0021514800F30070C7587
:100810008220C00212061AD002151478408603BB4B
:100820002E0C758230C00212061AD00215147517EC
:1008300001C20DE517243FF88603BB45030208EB10
:10084000BB2E348A03C3E464808BF063F08095F0A0
:10085000500F758230C00312061AD0031B8B028022
:10086000E48B02D20DE5157038200B030208EB75FE
:10087000822E12061A8074300D278A03EB30E71F90
:10088000C3E464808515F063F08095F0500C7582A8
:1008900030C00312061AD00315150B8B0280DD8BB6
:1008A00002300D0EC3E464808515F063F08095F08E
:1008B0005021E517243FF886038B82C00212061AE6
:1008C000D002300D0EE517243FF88603BB2E0280C0
:1008D0000215151514C3E464808515F063F0809546
:1008E000F04003200D050517020833C3E46480853A
:1008F00015F063F08095F0500A75823012061A15D3
:100900001580E830040FAA141514EA6008758220D7
:1009100012061A80F122E5157003300B0D740725BD
:1009200015FAE514C39AF5148006E51424FAF514B3
:10093000751700783F8602BA2B0F20060C783F7699
:10094000202007057517010514200419AA14C3E413
:1009500064808AF063F08095F0500A758220120658
:100960001A151480E7C20DE517243FF88602BA0075
:10097000028069BA451F3000027665C3E464808551
:1009800015F063F08095F0500A75823012061A1542
:100990001580E8D20DC3E5179402E433FA7014EA27
:1009A000700EC3E464808515F063F08095F0400319
:1009B000300D16E517243FF886028A8212061AE5E2
:1009C0001724FD50121515800E7402B51709300B4F
:1009D0000675822E12061A0517020967300419AA35
:1009E00014C3E464808AF063F08095F0500A758245
:1009F0002012061A151480E72285820A85830BE4EB
:100A0000F511F512AA18AB19AC1A8A828B838CF0F7
:100A1000120FBBFD74012AF518E43BF5198C1AED91
:100A2000FA7003020F9FBA25028003020F97C204D7
:100A3000C205C206C207C208C209C20AC20BC2016D
:100A4000C202C2037513007514007515FFAB18AC14
:100A500019AD1A8B828C838DF0120FBBFAA3AB8277
:100A6000AC838B188C198D1ABA25078A8212061A44
:100A700080928A06BE3000402E8A06EE24C64027A9
:100A800074FFB51513E51475F00AA4FEEA24D02E00
:100A9000F51470BFD20580BBE51575F00AA4FEEA17
:100AA00024D02EF51580ACBA2E0A74FFB515A475A6
:100AB0001500809F8A06BE6100400E8A06EE2485DE
:100AC00040075302DFD2008002C200BA20028075C4
:100AD000BA2303020B54BA2A03020B59BA2B028021
:100AE0005FBA2D028055BA4202805FBA4303020BFF
:100AF0009EBA4403020CD9BA4503020CF3BA46036A
:100B0000020CEFBA4703020CF7BA4903020CD9BA38
:100B10004C02803BBA4E03020CFBBA4F03020CE0BE
:100B2000BA5003020C72BA5303020BC2BA55030245
:100B30000CE5BA5803020CEA020D25D204020A534E
:100B4000D206020A53D207020A53D209020A53D22A
:100B50000A020A53D20B020A5374FFB5152030095A
:100B60000BE51B14F8881B8614020A53E51B24FEB0
:100B7000F8881B8606088607188E14020A53300967
:100B80000BE51B14F8881B8615020A53E51B24FE8F
:100B9000F8881B8606088607188E15020A53300946
:100BA0000AE51B14F8881B8602800FE51B24FEF85B
:100BB000881B8603088604188B028A8212061A0292
:100BC0000D2AE51B24FDF8881B8603088604088689
:100BD0000518188B0C8C0D8D0E8B828C838DF0126A
:100BE000110FAB82AC838B1674FFB51503851615F8
:100BF00020041DC3E51695145016E514C39516F58B
:100C000014AB141514EB600875822012061A80F1DB
:100C1000850C82850D83850EF0120FBBFBFA6029CF
:100C2000AB151515C3E464808BF063F08095F0502C
:100C3000188A8212061AAB0CAC0DAD0E0BBB00016C
:100C40000C8B0C8C0D8D0E80C7200403020D2AC363
:100C5000E51695144003020D2AE514C39516F51404
:100C6000AB141514EB7003020D2A75822012061ABC
:100C700080EEE51B24FDF8881B86030886040886A1
:100C80000518188B0C8C0D8D0EE50EFB30E7047AE1
:100C9000438013EB546060047A50800AEB30E60422
:100CA0007A4980027A588A82C00212061A75823AFC
:100CB00012061A75823012061A75827812061AD038
:100CC00002BA4902800BBA50028006850D821206D4
:100CD0004D850C8212064D8051D20875130A804A48
:100CE000751308804575130A8040751310803BD238
:100CF000018037D2028033D203802FE51B24FDF818
:100D0000881B860308860408860518188B0C8C0D32
:100D10008D0E8B828C838DF0E5111210F6A3E512F7
:100D20001210F680058A8212061A2001062002039C
:100D3000300370E51B24FCF8881B86030886040832
:100D400086050886061818188B0C8C0D8D0E8E0FD4
:100D5000E50CE50DE50EE50F8B828C838DF0EE1230
:100D60000FD774FFB51503751506300327747F552B
:100D70000FFB8B10E510EB2BFB8B10E50E30E7061D
:100D800074014510F510E51024684006749925108B
:100D90004002D202300206120916020A041206A309
:100DA000020A04E5137003020A047B4430092BE5B0
:100DB0001B14F8881BE6FC3395E0FDFEFF8C0C8DC0
:100DC0000D8E0E8F0F20085EAC0C7D007E007F0024
:100DD0008C0C8D0D8E0E8F0F804C300A1FE51B245E
:100DE000FCF8881B8604088605088606088607180E
:100DF00018188C0C8D0D8E0E8F0F802AE51B24FE8B
:100E0000F8881B860408860518ED3395E0FEFF8CF4
:100E10000C8D0D8E0E8F0F20080CAC0CAD0D7E00CE
:100E20007F008E0E8F0F300B43E50C450D450E45B0
:100E30000F60397408B5130C758230C00312061A9E
:100E4000D00380287410B51323758230C0031206B6
:100E50001AD00330000C758278C00312061AD00332
:100E6000800A758258C00312061AD003300825ACD8
:100E70000CAD0DAE0EE50FFF30E717C3E49CFCE4AC
:100E80009DFDE49EFEE49FFF8C0C8D0D8E0E8F0F5A
:100E90008002C208751600D20C8B00751000C000CD
:100EA000120664D000200C0DE510C4FCE6FD4CF6E3
:100EB0001888038002A6100516B20CE50C450D45F6
:100EC0000E450F70D68803E51470037514012005D4
:100ED0001A200417E51604FCC39514500E758220E1
:100EE000C00312061AD003151480E930080E75826B
:100EF0002DC00312061AD00315148024E5166020B5
:100F000030060E75822BC00312061AD0031514800A
:100F10000F30070C758220C00312061AD003151477
:100F200020041EAC141514C3E5169C50273005048C
:100F30007C3080027C208C82C00312061AD0038091
:100F4000E2C3E51695145009E514C39516F514800F
:100F5000037514008B00AB161516EB6022B20C2043
:100F60000C0A08E6C4540FFB8B1080078603740F2D
:100F70005BF510851082C000120634D00080D720A7
:100F80000403020A04AB141514EB7003020A04757F
:100F9000822012061A80EE8A8212061A020A04853C
:100FA000118285128322AA82BA0A0810990280FB54
:100FB00075990D10990280FB8A992220F71430F65A
:100FC000148883A88220F507E6A88375830022E2AF
:100FD00080F7E49322E022C0E0F84582458345F0A3
:100FE0007009F5F0FBFCFDFE0210A5E823A2F792C4
:100FF000E0F8A982AA83D2F7ABF07C007E07C37425
:101000009798404074FF2EFE740A89F0A4F985F089
:1010100082740A8AF0A4FA85F083740A8BF0A4FB28
:10102000740529F9EA3582FAEB3583FB740035F053
:10103000FCC3EC13FCEB13FBEA13FAE913F908EC1D
:1010400070EF80BAE8C3947FF88B838EF0E4FBFCEA
:10105000FDFEFF08C3E933F9EA33FAE58333F5838C
:10106000EB3BD4FBEC3CD4FCED3DD4FDEE3ED4FE9A
:10107000EF3FD4FF602D05F074052BD4FBE43CD486
:10108000FCE43DD4FDE43ED4FEE43FD4FF7582048D
:10109000C3EF13FFEE13FEED13FDEC13FCEB13FB9C
:1010A000D582EDD8AF783FD0E020E704762B8002E0
:1010B000762D087906E7C4540F4430F608B90603C4
:1010C000762E08E7540F4430F60819B902E7764542
:1010D00008E5F020E704762B8004762DF4040875EB
:1010E000F00A844430F608E5F04430F608E4F6905F
:1010F000003F75F0402220F71030F6118883A88257
:1011000020F507F6A88375830022F280F7F022AA63
:1011100082AB83ACF07D007E008A828B838CF012E0
:101120000FBBFFA3AA82AB83EF60070DBD00EA0EE1
:1011300080E78D828E832200000000000000000006
:00000001FF
