:1000000002000375814A120135E582600302006F28
:10001000780079007A007B007C007D00EC4D601C4C
:1000200088828983E493A3A882A9838A828B83F040
:10003000A3AA82AB831CBCFFE31D80E07582007520
:1000400083007C007D00EC4D600AE4F0A31CBCFF43
:10005000F51D80F27582007583007C007D00EC4DFB
:10006000600AE4F0A31CBCFFF51D80F2120104122B
:1000700002BD80FE1B5B324A00414443207465731D
:10008000742070726F6772616D0A46696C653A2000
:1000900025730A436F6D70696C65643A2025732C73
:1000A0002025730A0A00736F75726365636F646558
:1000B0002E63004D61722020362032303234003100
:1000C000333A34393A343700506572696F643A20F4
:1000D000543D25666D732C2054696D6520646966F6
:1000E000666572656E63653A2025352E35666D73DB
:1000F0002C2050686173652073686966743A202506
:1001000066200A00752300752400752500752600F9
:10011000752700752800752900752A00752B007554
:100120002C00752D00752E00752F0075300075316F
:10013000007532002275A7007597DE7597AD75FFC3
:100140008075EF0675A71075C12075A70075A90009
:1001500075A900E5A930E7FB75A90375A903E5A911
:1001600030E7FB43A41075E10175E20075E34075CB
:100170009810758DE6858D8B53890F438920D28E1B
:10018000D2997582002275A700C2EF75B28075BC46
:100190002075B91E75E80075DF3F75B300D2EF22F8
:1001A000AA82438E407592B87593FF859294859389
:1001B000957591047B00C3EB9A500BE59130E7FBFA
:1001C00053917F0B80F075910022AA82AB837C0053
:1001D0007D00C3EC9AED9B502B7E00BE0400501DA9
:1001E0007582FAC002C003C004C005C0061201A097
:1001F000D006D005D004D003D0020E80DE0CBC00A7
:10020000D10D80CE22AA82851CF005F074018002F7
:1002100025E0D5F0FBFB75A720BA0002800ABA01E1
:1002200002800FBA021E8014EBF4FA52F1EB42D4B2
:100230008012EBF4FA52F2EB42D58008EBF4FA525A
:10024000F3EB42CC75A700228582BBC2EDD2EC3025
:10025000EDFD85BD8285BE83221202481206D1AA19
:1002600082AB83ACF0FDC002C003C004C005909215
:100270003A75F05374401206DDAA82AB83ACF0FDF0
:10028000E58124FCF581E4C0E074FCC0E0747FC02B
:10029000E07446C0E08A828B838CF0ED120832AAAB
:1002A00082AB83ACF0FDE58124FCF5818A828B83EF
:1002B0008CF0ED225389F0438901C28C221202B4E2
:1002C0009001F41201CA7474C0E07400C0E074803C
:1002D000C0E01207F915811581158174BFC0E07463
:1002E00000C0E07480C0E074B3C0E07400C0E0748B
:1002F00080C0E074A6C0E07400C0E07480C0E07408
:1003000079C0E07400C0E07480C0E01207F9E581B4
:1003100024F4F581751C01758202120205751C0218
:10032000758202120205120186758A00758C00C260
:100330008D7522002086FD3086FDD28C3086091016
:100340008D0280F8052280F4208609108D0280F845
:10035000052280F4C28C852282120780AA82AB8398
:10036000ACF0FDC002C003C004C00590000075F0F1
:100370008074471206DDAA82AB83ACF0FDE58124D0
:10038000FCF581858C82C002C003C004C005120741
:1003900080AE82AF83A8F0F9C006C007C000C001DC
:1003A00090000075F08074431206DDAE82AF83A822
:1003B000F0F9E58124FCF581D005D004D003D0020A
:1003C000C006C007C000C0018A828B838CF0ED128A
:1003D000078BAA82AB83ACF0FDE58124FCF581AEEE
:1003E0008A7F008E828F83C002C003C004C00512C2
:1003F0000825AE82AF83A8F0F9D005D004D003D091
:1004000002C006C007C000C0018A828B838CF0ED59
:1004100012078BAA82AB83ACF0FDE58124FCF58149
:10042000C002C003C004C00590F4FC75F0327434FF
:100430001206DD85823385833485F035F536E58116
:1004400024FCF581E4C0E0C0E07480C0E07440C0EA
:10045000E08533828534838535F0E536120832AE87
:1004600082AF83A8F0F9E58124FCF5813086222053
:1004700086FA8E828F8388F0E9C006C007C000C06C
:100480000112081A1201CAD001D000D007D006808C
:10049000DE75820E12025985822385832485F0251C
:1004A000F526E4C0E0C0E07480C0E07440C0E085A0
:1004B00033828534838535F0E536120832AE82AF5B
:1004C00083A8F0F9E58124FCF58130A22220A2FA6C
:1004D0008E828F8388F0E9C006C007C000C0011279
:1004E000081A1201CAD001D000D007D00680DE75EC
:1004F000820F12025985822785832885F029F52AE3
:10050000C28C752200758C00758A00C28D2086FD14
:10051000D28CD2B2308109108D0280F8052280F48D
:10052000C28CC2B2852282120780AE82AF83A8F04D
:10053000F9C006C007C000C00190000075F08074CB
:10054000471206DDAE82AF83A8F0F9E58124FCF501
:1005500081858C82C006C007C000C001120780AA36
:1005600082AB83ACF0FDC002C003C004C0059000A4
:100570000075F08074431206DDAA82AB83ACF0FDF7
:10058000E58124FCF581D001D000D007D006C0025F
:10059000C003C004C0058E828F8388F0E912078BE8
:1005A000AA82AB83ACF0FDE58124FCF581AE8A7FA5
:1005B000008E828F83C002C003C004C005120825CC
:1005C000AE82AF83A8F0F9D005D004D003D002C02A
:1005D00006C007C000C0018A828B838CF0ED120731
:1005E0008BAA82AB83ACF0FDE58124FCF581C002CF
:1005F000C003C004C00590F4FC75F03274341206D8
:10060000DDAA82AB83ACF0FDE58124FCF581C0025C
:10061000C003C004C005C002C003C004C0059000F0
:100620000075F0B474431206DDAE82AF83A8F0F912
:10063000E58124FCF581C033C034C035C0368E82DC
:100640008F8388F0E912083285823785833885F0F8
:1006500039F53AE58124FCF58190000075F07A7453
:10066000441206DDAA82AB83ACF0FDE58124FCF5E3
:1006700081C002C003C004C005C033C034C035C04F
:100680003690000075F07A74441206DDAE82AF83B6
:10069000A8F0F9E58124FCF581D005D004D003D081
:1006A00002C037C038C039C03AC002C003C004C05D
:1006B00005C006C007C000C00174C8C0E07400C017
:1006C000E07480C0E01207F9E58124F1F5810203AE
:1006D00029E4AC83AB82FAF9748E02095A1209E656
:1006E000BC0003020985EF60FA30D502B2D1E58380
:1006F000B4FF0302099BE582B4FF0302099B258333
:1007000040072482400B0209852483145003020908
:100710009BF582EA8DF0A4A8F0EA8EF0A428F8E414
:1007200035F0F9EB8DF0A428E935F0F9E433CA8F00
:10073000F0A429F9EA35F0FAEBF88EF0A429F9EAE9
:1007400035F0FAE433FBEC8DF0A429F9EA35F0FA40
:10075000E43BFBE88FF0A42AFAEB35F0FBE433CC62
:10076000FD8EF0A42AFAEB35F0FBE43CFCED8FF0B3
:10077000A42BFBEC35F0FC20E7031209B30209645B
:10078000E4AC82FBFAF9748602095A1209E6790090
:10079000E583B58202800D5003120A14E583C395E8
:1007A00082120A2EE5D0C465D020E117EA2DFAEBBB
:1007B0003EFBEC3FFC50097401120A2EEC4480FC15
:1007C000020964C3EA9DFAEB9EFBEC9FFC500FC349
:1007D000E499F9E49AFAE49BFBE49CFCB2D1120997
:1007E000B30209640213FD85821885831985F01A06
:1007F00085091B9007E4020E50C008858108E508B2
:1008000024FBF51BE50824FBF886180886190886E2
:100810001A9007E4120E50D008227F8E121414F59D
:100820008385F08222AC83AB827A007900748E02D9
:1008300014421209E630D502B2D1BF0009BC000350
:100840000209A802099BBC0003020985E583B4FFE5
:100850000BE582B4FF030209A8020985E582B4FF13
:100860000302099BC395835007247F400B0209852F
:10087000248014500302099BC0E0E4CCCBCAF98D5C
:100880001C8E1D8F1EEF54F0C4F51F758306851F47
:10089000F0EB84F582E9C4F9EAC4FAEBC4FBEC544A
:1008A0000FC47803D6FC18EBD6FB18EAD6FA85827B
:1008B000F0EDA4A8F0FD8582F0EEA428FEE435F06A
:1008C000F88582F0EFA428FFE435F0F8E99DF9EA15
:1008D0009EFAEB9FFBEC98FCAD1CAE1DAF1E30E703
:1008E000101582E92DF9EA3EFAEB3FFBE43CFC806F
:1008F000EDC082D58398C3E933F9EA33FAEB33FBD1
:10090000EC33FCC3E99DEA9EEB9FEC9400B3E41347
:10091000F9D002D0E0C44AFAD003D0E0C44BFBD0F7
:1009200004D0E0F5F0540FC44CFCD082158230F4B2
:100930000FD3EC13FCEB13FBEA13FAE913F905826E
:10094000E930E70A74012AFAE43BFBE43CFC0209C3
:100950007CFCABF0AA83A982749EC2D1F5821209F5
:10096000B3020964B98003EA13B34010EA2401FA20
:10097000E43BFBE43CFC50047C800582BC000EBBE5
:10098000000BBA0008E4F5F0F583F58222A2D1E568
:1009900082138CF092F78B838A8222E4F583F582AE
:1009A00075F080F4A2D11322E4F583F58275F0C0CE
:1009B000747F227804EC7011E58224F8500AF582E5
:1009C000E4C9CACBFCD8EF22EC7820058220E713DB
:1009D000D5820122C3E933F9EA33FAEB33FBEC3376
:1009E000FCD8EA158222AA82AB83A2F73392D160A7
:1009F00002D2F7F582ACF0E58124F9F8E6FD08E6CD
:100A0000FE0886F008E6A2F73392D56002D2F7F529
:100A100083AFF022E582C583F582A2D133A2D592BD
:100A2000D11392D5ECCFFCEBCEFBEACDFA2260409D
:100A3000F82582500274FFF582E824F8501ECCCBD2
:100A4000CAF9E4CC24F85014CBCAF9E4CB24F8500A
:100A50000BCAF9E4CA24F850037900222408601074
:100A6000F8C3EC13FCEB13FBEA13FAE913F9D8F122
:100A700022AA827482C0E0740AC0E0C00AC00B8A55
:100A800082220511E4B51102051222AA8274302ACD
:100A9000FA24C6500A74072AFA3000034302208A57
:100AA00082020A71E582FAC4540FF582C002120A6A
:100AB0008BD002740F5AF582020A8BAA0CAB0DACD4
:100AC0000EAD0FAE10751720EE2EFEED235401FF74
:100AD0004206EA2AFAEB33FBEC33FCED33FDC3EEBE
:100AE00095134008EEC39513FE430201D517D98A2A
:100AF0000C8B0D8C0E8D0F8E10227847E624D0754E
:100B0000F00AA4FA7848E624D02AFA78468603BB8D
:100B10002D04C3E49AFA751301C3E464808AF06378
:100B2000F08095F050297517038A0374F625174055
:100B30001C0513E51714243BF8E517243BF987043B
:100B4000A604772E1BEBFA6004051780DE8B02EA01
:100B500030E70D783C8603783DA603783C762E0A74
:100B6000E515600AE51504FB2513F5138005300B28
:100B7000020513783B8603E4BB2D0104FB700620BD
:100B800006033007020513300403020C41300557F9
:100B9000EB600C75822DC002120A71D002801C30ED
:100BA000060C75822BC002120A71D002800D30072C
:100BB0000A758220C002120A71D002783C8604BCF9
:100BC0002E0C758230C002120A71D0021514AC14BA
:100BD0001514C3E5139C4003020C85758230C002D6
:100BE000120A71D00280E7AC141514C3E5139C50AF
:100BF0000C758220C002120A71D00280EA783B860E
:100C000004BC2D0C75822DC002120A71D002801C0A
:100C100030060C75822BC002120A71D002800D3092
:100C2000070A758220C002120A71D002783C86043D
:100C3000BC2E52758230C002120A71D00215148087
:100C400044EB600E75822DC002120A71D002151499
:100C5000802030060E75822BC002120A71D0021558
:100C600014800F30070C758220C002120A71D00266
:100C70001514783C8603BB2E0C758230C002120A14
:100C800071D0021514751701C20DE517243BF886C3
:100C900003BB4503020D42BB2E348A03C3E46480C8
:100CA0008BF063F08095F0500F758230C003120A0C
:100CB00071D0031B8B0280E48B02D20DE5157038D6
:100CC000200B03020D4275822E120A718074300DC2
:100CD000278A03EB30E71FC3E464808515F063F0D7
:100CE0008095F0500C758230C003120A71D0031544
:100CF000150B8B0280DD8B02300D0EC3E464808502
:100D000015F063F08095F05021E517243BF8860339
:100D10008B82C002120A71D002300D0EE517243BFF
:100D2000F88603BB2E02800215151514C3E46480F7
:100D30008515F063F08095F04003200D050517023E
:100D40000C8AC3E464808515F063F08095F0500A46
:100D5000758230120A71151580E830040FAA141537
:100D600014EA6008758220120A7180F122E515707C
:100D700003300B0D74072515FAE514C39AF514809A
:100D800006E51424FAF514751700783B8602BA2B91
:100D90000F20060C783B76202007057517010514F7
:100DA000200419AA14C3E464808AF063F08095F0EB
:100DB000500A758220120A71151480E7C20DE517DA
:100DC000243BF88602BA00028069BA451F3000024F
:100DD0007665C3E464808515F063F08095F0500A71
:100DE000758230120A71151580E8D20DC3E517948B
:100DF00002E433FA7014EA700EC3E464808515F0DF
:100E000063F08095F04003300D16E517243BF8861B
:100E1000028A82120A71E51724FD50121515800E00
:100E20007402B51709300B0675822E120A71051768
:100E3000020DBE300419AA14C3E464808AF063F082
:100E40008095F0500A758220120A71151480E722ED
:100E500085820A85830BE4F511F512AA18AB19AC4B
:100E60001A8A828B838CF0121466FD74012AF5189D
:100E7000E43BF5198C1AEDFA70030213F6BA250259
:100E800080030213EEC204C205C206C207C208C232
:100E900009C20AC20BC201C202C203751300751453
:100EA000007515FFAB18AC19AD1A8B828C838DF0D1
:100EB000121466FAA3AB82AC838B188C198D1ABA04
:100EC00025078A82120A7180928A06BE3000402E5F
:100ED0008A06EE24C6402774FFB51513E51475F095
:100EE0000AA4FEEA24D02EF51470BFD20580BBE51B
:100EF0001575F00AA4FEEA24D02EF51580ACBA2EA2
:100F00000A74FFB515A4751500809F8A06BE61009E
:100F1000400E8A06EE248540075302DFD20080028D
:100F2000C200BA20028075BA2303020FABBA2A03AB
:100F3000020FB0BA2B02805FBA2D028055BA42026E
:100F4000805FBA4303020FF5BA4403021130BA4579
:100F50000302114ABA4603021146BA470302114E70
:100F6000BA4903021130BA4C02803BBA4E03021157
:100F700052BA4F03021137BA50030210C9BA5303D1
:100F8000021019BA550302113CBA5803021141026A
:100F9000117CD204020EAAD206020EAAD207020EB9
:100FA000AAD209020EAAD20A020EAAD20B020EAAD5
:100FB00074FFB5152030090BE51B14F8881B861447
:100FC000020EAAE51B24FEF8881B86060886071871
:100FD0008E14020EAA30090BE51B14F8881B861527
:100FE000020EAAE51B24FEF8881B86060886071851
:100FF0008E15020EAA30090AE51B14F8881B86021A
:10100000800FE51B24FEF8881B8603088604188BD6
:10101000028A82120A71021181E51B24FDF8881BE5
:10102000860308860408860518188B0C8C0D8D0E17
:101030008B828C838DF01215BAAB82AC838B1674C5
:10104000FFB5150385161520041DC3E5169514502C
:1010500016E514C39516F514AB141514EB6008755A
:101060008220120A7180F1850C82850D83850EF035
:10107000121466FBFA6029AB151515C3E464808B66
:10108000F063F08095F050188A82120A71AB0CACB4
:101090000DAD0E0BBB00010C8B0C8C0D8D0E80C7A3
:1010A000200403021181C3E5169514400302118147
:1010B000E514C39516F514AB141514EB7003021167
:1010C00081758220120A7180EEE51B24FDF8881BD1
:1010D000860308860408860518188B0C8C0D8D0E67
:1010E000E50EFB30E7047A438013EB546060047A2A
:1010F00050800AEB30E6047A4980027A588A82C02E
:1011000002120A7175823A120A71758230120A71DE
:10111000758278120A71D002BA4902800BBA500265
:101120008006850D82120AA4850C82120AA48051C1
:10113000D20875130A804A751308804575130A8012
:1011400040751310803BD2018037D2028033D20326
:10115000802FE51B24FDF8881B860308860408867B
:101160000518188B0C8C0D8D0E8B828C838DF0E501
:10117000111215A1A3E5121215A180058A82120A87
:1011800071200106200203300370E51B24FCF8885F
:101190001B86030886040886050886061818188B1F
:1011A0000C8C0D8D0E8E0FE50CE50DE50EE50F8B0D
:1011B000828C838DF0EE12148274FFB515037515C1
:1011C00006300327747F550FFB8B10E510EB2BFBCC
:1011D0008B10E50E30E70674014510F510E510247C
:1011E000684006749925104002D202300206120DA2
:1011F0006D020E5B120AFA020E5BE5137003020E1B
:101200005B7B4030092BE51B14F8881BE6FC33950B
:10121000E0FDFEFF8C0C8D0D8E0E8F0F20085EAC56
:101220000C7D007E007F008C0C8D0D8E0E8F0F804C
:101230004C300A1FE51B24FCF8881B860408860531
:101240000886060886071818188C0C8D0D8E0E8FD0
:101250000F802AE51B24FEF8881B860408860518E3
:10126000ED3395E0FEFF8C0C8D0D8E0E8F0F200858
:101270000CAC0CAD0D7E007F008E0E8F0F300B433B
:10128000E50C450D450E450F60397408B5130C7516
:101290008230C003120A71D00380287410B5132362
:1012A000758230C003120A71D00330000C75827849
:1012B000C003120A71D003800A758258C003120A53
:1012C00071D003300825AC0CAD0DAE0EE50FFF302C
:1012D000E717C3E49CFCE49DFDE49EFEE49FFF8CC5
:1012E0000C8D0D8E0E8F0F8002C208751600D20C69
:1012F0008B00751000C000120ABBD000200C0DE559
:1013000010C4FCE6FD4CF61888038002A6100516F2
:10131000B20CE50C450D450E450F70D68803E5145B
:10132000700375140120051A200417E51604FCC388
:101330009514500E758220C003120A71D003151443
:1013400080E930080E75822DC003120A71D0031592
:10135000148024E516602030060E75822BC003121F
:101360000A71D0031514800F30070C758220C0035A
:10137000120A71D003151420041EAC141514C3E511
:10138000169C50273005047C3080027C208C82C063
:1013900003120A71D00380E2C3E51695145009E5E3
:1013A00014C39516F51480037514008B00AB161545
:1013B00016EB6022B20C200C0A08E6C4540FFB8B1B
:1013C0001080078603740F5BF510851082C0001231
:1013D0000A8BD00080D7200403020E5BAB141514D7
:1013E000EB7003020E5B758220120A7180EE8A8216
:1013F000120A71020E5B85118285128322AA82BABB
:101400000A0810990280FB75990D10990280FB8AD9
:1014100099227F9E1215E230D103020985C3EF9510
:1014200082500974FFF5F0F583F582227900120AE3
:101430002E89828A838BF0EC22FCABF0AA83A982EE
:10144000749EF582C2D1EC30E716D2D1E9F42401C2
:10145000F9EAF43400FAEBF43400FBECF43400FC69
:101460001209B302096420F71430F6148883A882A5
:1014700020F507E6A88375830022E280F7E4932233
:10148000E022C0E0F84582458345F07009F5F0FBA5
:10149000FCFDFE021550E823A2F792E0F8A982AA0B
:1014A00083D2F7ABF07C007E07C3749798404074FA
:1014B000FF2EFE740A89F0A4F985F082740A8AF07E
:1014C000A4FA85F083740A8BF0A4FB740529F9EA69
:1014D0003582FAEB3583FB740035F0FCC3EC13FC6A
:1014E000EB13FBEA13FAE913F908EC70EF80BAE8A2
:1014F000C3947FF88B838EF0E4FBFCFDFEFF08C3F2
:10150000E933F9EA33FAE58333F583EB3BD4FBECBB
:101510003CD4FCED3DD4FDEE3ED4FEEF3FD4FF6065
:101520002D05F074052BD4FBE43CD4FCE43DD4FD44
:10153000E43ED4FEE43FD4FF758204C3EF13FFEE14
:1015400013FEED13FDEC13FCEB13FBD582EDD8AFCE
:10155000783BD0E020E704762B8002762D087906D0
:10156000E7C4540F4430F608B90603762E08E75452
:101570000F4430F60819B902E7764508E5F020E790
:1015800004762B8004762DF4040875F00A84443028
:10159000F608E5F04430F608E4F690003B75F040BC
:1015A0002220F71030F6118883A88220F507F6A8CC
:1015B0008375830022F280F7F022AA82AB83ACF01D
:1015C0007D007E008A828B838CF0121466FFA3AAB2
:1015D00082AB83EF60070DBD00EA0E80E78D828E3F
:1015E0008322AA82AB83A2F73392D16002D2F7F5AD
:1015F00082ACF022000000000000000000000000AB
:00000001FF
