:1000000002000375815A120198E582600302006FB5
:10001000780079007A007B007C007D00EC4D601C4C
:1000200088828983E493A3A882A9838A828B83F040
:10003000A3AA82AB831CBCFFE31D80E07582007520
:1000400083007C007D00EC4D600AE4F0A31CBCFF43
:10005000F51D80F27582007583007C007D00EC4DFB
:10006000600AE4F0A31CBCFFF51D80F212014F12E0
:10007000032E80FE1B5B324A0041444320746573AB
:10008000742070726F6772616D0A46696C653A2000
:1000900025730A436F6D70696C65643A2025732C73
:1000A0002025730A0A00736F75726365636F646558
:1000B0002E63004D61722020352032303234003200
:1000C000303A35393A32310068657265310A006874
:1000D000616C667761790A0050325F313A25322EC1
:1000E00032662C20564050325F313A25332E33662B
:1000F0002C202050325F323A25322E32662C205688
:100100004050325F323A25332E33660D0062616C07
:100110006C730A00200D543D2566206D732020204D
:1001200020004D617820416D70204070322E313DAD
:1001300025372E3566562C204D617820416D702074
:100140004070322E323D25372E3566562C0D007507
:100150002D00752E00752F00753000753100753239
:10016000007533007534007535007536007537003D
:10017000753800753900753A00753B00753C00759F
:100180003D00753E00753F007540007541007542A9
:10019000007543007544002275A7007597DE7597BA
:1001A000AD75FF8075EF0675A71075C12075A700A6
:1001B00075A90075A900E5A930E7FB75A90375A924
:1001C00003E5A930E7FB43A41075E10175E2007572
:1001D000E340759810758DE6858D8B53890F4389A3
:1001E00020D28ED2997582002275A700C2EF75B217
:1001F0008075BC2075B91E75E80075DF3F75B300CA
:10020000D2EF22AA82438E407592B87593FF8592F1
:10021000948593957591047B00C3EB9A500BE591FF
:1002200030E7FB53917F0B80F075910022AA82ABDF
:10023000837C007D00C3EC9AED9B502B7E00BE04B6
:1002400000501D7582FAC002C003C004C005C0067C
:10025000120203D006D005D004D003D0020E80DEF7
:100260000CBC00D10D80CE22AA82851CF005F07452
:1002700001800225E0D5F0FBFB75A720BA000280C3
:100280000ABA0102800FBA021E8014EBF4FA52F18E
:10029000EB42D48012EBF4FA52F2EB42D58008EB39
:1002A000F4FA52F3EB42CC75A700228582BBC2ED73
:1002B000D2EC30EDFD85BD8285BE8322C2EDD2EC4D
:1002C00030EDFD85BD8285BE83221202AB12064E43
:1002D000AA82AB83ACF0FDC002C003C004C005908D
:1002E000923A75F053744012068AAA82AB83ACF03E
:1002F000FDE58124FCF581E4C0E074FCC0E0747F7E
:10030000C0E07446C0E08A828B838CF0ED1207D483
:10031000AA82AB83ACF0FDE58124FCF5818A828B57
:10032000838CF0ED225389F0438905C28C2212039D
:10033000259001F412022D7474C0E07400C0E074C2
:1003400080C0E01207A615811581158174BFC0E039
:100350007400C0E07480C0E074B3C0E07400C0E01A
:100360007480C0E074A6C0E07400C0E07480C0E097
:100370007479C0E07400C0E07480C0E01207A6E5A4
:100380008124F4F581751C01758202120268751CC6
:10039000027582021202681201E9758A00758C00EA
:1003A000C28D75220074C8C0E07400C0E07480C0C3
:1003B000E01207A61581158115812086FD74CFC036
:1003C000E07400C0E07480C0E01207A615811581BA
:1003D000158120865D75820F1202CAAA82AB83AC9A
:1003E000F0FDA2A2E433F54575460075820EC00209
:1003F000C003C004C0051202CA85824785834885B0
:10040000F049F54AA2A1E433FE7F00C045C046C0D2
:1004100047C048C049C04AC006C00774D8C0E0748D
:1004200000C0E07480C0E01207A6E58124F1F581E8
:1004300080A0740DC0E07401C0E07480C0E01207B9
:10044000A6158115811581D28C308609108D028008
:10045000F8052280F4208609108D0280F80522809C
:10046000F4C28C85228212072DAA82AB83ACF0FDE8
:10047000C002C003C004C00590000075F08074473E
:1004800012068AAA82AB83ACF0FDE58124FCF581DB
:10049000858C82C002C003C004C00512072DAE8245
:1004A000AF83A8F0F9C006C007C000C001900000EB
:1004B00075F080744312068AAE82AF83A8F0F9E526
:1004C0008124FCF581D005D004D003D002C006C041
:1004D00007C000C0018A828B838CF0ED120738AA16
:1004E00082AB83ACF0FDE58124FCF581AE8A7F0010
:1004F0008E828F83C002C003C004C0051207C7AE3E
:1005000082AF83A8F0F9D005D004D003D002C00692
:10051000C007C000C0018A828B838CF0ED120738BF
:10052000AA82AB83ACF0FDE58124FCF581C002C05A
:1005300003C004C00590F4FC75F032743412068ACE
:10054000AA82AB83ACF0FDE58124FCF581C002C03A
:1005500003C004C00590000075F07A744412068A46
:10056000AA82AB83ACF0FDE58124FCF581C002C01A
:1005700003C004C0057414C0E07401C0E07480C0FE
:10058000E01207A6E58124F9F58175820E1202CAF0
:1005900085823D85833E85F03FF540C02DC02EC04D
:1005A0002FC030853D82853E83853FF0E5401206B1
:1005B0005AAA82E58124FCF581EA600C853D3585E7
:1005C0003E36853F37854038853D2D853E2E853F1B
:1005D0002F85403075820F1202CA85824185834281
:1005E00085F043F544C031C032C033C03485418208
:1005F0008542838543F0E54412065AAA82E58124A8
:10060000FCF581EA600C85413985423A85433B859A
:10061000443C85413185423285433385443405234A
:10062000E4B523020524C039C03AC03BC03CC03504
:10063000C036C037C0387422C0E07401C0E0748096
:10064000C0E01207A6E58124F5F58102039AE4AC27
:1006500083AB82FAF9748E0208FCFFA88118181285
:100660000924D2D133E6400730E70B7582012220FE
:10067000E70675820022C2D1120906E97003F582ED
:100680002230D101B3E433F582221209D1BC000338
:10069000020970EF60FA30D502B2D1E583B4FF03EE
:1006A000020986E582B4FF030209862583400724F8
:1006B00082400B0209702483145003020986F582DC
:1006C000EA8DF0A4A8F0EA8EF0A428F8E435F0F959
:1006D000EB8DF0A428E935F0F9E433CA8FF0A429B2
:1006E000F9EA35F0FAEBF88EF0A429F9EA35F0FAD8
:1006F000E433FBEC8DF0A429F9EA35F0FAE43BFB96
:10070000E88FF0A42AFAEB35F0FBE433CCFD8EF051
:10071000A42AFAEB35F0FBE43CFCED8FF0A42BFBB4
:10072000EC35F0FC20E70312099E02094FE4AC828D
:10073000FBFAF974860208FC1209D17900E583B549
:100740008202800D50031209FFE583C39582120ACD
:1007500019E5D0C465D020E117EA2DFAEB3EFBEC99
:100760003FFC50097401120A19EC4480FC02094F45
:10077000C3EA9DFAEB9EFBEC9FFC500FC3E499F992
:10078000E49AFAE49BFBE49CFCB2D112099E0209B4
:100790004F0213E885821885831985F01A85091B95
:1007A000900791020E3BC008858108E50824FBF5FF
:1007B0001BE50824FBF8861808861908861A900796
:1007C00091120E3BD00822AC83AB827A0079007480
:1007D0008E0214061209D130D502B2D1BF0009BC75
:1007E0000003020993020986BC0003020970E58335
:1007F000B4FF0BE582B4FF03020993020970E5829E
:10080000B4FF03020986C395835007247F400B027F
:1008100009702480145003020986C0E0E4CCCBCADE
:10082000F98D1C8E1D8F1EEF54F0C4F51F758306C5
:10083000851FF0EB84F582E9C4F9EAC4FAEBC4FB46
:10084000EC540FC47803D6FC18EBD6FB18EAD6FAA2
:100850008582F0EDA4A8F0FD8582F0EEA428FEE4E8
:1008600035F0F88582F0EFA428FFE435F0F8E99D33
:10087000F9EA9EFAEB9FFBEC98FCAD1CAE1DAF1E97
:1008800030E7101582E92DF9EA3EFAEB3FFBE43C34
:10089000FC80EDC082D58398C3E933F9EA33FAEBE3
:1008A00033FBEC33FCC3E99DEA9EEB9FEC9400B371
:1008B000E413F9D002D0E0C44AFAD003D0E0C44B2C
:1008C000FBD004D0E0F5F0540FC44CFCD08215826C
:1008D00030F40FD3EC13FCEB13FBEA13FAE913F932
:1008E0000582E930E70A74012AFAE43BFBE43CFCA8
:1008F000020967FCABF0AA83A982749EC2D1F5827B
:1009000012099E02094F7901AA82E68F82B58213ED
:1009100018E6B5F00E18E6B5830918E68A82B582A6
:1009200002790022B4800FE5F0700AE5837006E5D5
:100930008270027F00EFB6801518B6001018B6005E
:100940000B18B6000608080876002208080822B925
:100950008003EA13B34010EA2401FAE43BFBE43CD1
:10096000FC50047C800582BC000EBB000BBA000862
:10097000E4F5F0F583F58222A2D1E582138CF092A2
:10098000F78B838A8222E4F583F58275F080F4A2E6
:10099000D11322E4F583F58275F0C0747F227804C8
:1009A000EC7011E58224F8500AF582E4C9CACBFC48
:1009B000D8EF22EC7820058220E713D5820122C3EC
:1009C000E933F9EA33FAEB33FBEC33FCD8EA15826E
:1009D00022AA82AB83A2F73392D16002D2F7F582CA
:1009E000ACF0E58124F9F8E6FD08E6FE0886F0089B
:1009F000E6A2F73392D56002D2F7F583AFF022E595
:100A000082C583F582A2D133A2D592D11392D5ECBF
:100A1000CFFCEBCEFBEACDFA226040F825825002F3
:100A200074FFF582E824F8501ECCCBCAF9E4CC243C
:100A3000F85014CBCAF9E4CB24F8500BCAF9E4CA35
:100A400024F8500379002224086010F8C3EC13FC4A
:100A5000EB13FBEA13FAE913F9D8F122AA82746DB9
:100A6000C0E0740AC0E0C00AC00B8A82220511E40B
:100A7000B51102051222AA8274302AFA24C6500A3D
:100A800074072AFA3000034302208A82020A5CE5D6
:100A900082FAC4540FF582C002120A76D002740F93
:100AA0005AF582020A76AA0CAB0DAC0EAD0FAE1051
:100AB000751720EE2EFEED235401FF4206EA2AFAB6
:100AC000EB33FBEC33FCED33FDC3EE95134008EE46
:100AD000C39513FE430201D517D98A0C8B0D8C0EDA
:100AE0008D0F8E10227857E624D075F00AA4FA787C
:100AF00058E624D02AFA78568603BB2D04C3E49A1C
:100B0000FA751301C3E464808AF063F08095F050B5
:100B1000297517038A0374F62517401C0513E5177A
:100B200014244BF8E517244BF98704A604772E1BF1
:100B3000EBFA6004051780DE8B02EA30E70D784C93
:100B40008603784DA603784C762E0AE515600AE5F3
:100B50001504FB2513F5138005300B020513784BA4
:100B60008603E4BB2D0104FB700620060330070258
:100B70000513300403020C2C300557EB600C758212
:100B80002DC002120A5CD002801C30060C75822B2C
:100B9000C002120A5CD002800D30070A758220C0A4
:100BA00002120A5CD002784C8604BC2E0C7582308E
:100BB000C002120A5CD0021514AC141514C3E5135C
:100BC0009C4003020C70758230C002120A5CD00295
:100BD00080E7AC141514C3E5139C500C758220C03B
:100BE00002120A5CD00280EA784B8604BC2D0C7598
:100BF000822DC002120A5CD002801C30060C758265
:100C00002BC002120A5CD002800D30070A758220C8
:100C1000C002120A5CD002784C8604BC2E52758247
:100C200030C002120A5CD00215148044EB600E75CD
:100C3000822DC002120A5CD0021514802030060EEC
:100C400075822BC002120A5CD0021514800F300787
:100C50000C758220C002120A5CD0021514784C86F2
:100C600003BB2E0C758230C002120A5CD002151430
:100C7000751701C20DE517244BF88603BB45030227
:100C80000D2DBB2E348A03C3E464808BF063F080A7
:100C900095F0500F758230C003120A5CD0031B8B95
:100CA0000280E48B02D20DE5157038200B03020D93
:100CB0002D75822E120A5C8074300D278A03EB306A
:100CC000E71FC3E464808515F063F08095F0500C55
:100CD000758230C003120A5CD00315150B8B02809D
:100CE000DD8B02300D0EC3E464808515F063F08067
:100CF00095F05021E517244BF886038B82C0021231
:100D00000A5CD002300D0EE517244BF88603BB2E8B
:100D100002800215151514C3E464808515F063F094
:100D20008095F04003200D050517020C75C3E4649F
:100D3000808515F063F08095F0500A758230120AB4
:100D40005C151580E830040FAA141514EA600875C4
:100D50008220120A5C80F122E5157003300B0D74BD
:100D6000072515FAE514C39AF5148006E51424FA4C
:100D7000F514751700784B8602BA2B0F20060C78F5
:100D80004B76202007057517010514200419AA14B5
:100D9000C3E464808AF063F08095F0500A75822085
:100DA000120A5C151480E7C20DE517244BF8860281
:100DB000BA00028069BA451F3000027665C3E46458
:100DC000808515F063F08095F0500A758230120A24
:100DD0005C151580E8D20DC3E5179402E433FA7070
:100DE00014EA700EC3E464808515F063F08095F01A
:100DF0004003300D16E517244BF886028A82120A4A
:100E00005CE51724FD50121515800E7402B5170904
:100E1000300B0675822E120A5C0517020DA93004EC
:100E200019AA14C3E464808AF063F08095F0500A34
:100E3000758220120A5C151480E72285820A858358
:100E40000BE4F511F512AA18AB19AC1A8A828B8340
:100E50008CF012142AFD74012AF518E43BF5198C64
:100E60001AEDFA70030213E1BA250280030213D9C6
:100E7000C204C205C206C207C208C209C20AC20B26
:100E8000C201C202C2037513007514007515FFABD1
:100E900018AC19AD1A8B828C838DF012142AFAA328
:100EA000AB82AC838B188C198D1ABA25078A8212F3
:100EB0000A5C80928A06BE3000402E8A06EE24C666
:100EC000402774FFB51513E51475F00AA4FEEA2453
:100ED000D02EF51470BFD20580BBE51575F00AA4BD
:100EE000FEEA24D02EF51580ACBA2E0A74FFB51593
:100EF000A4751500809F8A06BE6100400E8A06EE2A
:100F0000248540075302DFD2008002C200BA2002CB
:100F10008075BA2303020F96BA2A03020F9BBA2BDD
:100F200002805FBA2D028055BA4202805FBA430345
:100F3000020FE0BA440302111BBA4503021135BA8D
:100F40004603021131BA4703021139BA49030211AB
:100F50001BBA4C02803BBA4E0302113DBA4F03024A
:100F60001122BA50030210B4BA5303021004BA5546
:100F700003021127BA580302112C021167D204028E
:100F80000E95D206020E95D207020E95D209020ED8
:100F900095D20A020E95D20B020E9574FFB515205C
:100FA00030090BE51B14F8881B8614020E95E51B0F
:100FB00024FEF8881B8606088607188E14020E95F4
:100FC00030090BE51B14F8881B8615020E95E51BEE
:100FD00024FEF8881B8606088607188E15020E95D3
:100FE00030090AE51B14F8881B8602800FE51B24D4
:100FF000FEF8881B8603088604188B028A82120A70
:101000005C02116CE51B24FDF8881B86030886042E
:1010100008860518188B0C8C0D8D0E8B828C838D99
:10102000F012157EAB82AC838B1674FFB515038569
:10103000161520041DC3E51695145016E514C39526
:1010400016F514AB141514EB6008758220120A5CB7
:1010500080F1850C82850D83850EF012142AFBFA2F
:101060006029AB151515C3E464808BF063F080959F
:10107000F050188A82120A5CAB0CAC0DAD0E0BBBA3
:1010800000010C8B0C8C0D8D0E80C7200403021107
:101090006CC3E5169514400302116CE514C3951654
:1010A000F514AB141514EB700302116C7582201249
:1010B0000A5C80EEE51B24FDF8881B860308860485
:1010C00008860518188B0C8C0D8D0EE50EFB30E78D
:1010D000047A438013EB546060047A50800AEB304A
:1010E000E6047A4980027A588A82C002120A5C7544
:1010F000823A120A5C758230120A5C758278120A92
:101100005CD002BA4902800BBA50028006850D827B
:10111000120A8F850C82120A8F8051D20875130A29
:10112000804A751308804575130A80407513108036
:101130003BD2018037D2028033D203802FE51B24BB
:10114000FDF8881B860308860408860518188B0C92
:101150008C0D8D0E8B828C838DF0E511121565A39D
:10116000E51212156580058A82120A5C20010620AC
:101170000203300370E51B24FCF8881B86030886F5
:10118000040886050886061818188B0C8C0D8D0E21
:101190008E0FE50CE50DE50EE50F8B828C838DF04F
:1011A000EE12144674FFB515037515063003277447
:1011B0007F550FFB8B10E510EB2BFB8B10E50E30F2
:1011C000E70674014510F510E5102468400674998F
:1011D00025104002D202300206120D58020E4612AD
:1011E0000AE5020E46E5137003020E467B503009F5
:1011F0002BE51B14F8881BE6FC3395E0FDFEFF8C05
:101200000C8D0D8E0E8F0F20085EAC0C7D007E00C5
:101210007F008C0C8D0D8E0E8F0F804C300A1FE5D9
:101220001B24FCF8881B86040886050886060886A9
:10123000071818188C0C8D0D8E0E8F0F802AE51B49
:1012400024FEF8881B860408860518ED3395E0FE19
:10125000FF8C0C8D0D8E0E8F0F20080CAC0CAD0D7D
:101260007E007F008E0E8F0F300B43E50C450D4541
:101270000E450F60397408B5130C758230C0031227
:101280000A5CD00380287410B51323758230C00324
:10129000120A5CD00330000C758278C003120A5C1D
:1012A000D003800A758258C003120A5CD00330084C
:1012B00025AC0CAD0DAE0EE50FFF30E717C3E49C77
:1012C000FCE49DFDE49EFEE49FFF8C0C8D0D8E0ED4
:1012D0008F0F8002C208751600D20C8B00751000AB
:1012E000C000120AA6D000200C0DE510C4FCE6FDDB
:1012F0004CF61888038002A6100516B20CE50C45C2
:101300000D450E450F70D68803E514700375140162
:1013100020051A200417E51604FCC39514500E7519
:101320008220C003120A5CD003151480E930080E35
:1013300075822DC003120A5CD00315148024E516B3
:10134000602030060E75822BC003120A5CD0031594
:1013500014800F30070C758220C003120A5CD00382
:10136000151420041EAC141514C3E5169C50273028
:1013700005047C3080027C208C82C003120A5CD081
:101380000380E2C3E51695145009E514C39516F5DC
:101390001480037514008B00AB161516EB6022B297
:1013A0000C200C0A08E6C4540FFB8B108007860340
:1013B000740F5BF510851082C000120A76D0008091
:1013C000D7200403020E46AB141514EB7003020E73
:1013D00046758220120A5C80EE8A82120A5C020E36
:1013E0004685118285128322AA82BA0A08109902C0
:1013F00080FB75990D10990280FB8A9922FCABF055
:10140000AA83A982749EF582C2D1EC30E716D2D1AC
:10141000E9F42401F9EAF43400FAEBF43400FBECCB
:10142000F43400FC12099E02094F20F71430F61420
:101430008883A88220F507E6A88375830022E280CE
:10144000F7E49322E022C0E0F84582458345F0703E
:1014500009F5F0FBFCFDFE021514E823A2F792E06B
:10146000F8A982AA83D2F7ABF07C007E07C37497F9
:1014700098404074FF2EFE740A89F0A4F985F0822A
:10148000740A8AF0A4FA85F083740A8BF0A4FB74C2
:101490000529F9EA3582FAEB3583FB740035F0FC57
:1014A000C3EC13FCEB13FBEA13FAE913F908EC7035
:1014B000EF80BAE8C3947FF88B838EF0E4FBFCFDE9
:1014C000FEFF08C3E933F9EA33FAE58333F583EB2A
:1014D0003BD4FBEC3CD4FCED3DD4FDEE3ED4FEEF22
:1014E0003FD4FF602D05F074052BD4FBE43CD4FC05
:1014F000E43DD4FDE43ED4FEE43FD4FF758204C352
:10150000EF13FFEE13FEED13FDEC13FCEB13FBD515
:1015100082EDD8AF784BD0E020E704762B800276BE
:101520002D087906E7C4540F4430F608B90603764F
:101530002E08E7540F4430F60819B902E77645083B
:10154000E5F020E704762B8004762DF4040875F08E
:101550000A844430F608E5F04430F608E4F69000DA
:101560004B75F0402220F71030F6118883A88220B6
:10157000F507F6A88375830022F280F7F022AA828D
:10158000AB83ACF07D007E008A828B838CF01214DA
:101590002AFFA3AA82AB83EF60070DBD00EA0E808D
:1015A000E78D828E83220000000000000000000012
:00000001FF
