:1000000002000375814E12012AE582600302006F2F
:10001000780079007A007B007C007D00EC4D601C4C
:1000200088828983E493A3A882A9838A828B83F040
:10003000A3AA82AB831CBCFFE31D80E07582007520
:1000400083007C007D00EC4D600AE4F0A31CBCFF43
:10005000F51D80F27582007583007C007D00EC4DFB
:10006000600AE4F0A31CBCFFF51D80F21200F91237
:1000700002B280FE1B5B324A004144432074657328
:10008000742070726F6772616D0A46696C653A2000
:1000900025730A436F6D70696C65643A2025732C73
:1000A0002025730A0A00736F75726365636F646558
:1000B0002E63004D61722020362032303234003100
:1000C000323A32373A33350025660A004D617820DE
:1000D000416D70204070322E313D25372E356656E9
:1000E0002C204D617820416D70204070322E323DC1
:1000F00025372E3566562C0D00752B00752C007596
:100100002D00752E00752F00753000753100753289
:10011000007533007534007535007536007537008D
:10012000753800753900753A002275A7007597DE9D
:100130007597AD75FF8075EF0675A71075C12075B1
:10014000A70075A90075A900E5A930E7FB75A9030B
:1001500075A903E5A930E7FB43A41075E10175E239
:100160000075E340759810758DE6858D8B53890F6A
:10017000438920D28ED2997582002275A700C2EFE2
:1001800075B28075BC2075B91E75E80075DF3F75C6
:10019000B300D2EF22AA82438E407592B87593FFC6
:1001A0008592948593957591047B00C3EB9A500BCF
:1001B000E59130E7FB53917F0B80F075910022AA07
:1001C00082AB837C007D00C3EC9AED9B502B7E00BC
:1001D000BE0400501D7582FAC002C003C004C005F1
:1001E000C006120195D006D005D004D003D0020E6F
:1001F00080DE0CBC00D10D80CE22AA82851CF005C9
:10020000F07401800225E0D5F0FBFB75A720BA0051
:1002100002800ABA0102800FBA021E8014EBF4FABF
:1002200052F1EB42D48012EBF4FA52F2EB42D58059
:1002300008EBF4FA52F3EB42CC75A700228582BB9F
:10024000C2EDD2EC30EDFD85BD8285BE8322120267
:100250003D12034AAA82AB83ACF0FDC002C003C0CA
:1002600004C00590923A75F0537440120356AA8266
:10027000AB83ACF0FDE58124FCF581E4C0E074FCC7
:10028000C0E0747FC0E07446C0E08A828B838CF04B
:10029000ED12042FAA82AB83ACF0FDE58124FCF5BE
:1002A000818A828B838CF0ED225389F0438901C2CD
:1002B0008C221202A99001F41201BF7474C0E07480
:1002C00000C0E07480C0E012040E15811581158114
:1002D00074BFC0E07400C0E07480C0E074B3C0E0DC
:1002E0007400C0E07480C0E074A6C0E07400C0E098
:1002F0007480C0E07479C0E07400C0E07480C0E035
:1003000012040EE58124F4F581751C017582021238
:1003100001FA751C027582021201FA12017B7582C4
:100320000F12024EAA82AB83ACF0FDC002C003C024
:1003300004C00574C8C0E07400C0E07480C0E0125E
:10034000040EE58124F9F58180D4E4AC83AB82FA14
:10035000F9748E0205571205E3BC0003020582EF13
:1003600060FA30D502B2D1E583B4FF03020598E507
:1003700082B4FF03020598258340072482400B02C4
:1003800005822483145003020598F582EA8DF0A4B7
:10039000A8F0EA8EF0A428F8E435F0F9EB8DF0A48B
:1003A00028E935F0F9E433CA8FF0A429F9EA35F0E9
:1003B000FAEBF88EF0A429F9EA35F0FAE433FBEC15
:1003C0008DF0A429F9EA35F0FAE43BFBE88FF0A4BC
:1003D0002AFAEB35F0FBE433CCFD8EF0A42AFAEBDD
:1003E00035F0FBE43CFCED8FF0A42BFBEC35F0FC8E
:1003F00020E7031205B0020561020F9D8582188572
:10040000831985F01A85091B9003F90209F0C008C9
:10041000858108E50824FBF51BE50824FBF8861810
:1004200008861908861A9003F91209F0D0082212DA
:1004300005E330D502B2D1BF0009BC00030205A517
:10044000020598BC0003020582E583B4FF0BE58238
:10045000B4FF030205A5020582E582B4FF0302058D
:1004600098C395835007247F400B02058224801493
:100470005003020598C0E0E4CCCBCAF98D1C8E1D58
:100480008F1EEF54F0C4F51F758306851FF0EB84B3
:10049000F582E9C4F9EAC4FAEBC4FBEC540FC47862
:1004A00003D6FC18EBD6FB18EAD6FA8582F0EDA449
:1004B000A8F0FD8582F0EEA428FEE435F0F88582F0
:1004C000F0EFA428FFE435F0F8E99DF9EA9EFAEB95
:1004D0009FFBEC98FCAD1CAE1DAF1E30E7101582E3
:1004E000E92DF9EA3EFAEB3FFBE43CFC80EDC082EB
:1004F000D58398C3E933F9EA33FAEB33FBEC33FCE9
:10050000C3E99DEA9EEB9FEC9400B3E413F9D0029B
:10051000D0E0C44AFAD003D0E0C44BFBD004D0E012
:10052000F5F0540FC44CFCD082158230F40FD3EC9C
:1005300013FCEB13FBEA13FAE913F90582E930E740
:100540000A74012AFAE43BFBE43CFC020579FCABAB
:10055000F0AA83A982749EC2D1F5821205B0020569
:1005600061B98003EA13B34010EA2401FAE43BFBCB
:10057000E43CFC50047C800582BC000EBB000BBA3E
:100580000008E4F5F0F583F58222A2D1E582138C10
:10059000F092F78B838A8222E4F583F58275F080EE
:1005A000F4A2D11322E4F583F58275F0C0747F22A2
:1005B0007804EC7011E58224F8500AF582E4C9CA87
:1005C000CBFCD8EF22EC7820058220E713D58201FE
:1005D00022C3E933F9EA33FAEB33FBEC33FCD8EA14
:1005E000158222AA82AB83A2F73392D16002D2F79E
:1005F000F582ACF0E58124F9F8E6FD08E6FE088610
:10060000F008E6A2F73392D56002D2F7F583AFF097
:1006100022AA827422C0E07406C0E0C00AC00B8A1D
:1006200082220511E4B51102051222AA8274302A31
:10063000FA24C6500A74072AFA3000034302208ABB
:1006400082020611E582FAC4540FF582C002120636
:100650002BD002740F5AF58202062BAA0CAB0DACFC
:100660000EAD0FAE10751720EE2EFEED235401FFD8
:100670004206EA2AFAEB33FBEC33FCED33FDC3EE22
:1006800095134008EEC39513FE430201D517D98A8E
:100690000C8B0D8C0E8D0F8E1022784BE624D075AE
:1006A000F00AA4FA784CE624D02AFA784A8603BBEA
:1006B0002D04C3E49AFA751301C3E464808AF063DD
:1006C000F08095F050297517038A0374F6251740BA
:1006D0001C0513E51714243FF8E517243FF9870498
:1006E000A604772E1BEBFA6004051780DE8B02EA66
:1006F00030E70D784086037841A6037840762E0ACD
:10070000E515600AE51504FB2513F5138005300B8C
:10071000020513783F8603E4BB2D0104FB7006201D
:10072000060330070205133004030207E1300557C2
:10073000EB600C75822DC002120611D002801C30B5
:10074000060C75822BC002120611D002800D3007F4
:100750000A758220C002120611D00278408604BCBD
:100760002E0C758230C002120611D0021514AC1482
:100770001514C3E5139C4003020825758230C0029E
:10078000120611D00280E7AC141514C3E5139C5077
:100790000C758220C002120611D00280EA783F86D2
:1007A00004BC2D0C75822DC002120611D002801CD3
:1007B00030060C75822BC002120611D002800D305B
:1007C000070A758220C002120611D0027840860402
:1007D000BC2E52758230C002120611D00215148050
:1007E00044EB600E75822DC002120611D002151462
:1007F000802030060E75822BC002120611D0021521
:1008000014800F30070C758220C002120611D0022E
:10081000151478408603BB2E0C758230C002120678
:1008200011D0021514751701C20DE517243FF88683
:1008300003BB45030208E2BB2E348A03C3E4648091
:100840008BF063F08095F0500F758230C003120674
:1008500011D0031B8B0280E48B02D20DE51570389A
:10086000200B030208E275822E1206118074300DEF
:10087000278A03EB30E71FC3E464808515F063F03B
:100880008095F0500C758230C003120611D003150C
:10089000150B8B0280DD8B02300D0EC3E464808566
:1008A00015F063F08095F05021E517243FF886039A
:1008B0008B82C002120611D002300D0EE517243FC4
:1008C000F88603BB2E02800215151514C3E464805C
:1008D0008515F063F08095F04003200D05051702A3
:1008E000082AC3E464808515F063F08095F0500A0F
:1008F000758230120611151580E830040FAA141500
:1009000014EA600875822012061180F122E5157044
:1009100003300B0D74072515FAE514C39AF51480FE
:1009200006E51424FAF514751700783F8602BA2BF1
:100930000F20060C783F7620200705751701051457
:10094000200419AA14C3E464808AF063F08095F04F
:10095000500A758220120611151480E7C20DE517A2
:10096000243FF88602BA00028069BA451F300002AF
:100970007665C3E464808515F063F08095F0500AD5
:10098000758230120611151580E8D20DC3E5179453
:1009900002E433FA7014EA700EC3E464808515F043
:1009A00063F08095F04003300D16E517243FF8867C
:1009B000028A82120611E51724FD50121515800EC9
:1009C0007402B51709300B0675822E120611051731
:1009D00002095E300419AA14C3E464808AF063F04B
:1009E0008095F0500A758220120611151480E722B6
:1009F00085820A85830BE4F511F512AA18AB19ACB0
:100A00001A8A828B838CF0120FB2FD74012AF518BA
:100A1000E43BF5198C1AEDFA7003020F96BA250221
:100A20008003020F8EC204C205C206C207C208C2FA
:100A300009C20AC20BC201C202C2037513007514B7
:100A4000007515FFAB18AC19AD1A8B828C838DF035
:100A5000120FB2FAA3AB82AC838B188C198D1ABA21
:100A600025078A8212061180928A06BE3000402E27
:100A70008A06EE24C6402774FFB51513E51475F0F9
:100A80000AA4FEEA24D02EF51470BFD20580BBE57F
:100A90001575F00AA4FEEA24D02EF51580ACBA2E06
:100AA0000A74FFB515A4751500809F8A06BE610003
:100AB000400E8A06EE248540075302DFD2008002F2
:100AC000C200BA20028075BA2303020B4BBA2A0374
:100AD000020B50BA2B02805FBA2D028055BA420237
:100AE000805FBA4303020B95BA4403020CD0BA45A7
:100AF00003020CEABA4603020CE6BA4703020CEE04
:100B0000BA4903020CD0BA4C02803BBA4E03020C25
:100B1000F2BA4F03020CD7BA5003020C69BA53035E
:100B2000020BB9BA5503020CDCBA5803020CE102FD
:100B30000D1CD204020A4AD206020A4AD207020A4D
:100B40004AD209020A4AD20A020A4AD20B020A4AC5
:100B500074FFB5152030090BE51B14F8881B8614AB
:100B6000020A4AE51B24FEF8881B86060886071839
:100B70008E14020A4A30090BE51B14F8881B8615EF
:100B8000020A4AE51B24FEF8881B86060886071819
:100B90008E15020A4A30090AE51B14F8881B8602E2
:100BA000800FE51B24FEF8881B8603088604188B3B
:100BB000028A82120611020D21E51B24FDF8881B12
:100BC000860308860408860518188B0C8C0D8D0E7C
:100BD0008B828C838DF0121106AB82AC838B1674E2
:100BE000FFB5150385161520041DC3E51695145091
:100BF00016E514C39516F514AB141514EB600875BF
:100C0000822012061180F1850C82850D83850EF0FD
:100C1000120FB2FBFA6029AB151515C3E464808B83
:100C2000F063F08095F050188A82120611AB0CAC7C
:100C30000DAD0E0BBB00010C8B0C8C0D8D0E80C707
:100C4000200403020D21C3E51695144003020D2173
:100C5000E514C39516F514AB141514EB7003020DCF
:100C60002175822012061180EEE51B24FDF8881BF9
:100C7000860308860408860518188B0C8C0D8D0ECB
:100C8000E50EFB30E7047A438013EB546060047A8E
:100C900050800AEB30E6047A4980027A588A82C092
:100CA0000212061175823A1206117582301206116F
:100CB000758278120611D002BA4902800BBA50022E
:100CC0008006850D82120644850C821206448051EE
:100CD000D20875130A804A751308804575130A8077
:100CE00040751310803BD2018037D2028033D2038B
:100CF000802FE51B24FDF8881B86030886040886E0
:100D00000518188B0C8C0D8D0E8B828C838DF0E565
:100D1000111210EDA3E5121210ED80058A82120661
:100D200011200106200203300370E51B24FCF88823
:100D30001B86030886040886050886061818188B83
:100D40000C8C0D8D0E8E0FE50CE50DE50EE50F8B71
:100D5000828C838DF0EE120FCE74FFB515037515DE
:100D600006300327747F550FFB8B10E510EB2BFB30
:100D70008B10E50E30E70674014510F510E51024E0
:100D8000684006749925104002D20230020612090A
:100D90000D0209FB12069A0209FBE5137003020912
:100DA000FB7B4430092BE51B14F8881BE6FC3395CC
:100DB000E0FDFEFF8C0C8D0D8E0E8F0F20085EACBB
:100DC0000C7D007E007F008C0C8D0D8E0E8F0F80B1
:100DD0004C300A1FE51B24FCF8881B860408860596
:100DE0000886060886071818188C0C8D0D8E0E8F35
:100DF0000F802AE51B24FEF8881B86040886051848
:100E0000ED3395E0FEFF8C0C8D0D8E0E8F0F2008BC
:100E10000CAC0CAD0D7E007F008E0E8F0F300B439F
:100E2000E50C450D450E450F60397408B5130C757A
:100E30008230C003120611D00380287410B513232A
:100E4000758230C003120611D00330000C75827811
:100E5000C003120611D003800A758258C00312061F
:100E600011D003300825AC0CAD0DAE0EE50FFF30F0
:100E7000E717C3E49CFCE49DFDE49EFEE49FFF8C29
:100E80000C8D0D8E0E8F0F8002C208751600D20CCD
:100E90008B00751000C00012065BD000200C0DE521
:100EA00010C4FCE6FD4CF61888038002A610051657
:100EB000B20CE50C450D450E450F70D68803E514C0
:100EC000700375140120051A200417E51604FCC3ED
:100ED0009514500E758220C003120611D00315140C
:100EE00080E930080E75822DC003120611D003155B
:100EF000148024E516602030060E75822BC0031284
:100F00000611D0031514800F30070C758220C00322
:100F1000120611D003151420041EAC141514C3E5D9
:100F2000169C50273005047C3080027C208C82C0C7
:100F300003120611D00380E2C3E51695145009E5AB
:100F400014C39516F51480037514008B00AB1615A9
:100F500016EB6022B20C200C0A08E6C4540FFB8B7F
:100F60001080078603740F5BF510851082C0001295
:100F7000062BD00080D72004030209FBAB14151404
:100F8000EB70030209FB75822012061180EE8A8243
:100F90001206110209FB85118285128322AA82BAE8
:100FA0000A0810990280FB75990D10990280FB8A3E
:100FB000992220F71430F6148883A88220F507E6DA
:100FC000A88375830022E280F7E49322E022C0E048
:100FD000F84582458345F07009F5F0FBFCFDFE0203
:100FE000109CE823A2F792E0F8A982AA83D2F7AB7B
:100FF000F07C007E07C3749798404074FF2EFE7407
:101000000A89F0A4F985F082740A8AF0A4FA85F0BE
:1010100083740A8BF0A4FB740529F9EA3582FAEB94
:101020003583FB740035F0FCC3EC13FCEB13FBEAD7
:1010300013FAE913F908EC70EF80BAE8C3947FF86B
:101040008B838EF0E4FBFCFDFEFF08C3E933F9EA75
:1010500033FAE58333F583EB3BD4FBEC3CD4FCED76
:101060003DD4FDEE3ED4FEEF3FD4FF602D05F0747D
:10107000052BD4FBE43CD4FCE43DD4FDE43ED4FE9B
:10108000E43FD4FF758204C3EF13FFEE13FEED13AC
:10109000FDEC13FCEB13FBD582EDD8AF783FD0E02D
:1010A00020E704762B8002762D087906E7C4540FDA
:1010B0004430F608B90603762E08E7540F4430F69C
:1010C0000819B902E7764508E5F020E704762B8099
:1010D00004762DF4040875F00A844430F608E5F02F
:1010E0004430F608E4F690003F75F0402220F710F7
:1010F00030F6118883A88220F507F6A8837583004F
:1011000022F280F7F022AA82AB83ACF07D007E0051
:101110008A828B838CF0120FB2FFA3AA82AB83EF7B
:1011200060070DBD00EA0E80E78D828E83220000ED
:00000001FF
