:1000000002000375817D12015CE582600302006FCE
:10001000780079007A007B007C007D00EC4D601C4C
:1000200088828983E493A3A882A9838A828B83F040
:10003000A3AA82AB831CBCFFE31D80E07582007520
:1000400083007C007D00EC4D600AE4F0A31CBCFF43
:10005000F51D80F27582007583007C007D00EC4DFB
:10006000600AE4F0A31CBCFFF51D80F212012B1204
:10007000045E80FE1B5B324A00414443207465737A
:10008000742070726F6772616D0A46696C653A2000
:1000900025730A436F6D70696C65643A2025732C73
:1000A0002025730A0A00736F75726365636F646558
:1000B0002E63004D61722020372032303234003000
:1000C000323A30323A323900463A5858487A20208B
:1000D00050483A2E585858200056523A582E5858E0
:1000E000202056543A582E585800543D25666D73BA
:1000F0002C2050686173653A2025662C2076315F8C
:10010000526D733A25662C2076325F526D733A2514
:10011000660D002D00200025322E30660025312E80
:1001200032660025336600487A2000752300752466
:1001300000752500752600752700752800752900B3
:10014000752A00752B00752C00752D00752E007515
:100150002F007530007531007532002275A70075CB
:1001600097DE7597AD75FF8075EF0675A71075C1A1
:100170002075A70075A90075A900E5A930E7FB75F2
:10018000A90375A903E5A930E7FB43A41075E101B4
:1001900075E20075E340759810758DE6858D8B537B
:1001A000890F438920D28ED2997582002275A700CB
:1001B000C2EF75B28075BC2075B91E75E80075DF99
:1001C0003F75B300D2EF22AA82438E407592B87574
:1001D00093FF8592948593957591047B00C3EB9A68
:1001E000500BE59130E7FB53917F0B80F075910048
:1001F00022AA82AB837C007D00C3EC9AED9B502B3E
:100200007E00BE0400501D7582FAC002C003C00407
:10021000C005C0061201C7D006D005D004D003D057
:10022000020E80DE0CBC00D10D80CE22AA82851188
:10023000F005F07401800225E0D5F0FBFB75A720E6
:10024000BA0002800ABA0102800FBA021E8014EBC3
:10025000F4FA52F1EB42D48012EBF4FA52F2EB4290
:10026000D58008EBF4FA52F3EB42CC75A700228557
:1002700082BBC2EDD2EC30EDFD85BD8285BE83220E
:1002800012026F120C1EAA82AB83ACF0FDC002C03A
:1002900003C004C00590923A75F0537440120C5A92
:1002A000AA82AB83ACF0FDE58124FCF581E4C0E0DB
:1002B00074FCC0E0747FC0E07446C0E08A828B8327
:1002C0008CF0ED120E4FAA82AB83ACF0FDE58124D9
:1002D000FCF5818A828B838CF0ED225389F043896F
:1002E00001C28C22D2A07582281201C7C2A022AA04
:1002F000828AE0A2E79290A2E69291A2E59292A26F
:10030000E49293C0021202E47582281201C7D0025F
:100310008AE0A2E39290A2E29291A2E19292A2E0FC
:1003200092930202E4AA82D2978A821202EF90008C
:10033000020201F1AA82C2978A821202EF9000059E
:100340000201F1C2A09000141201F1758233120370
:100350003475823312033475823212033475822865
:1003600012033475820C1203347582011203349027
:1003700000140201F1AA82AB83ACF07402B533041D
:100380007DC080027D808D82C002C003C004120344
:10039000349000051201F1D004D003D0027D007E1C
:1003A00000ED2AFFEE3BF88C018F82888389F012E2
:1003B0000C02FF60208F82C002C003C004C005C0D1
:1003C00006120325D006D005D004D003D0020DBDFF
:1003D00000CF0E80CC3000248D028E03C3EA94102F
:1003E000EB648094805015758220C002C003120314
:1003F00025D003D0020ABA00E30B80E022AA82AB28
:1004000083ACF07402B5340774C04535FD800574C3
:10041000804535FD8D82C002C003C004120334D074
:1004200004D003D0027D007E00ED2AFFEE3BF88C65
:10043000018F82888389F0120C02FF60208F82C0B6
:1004400002C003C004C005C006120325D006D005B3
:10045000D004D003D0020DBD00CF0E80CC221202FA
:10046000DB1203439001F41201F17474C0E07400D4
:10047000C0E07480C0E0120D76158115811581747D
:10048000BFC0E07400C0E07480C0E074B3C0E0742A
:1004900000C0E07480C0E074A6C0E07400C0E074E6
:1004A00080C0E07479C0E07400C0E07480C0E012E5
:1004B0000D76E58124F4F5817534017535009000E1
:1004C000C875F0801203FD7534027535009000D9AF
:1004D00075F0801203FD75110175820212022C75F0
:1004E000110275820212022C1201AD758A00758C00
:1004F00000C28D75220075820F120280AA82AB8322
:10050000ACF0FDE4C0E0C0E0C0E0C0E08A828B83D4
:100510008CF0ED120C2AAA82E58124FCF581EA70A8
:10052000D575820F120280AA82AB83ACF0FDEA4B34
:100530004C8DF0C2F745F060E8D28C75820F120244
:1005400080AA82AB83ACF0FDE4C0E0C0E0C0E0C0B4
:10055000E08A828B838CF0ED120C2AAA82E581243A
:10056000FCF581EA6009108D0280D0052280CC75EF
:10057000820F120280AA82AB83ACF0FDE4C0E0C01F
:10058000E0C0E0C0E08A828B838CF0ED120C2AAAD6
:1005900082E58124FCF581EA6009108D0280D00596
:1005A0002280CCC28C852282120CFDAA82AB83AC45
:1005B000F0FDC002C003C004C00590000075F080CB
:1005C0007447120C5AAA82AB83ACF0FDE58124FC7F
:1005D000F581858C82C002C003C004C005120CFDE9
:1005E000AE82AF83A8F0F9C006C007C000C001907A
:1005F000000075F0807443120C5AAE82AF83A8F0ED
:10060000F9E58124FCF581D005D004D003D002C0E7
:1006100006C007C000C0018A828B838CF0ED120DEA
:1006200008AA82AB83ACF0FDE58124FCF581AE8A9B
:100630007F008E828F83C002C003C004C005120EEB
:1006400042AE82AF83A8F0F9D005D004D003D00227
:10065000C006C007C000C0018A828B838CF0ED12F7
:100660000D08AA82AB83ACF0FDE58124FCF581C0C6
:1006700002C003C004C00590F4FC75F0B2743412DB
:100680000C5A85823685833785F038F539E5812423
:10069000FCF581C036C037C038C03990000075F015
:1006A00080743F120E4F85823A85833B85F03CF57E
:1006B0003DE58124FCF58175820F120280AE82AF88
:1006C00083A8F0F9E4C0E0C0E0C0E0C0E08E828F13
:1006D0008388F0E9120C2AAE82E58124FCF581EED4
:1006E00070D575820F120280AE82AF83A8F0F9EE4A
:1006F0004F4889F0C2F745F060E8C036C037C038CF
:10070000C03990000075F07A7444120C5AAE82AF72
:1007100083A8F0F9E58124FCF581C006C007C0007C
:10072000C001E4C0E0C0E07480C0E07440C0E08E6E
:10073000828F8388F0E9120E4FAA82AB83ACF0FD62
:10074000E58124FCF5818A828B838CF0ED120E37D3
:100750008582568583571201F175820F120280AC93
:1007600082AD83AAF0FB742FC0E074E4C0E074B4DF
:10077000C0E0743FC0E08C828D838AF0EB120E4F94
:1007800085822385832485F025F526E58124FCF5E3
:1007900081D001D000D007D00675820EC006C007F8
:1007A000C000C001120280AA82AB83ACF0FDE4C09D
:1007B000E0C0E0C0E0C0E08A828B838CF0ED120CD8
:1007C0002AAA82E58124FCF581D001D000D007D08F
:1007D00006EA70C575820EC006C007C000C00112CF
:1007E0000280AA82AB83ACF0FDD001D000D007D04C
:1007F00006EA4B4C8DF0C2F745F060D885568285ED
:100800005783C006C007C000C0011201F175820EF7
:10081000120280AA82AB83ACF0FD742FC0E074E4B6
:10082000C0E074B4C0E0743FC0E08A828B838CF077
:10083000ED120E4F85822785832885F029F52AE55C
:100840008124FCF581D001D000D007D006C28C7580
:100850002200758C00758A00C28D75820FC006C09B
:1008600007C000C001120280AA82AB83ACF0FDD0A9
:1008700001D000D007D006EA4B4C8DF0C2F745F00E
:1008800070D875820FC006C007C000C00112028078
:10089000AA82AB83ACF0FDD001D000D007D006EA2D
:1008A0004B4C8DF0C2F745F060D8D28C75820EC0EB
:1008B00006C007C000C001120280AA82AB83ACF060
:1008C000FDD001D000D007D006EA4B4C8DF0C2F726
:1008D00045F06009108D0280D3052280CF75820E0D
:1008E000C006C007C000C001120280AA82AB83AC60
:1008F000F0FDD001D000D007D006EA4B4C8DF0C2FD
:10090000F745F07009108D0280D3052280CFC28C8C
:10091000852282C006C007C000C001120CFDAA8259
:10092000AB83ACF0FDC002C003C004C00590000062
:1009300075F0807447120C5A85825885835985F06A
:100940005AF55BE58124FCF581858C82120CFDAAA9
:1009500082AB83ACF0FDC002C003C004C0059000B0
:100960000075F0807443120C5AAA82AB83ACF0FD80
:10097000E58124FCF581C002C003C004C005855890
:1009800082855983855AF0E55B120D08858258856A
:10099000835985F05AF55BE58124FCF581AA8A7BB1
:1009A000008A828B83120E42AA82AB83ACF0FDC018
:1009B00002C003C004C005855882855983855AF05A
:1009C000E55B120D08AA82AB83ACF0FDE58124FC47
:1009D000F581C002C003C004C00590F4FC75F0327C
:1009E0007434120C5AAA82AB83ACF0FDE58124FC6E
:1009F000F581C002C003C004C00590000075F0B4CA
:100A00007443120C5AAA82AB83ACF0FDE58124FC3E
:100A1000F581C036C037C038C0398A828B838CF0EC
:100A2000ED120E4FAA82AB83ACF0FDE58124FCF5FC
:100A300081D001D000D007D006C002C003C004C0DE
:100A400005C027C028C029C02AC023C024C025C093
:100A500026C002C003C004C005C006C007C000C055
:100A60000174EAC0E07400C0E07480C0E0120D764A
:100A7000E58124EDF581D005D004D003D002C00279
:100A8000C003C004C005E4C0E0C0E07434C0E0743A
:100A900043C0E08A828B838CF0ED120C2AAE82E593
:100AA0008124FCF581D005D004D003D002EE604152
:100AB000C002C003C004C00590000075F0B47443C8
:100AC000120E2CAA82AB83ACF0FDE58124FCF581EB
:100AD00075340175350B90011375F080C002C003A9
:100AE000C004C0051203FDD005D004D003D002809D
:100AF0001F75340175350B90011575F080C002C06B
:100B000003C004C0051203FDD005D004D003D002F9
:100B1000C002C003C004C005C03AC03BC03CC03DD9
:100B20007417C0E07401C0E07480C0E0743EC0E09F
:100B30007400C0E07440C0E0120DE6E58124F6F5D3
:100B400081C023C024C025C026741DC0E07401C02C
:100B5000E07480C0E07444C0E07400C0E07440C041
:100B6000E0120DE6E58124F6F581C027C028C029F2
:100B7000C02A741DC0E07401C0E07480C0E0744AF3
:100B8000C0E07400C0E07440C0E0120DE6E58124CE
:100B9000F6F5817423C0E07401C0E07480C0E07495
:100BA00050C0E07400C0E07440C0E0120DE6E58182
:100BB00024F6F58175340175350290003E75F040DC
:100BC0001203FD75340175350C90005075F040121C
:100BD00003FD75340275350390004475F04012032F
:100BE000FD75340275350C90004A75F0401203FD16
:100BF00075340175350490012775F0801203FD02EC
:100C000004EB20F71430F6148883A88220F507E659
:100C1000A88375830022E280F7E49322E022E4AC0B
:100C200083AB82FAF9748E020F77FFA8811818122D
:100C30000F9FD2D133E6400730E70B7582012220A7
:100C4000E70675820022C2D1120F81E97003F58296
:100C50002230D101B3E433F5822212104CBC0003E0
:100C6000020FEBEF60FA30D502B2D1E583B4FF0397
:100C7000021001E582B4FF0302100125834007241E
:100C800082400B020FEB2483145003021001F58203
:100C9000EA8DF0A4A8F0EA8EF0A428F8E435F0F983
:100CA000EB8DF0A428E935F0F9E433CA8FF0A429DC
:100CB000F9EA35F0FAEBF88EF0A429F9EA35F0FA02
:100CC000E433FBEC8DF0A429F9EA35F0FAE43BFBC0
:100CD000E88FF0A42AFAEB35F0FBE433CCFD8EF07C
:100CE000A42AFAEB35F0FBE43CFCED8FF0A42BFBDF
:100CF000EC35F0FC20E703121019020FCAE4AC82B5
:100D0000FBFAF97486020F7712104C7900E583B56F
:100D10008202800D500312107AE583C3958212106F
:100D200094E5D0C465D020E117EA2DFAEB3EFBEC48
:100D30003FFC50097401121094EC4480FC020FCA6D
:100D4000C3EA9DFAEB9EFBEC9FFC500FC3E499F9BC
:100D5000E49AFAE49BFBE49CFCB2D1121019020F56
:100D6000CA021A6385826A85836B85F06C85106D73
:100D7000900D610214B6C008858108E50824FBF5D2
:100D80006DE50824FBF8866A08866B08866C900D72
:100D9000611214B6D00822AA82AB09AC0AAD0B8B43
:100DA000828C838DF0EA121A780509E4B5090205F0
:100DB0000A2285820985830A85F00B850C6A850DD8
:100DC0006B850E6C850F6D900D971214B6AA82ABD1
:100DD00083AC09AD0AAE0B8C828D838EF0E4121ABF
:100DE000788A828B8322C008858108E50824F8F57B
:100DF0006DE50824FBF8860908860A08860BE508D5
:100E000024F8F8866A08866B08866C900D97121491
:100E1000B6AA82AB83AC09AD0AAE0B8C828D838EF1
:100E2000F0E4121A788A828B83D00822A8811818DD
:100E3000C6B2E7C6020D087F8E121A93F58385F0BD
:100E40008222AC83AB827A007900748E021AC112BE
:100E5000104C30D502B2D1BF0009BC000302100E05
:100E6000021001BC0003020FEBE583B4FF0BE58227
:100E7000B4FF0302100E020FEBE582B4FF03021071
:100E800001C395835007247F400B020FEB2480148D
:100E90005003021001C0E0E4CCCBCAF98D118E12D0
:100EA0008F13EF54F0C4F5147583068514F0EB84AA
:100EB000F582E9C4F9EAC4FAEBC4FBEC540FC47838
:100EC00003D6FC18EBD6FB18EAD6FA8582F0EDA41F
:100ED000A8F0FD8582F0EEA428FEE435F0F88582C6
:100EE000F0EFA428FFE435F0F8E99DF9EA9EFAEB6B
:100EF0009FFBEC98FCAD11AE12AF1330E7101582DA
:100F0000E92DF9EA3EFAEB3FFBE43CFC80EDC082C0
:100F1000D58398C3E933F9EA33FAEB33FBEC33FCBE
:100F2000C3E99DEA9EEB9FEC9400B3E413F9D00271
:100F3000D0E0C44AFAD003D0E0C44BFBD004D0E0E8
:100F4000F5F0540FC44CFCD082158230F40FD3EC72
:100F500013FCEB13FBEA13FAE913F90582E930E716
:100F60000A74012AFAE43BFBE43CFC020FE2FCAB0E
:100F7000F0AA83A982749EC2D1F582121019020FC1
:100F8000CA7901AA82E68F82B5821318E6B5F00EFF
:100F900018E6B5830918E68A82B58202790022B480
:100FA000800FE5F0700AE5837006E58270027F002D
:100FB000EFB6801518B6001018B6000B18B600066C
:100FC00008080876002208080822B98003EA13B34B
:100FD0004010EA2401FAE43BFBE43CFC50047C8032
:100FE0000582BC000EBB000BBA0008E4F5F0F583E7
:100FF000F58222A2D1E582138CF092F78B838A824C
:1010000022E4F583F58275F080F4A2D11322E4F591
:1010100083F58275F0C0747F227804EC7011E5824C
:1010200024F8500AF582E4C9CACBFCD8EF22EC7848
:1010300020058220E713D5820122C3E933F9EA3380
:10104000FAEB33FBEC33FCD8EA158222AA82AB839D
:10105000A2F73392D16002D2F7F582ACF0E5812499
:10106000F9F8E6FD08E6FE0886F008E6A2F73392F6
:10107000D56002D2F7F583AFF022E582C583F58211
:10108000A2D133A2D592D11392D5ECCFFCEBCEFBFB
:10109000EACDFA226040F82582500274FFF582E81A
:1010A00024F8501ECCCBCAF9E4CC24F85014CBCA97
:1010B000F9E4CB24F8500BCAF9E4CA24F8500379B8
:1010C000002224086010F8C3EC13FCEB13FBEA13B6
:1010D000FAE913F9D8F122AA8274E8C0E07410C0CA
:1010E000E0C05CC05D8A82220563E4B563020564EA
:1010F00022AA8274302AFA24C6500A74072AFA30C7
:1011000001034302208A820210D7E582FAC4540FF9
:10111000F582C0021210F1D002740F5AF58202104B
:10112000F1AA5EAB5FAC60AD61AE62756920EE2E78
:10113000FEED235401FF4206EA2AFAEB33FBEC33BF
:10114000FCED33FDC3EE95654008EEC39565FE43A7
:101150000201D569D98A5E8B5F8C608D618E6222B7
:10116000787AE624D075F00AA4FA787BE624D02AAF
:10117000FA78798603BB2D04C3E49AFA756501C336
:10118000E464808AF063F08095F050297569038AE1
:101190000374F62569401C0565E56914246EF8E5BD
:1011A00069246EF98704A604772E1BEBFA60040508
:1011B0006980DE8B02EA30E70D786F86037870A6CF
:1011C00003786F762E0AE567600AE56704FB2565FC
:1011D000F5658005300C020565786E8603E4BB2D4D
:1011E0000104FB7006200703300802056530050383
:1011F0000212A7300657EB600C75822DC002121048
:10120000D7D002801C30070C75822BC0021210D779
:10121000D002800D30080A758220C0021210D7D08B
:1012200002786F8604BC2E0C758230C0021210D773
:10123000D0021566AC661566C3E5659C40030212D4
:10124000EB758230C0021210D7D00280E7AC661571
:1012500066C3E5659C500C758220C0021210D7D081
:101260000280EA786E8604BC2D0C75822DC00212B5
:1012700010D7D002801C30070C75822BC0021210D0
:10128000D7D002800D30080A758220C0021210D714
:10129000D002786F8604BC2E52758230C0021210C4
:1012A000D7D00215668044EB600E75822DC0021205
:1012B00010D7D0021566802030070E75822BC00231
:1012C0001210D7D0021566800F30080C758220C02E
:1012D000021210D7D0021566786F8603BB2E0C75EC
:1012E0008230C0021210D7D0021566756901C20E95
:1012F000E569246EF88603BB45030213A8BB2E34B0
:101300008A03C3E464808BF063F08095F0500F751E
:101310008230C0031210D7D0031B8B0280E48B02F3
:10132000D20EE5677038200C030213A875822E12C6
:1013300010D78074300E278A03EB30E71FC3E464B4
:10134000808567F063F08095F0500C758230C003A3
:101350001210D7D00315670B8B0280DD8B02300E85
:101360000EC3E464808567F063F08095F05021E55A
:1013700069246EF886038B82C0021210D7D0023027
:101380000E0EE569246EF88603BB2E0280021567F7
:101390001566C3E464808567F063F08095F04003D0
:1013A000200E0505690212F0C3E464808567F063CE
:1013B000F08095F0500A7582301210D7156780E8DA
:1013C00030050FAA661566EA60087582201210D7EC
:1013D00080F122E5677003300C0D74072567FAE58C
:1013E00066C39AF5668006E56624FAF566756900B7
:1013F000786E8602BA2B0F20070C786E76202008B4
:10140000057569010566200519AA66C3E464808A2A
:10141000F063F08095F0500A7582201210D715669F
:1014200080E7C20EE569246EF88602BA0002806980
:10143000BA451F3001027665C3E464808567F063B6
:10144000F08095F0500A7582301210D7156780E849
:10145000D20EC3E5699402E433FA7014EA700EC345
:10146000E464808567F063F08095F04003300E16E9
:10147000E569246EF886028A821210D7E56924FD98
:1014800050121567800E7402B56909300C0675821A
:101490002E1210D70569021424300519AA66C3E478
:1014A00064808AF063F08095F0500A7582201210F3
:1014B000D7156680E72285825C85835DE4F563F558
:1014C00064AA6AAB6BAC6C8A828B838CF0120C02C0
:1014D000FD74012AF56AE43BF56B8C6CEDFA700340
:1014E000021A5CBA25028003021A54C205C206C25F
:1014F00007C208C209C20AC20BC20CC202C203C29E
:10150000047565007566007567FFAB6AAC6BAD6C02
:101510008B828C838DF0120C02FAA3AB82AC838B8E
:101520006A8C6B8D6CBA25078A821210D780928ADA
:1015300006BE3000402E8A06EE24C6402774FFB552
:101540006713E56675F00AA4FEEA24D02EF56670EE
:10155000BFD20680BBE56775F00AA4FEEA24D02E50
:10156000F56780ACBA2E0A74FFB567A47567008072
:101570009F8A06BE6100400E8A06EE24854007530E
:1015800002DFD2018002C201BA20028075BA2303B1
:10159000021611BA2A03021616BA2B02805FBA2D60
:1015A000028055BA4202805FBA430302165BBA4416
:1015B00003021796BA45030217B0BA46030217ACE6
:1015C000BA47030217B4BA4903021796BA4C02800D
:1015D0003BBA4E030217B8BA4F0302179DBA500325
:1015E00002172FBA530302167FBA55030217A2BA85
:1015F00058030217A70217E2D205021510D20702FC
:101600001510D208021510D20A021510D20B0215BD
:1016100010D20C02151074FFB56720300A0BE56D6F
:1016200014F8886D8666021510E56D24FEF8886D45
:101630008606088607188E66021510300A0BE56DBF
:1016400014F8886D8667021510E56D24FEF8886D24
:101650008606088607188E67021510300A0AE56D9F
:1016600014F8886D8602800FE56D24FEF8886D867B
:1016700003088604188B028A821210D70217E7E546
:101680006D24FDF8886D8603088604088605181801
:101690008B5E8C5F8D608B828C838DF0121C04AB13
:1016A00082AC838B6874FFB5670385686720051D6E
:1016B000C3E56895665016E566C39568F566AB6642
:1016C0001566EB60087582201210D780F1855E8266
:1016D000855F838560F0120C02FBFA6029AB671509
:1016E00067C3E464808BF063F08095F050188A82C1
:1016F0001210D7AB5EAC5FAD600BBB00010C8B5E14
:101700008C5F8D6080C72005030217E7C3E56895ED
:101710006640030217E7E566C39568F566AB661594
:1017200066EB70030217E77582201210D780EEE592
:101730006D24FDF8886D8603088604088605181850
:101740008B5E8C5F8D60E560FB30E7047A4380132D
:10175000EB546060047A50800AEB30E6047A4980EA
:10176000027A588A82C0021210D775823A1210D7B4
:101770007582301210D77582781210D7D002BA490C
:1017800002800BBA50028006855F8212110A855EC4
:101790008212110A8051D20975650A804A7565085E
:1017A000804575650A8040756510803BD2028037A0
:1017B000D2038033D204802FE56D24FDF8886D8636
:1017C0000308860408860518188B5E8C5F8D608B75
:1017D000828C838DF0E563121A78A3E564121A787F
:1017E00080058A821210D72002062003033004707D
:1017F000E56D24FCF8886D860308860408860508D4
:1018000086061818188B5E8C5F8D608E61E55EE52C
:101810005FE560E5618B828C838DF0EE121AE574D2
:10182000FFB56703756706300427747F5561FB8B2E
:1018300062E562EB2BFB8B62E56030E706740145E5
:1018400062F562E56224684006749925624002D21E
:10185000033003061213D30214C11211600214C123
:10186000E56570030214C17B73300A2BE56D14F833
:10187000886DE6FC3395E0FDFEFF8C5E8D5F8E602B
:101880008F6120095EAC5E7D007E007F008C5E8DE6
:101890005F8E608F61804C300B1FE56D24FCF888F3
:1018A0006D86040886050886060886071818188CB1
:1018B0005E8D5F8E608F61802AE56D24FEF8886DF5
:1018C000860408860518ED3395E0FEFF8C5E8D5F7B
:1018D0008E608F6120090CAC5EAD5F7E007F008E54
:1018E000608F61300C43E55E455F4560456160395E
:1018F0007408B5650C758230C0031210D7D0038010
:10190000287410B56523758230C0031210D7D00338
:1019100030010C758278C0031210D7D003800A758D
:101920008258C0031210D7D003300925AC5EAD5FDA
:10193000AE60E561FF30E717C3E49CFCE49DFDE485
:101940009EFEE49FFF8C5E8D5F8E608F618002C281
:1019500009756800D20D8B00756200C0001211215C
:10196000D000200D0DE562C4FCE6FD4CF61888039E
:101970008002A6620568B20DE55E455F456045617F
:1019800070D68803E566700375660120061A200587
:1019900017E56804FCC39566500E758220C00312DB
:1019A00010D7D003156680E930090E75822DC0036B
:1019B0001210D7D00315668024E568602030070E2A
:1019C00075822BC0031210D7D0031566800F300824
:1019D0000C758220C0031210D7D003156620051E97
:1019E000AC661566C3E5689C50273006047C3080E1
:1019F000027C208C82C0031210D7D00380E2C3E5A2
:101A00006895665009E566C39568F5668003756656
:101A1000008B00AB681568EB6022B20D200D0A0840
:101A2000E6C4540FFB8B6280078603740F5BF5627C
:101A3000856282C0001210F1D00080D72005030219
:101A400014C1AB661566EB70030214C175822012D7
:101A500010D780EE8A821210D70214C18563828566
:101A6000648322AA82BA0A0810990280FB75990D34
:101A700010990280FB8A992220F71030F611888392
:101A8000A88220F507F6A88375830022F280F7F07C
:101A9000227F9E121C2C30D103020FEBC3EF9582E4
:101AA000500974FFF5F0F583F58222790012109445
:101AB00089828A838BF0EC22FCABF0AA83A9827422
:101AC0009EF582C2D1EC30E716D2D1E9F42401F9B7
:101AD000EAF43400FAEBF43400FBECF43400FC12CA
:101AE0001019020FCAC0E0F84582458345F070091D
:101AF000F5F0FBFCFDFE021BB3E823A2F792E0F831
:101B0000A982AA83D2F7ABF07C007E07C3749798B2
:101B1000404074FF2EFE740A89F0A4F985F08274A7
:101B20000A8AF0A4FA85F083740A8BF0A4FB74058A
:101B300029F9EA3582FAEB3583FB740035F0FCC3F2
:101B4000EC13FCEB13FBEA13FAE913F908EC70EF62
:101B500080BAE8C3947FF88B838EF0E4FBFCFDFE33
:101B6000FF08C3E933F9EA33FAE58333F583EB3B46
:101B7000D4FBEC3CD4FCED3DD4FDEE3ED4FEEF3F77
:101B8000D4FF602D05F074052BD4FBE43CD4FCE4B9
:101B90003DD4FDE43ED4FEE43FD4FF758204C3EFA0
:101BA00013FFEE13FEED13FDEC13FCEB13FBD582DC
:101BB000EDD8AF786ED0E020E704762B8002762D4A
:101BC000087906E7C4540F4430F608B90603762EA8
:101BD00008E7540F4430F60819B902E7764508E5DE
:101BE000F020E704762B8004762DF4040875F00AC3
:101BF000844430F608E5F04430F608E4F690006ED0
:101C000075F04022AA82AB83ACF07D007E008A8210
:101C10008B838CF0120C02FFA3AA82AB83EF6007C8
:101C20000DBD00EA0E80E78D828E8322AA82AB83EF
:101C3000A2F73392D16002D2F7F582ACF022000015
:00000001FF
