:1000000002000375816412015FE582600302006FE4
:10001000780079007A007B007C007D00EC4D601C4C
:1000200088828983E493A3A882A9838A828B83F040
:10003000A3AA82AB831CBCFFE31D80E07582007520
:1000400083007C007D00EC4D600AE4F0A31CBCFF43
:10005000F51D80F27582007583007C007D00EC4DFB
:10006000600AE4F0A31CBCFFF51D80F21201161219
:1000700002E780FE1B5B324A0041444320746573F3
:10008000742070726F6772616D0A46696C653A2000
:1000900025730A436F6D70696C65643A2025732C73
:1000A0002025730A0A00736F75726365636F646558
:1000B0002E63004D61722020342032303234003201
:1000C000303A31343A3436004D617820416D702039
:1000D0004070322E313D25372E3566562C204D612D
:1000E0007820416D70204070322E323D25372E35FC
:1000F00066562C00564050322E313D25372E35663F
:10010000562C20564050322E323D25372E3566561D
:10011000001B5B304B00753D00753E00753F007560
:1001200040007541007542007543007544007545F7
:1001300000754600754700754800754900754A000E
:10014000754B00754C00754D00754E00754F007570
:10015000500075510075520075530075540022759A
:10016000A7007597DE7597AD75FF8075EF0675A7CB
:100170001075C12075A70075A90075A900E5A93003
:10018000E7FB75A90375A903E5A930E7FB43A410B4
:1001900075E10175E20075E340759810758DE6858F
:1001A0008D8B53890F438920D28ED299758200227C
:1001B00075A700C2EF75B28075BC2075B91E75E8D1
:1001C0000075DF3F75B300D2EF22AA82438E4075DF
:1001D00092B87593FF8592948593957591047B00F1
:1001E000C3EB9A500BE59130E7FB53917F0B80F006
:1001F00075910022AA82AB837C007D00C3EC9AED4E
:100200009B502B7E00BE0400501D7582FAC002C0B8
:1002100003C004C005C0061201CAD006D005D00430
:10022000D003D0020E80DE0CBC00D10D80CE22AAFD
:1002300082851CF005F07401800225E0D5F0FBFBFF
:1002400075A720BA0002800ABA0102800FBA021E06
:100250008014EBF4FA52F1EB42D48012EBF4FA5230
:10026000F2EB42D58008EBF4FA52F3EB42CC75A7DF
:1002700000228582BBC2EDD2EC30EDFD85BD8285CA
:10028000BE83221202721204D4AA82AB83ACF0FDA8
:10029000C002C003C004C00590333375F0537440EE
:1002A000120510AA82AB83ACF0FDE58124FCF58138
:1002B000E4C0E074FCC0E0747FC0E07446C0E08A33
:1002C000828B838CF0ED1205E9AA82AB83ACF0FD42
:1002D000E58124FCF5818A828B838CF0ED225389A1
:1002E000F0438905C28C221202DE9001F41201F45F
:1002F0007474C0E07400C0E07480C0E01205C815DA
:10030000811581158174BFC0E07400C0E07480C0A5
:10031000E074B3C0E07400C0E07480C0E074A6C0B4
:10032000E07400C0E07480C0E07479C0E07400C084
:10033000E07480C0E01205C8E58124F4F581751CE5
:100340000175820212022F751C0275820212022FA1
:100350001201B0C28C758901758C00758A002090DD
:10036000FD3090FDD28C2090FDC28CAB8C7A00AC1D
:100370008A7D00EC2AFAED3BCA25E0CA33CA25E0A3
:10038000CA33FB8A29EBF52A3395E0F52BF52CC30C
:10039000E523940AE524940040187545007546004D
:1003A000754700754800754900754A00754B007522
:1003B0004C0075820E12028385824D85834E85F036
:1003C0004FF55075820E120283AA82AB83ACF0FD0A
:1003D000C03DC03EC03FC0408A828B838CF0ED128E
:1003E00004E0AA82E58124FCF581EA600C854D4594
:1003F000854E46854F4785504875820F120283858A
:10040000825185835285F053F55475820F12028311
:10041000AA82AB83ACF0FDC041C042C043C0448A55
:10042000828B838CF0ED1204E0AA82E58124FCF536
:1004300081EA600C85514985524A85534B85544C5D
:10044000C049C04AC04BC04CC045C046C047C04868
:1004500074C8C0E07400C0E07480C0E01205C8E554
:100460008124F5F58175820E120283AA82AB83ACDA
:10047000F0FD8A2D8B2E8C2F8D3075820F1202830A
:10048000AA82AB83ACF0FD8A318B328C338D34C0C1
:1004900031C032C033C034C02DC02EC02FC0307424
:1004A000F4C0E07400C0E07480C0E01205C8E581CB
:1004B00024F5F5817411C0E07401C0E07480C0E0DF
:1004C0001205C81581158115810523E4B5230205A0
:1004D00024020353E4AC83AB82FAF9748E02071151
:1004E000FFA8811818120739D2D133E6400730E748
:1004F0000B7582002220E70675820122C2D1120705
:100500001BE97003F5822220D101B3E433F5822286
:100510001207E6BC0003020785EF60FA30D502B28D
:10052000D1E583B4FF0302079BE582B4FF03020712
:100530009B258340072482400B02078524831450A7
:100540000302079BF582EA8DF0A4A8F0EA8EF0A4DE
:1005500028F8E435F0F9EB8DF0A428E935F0F9E45A
:1005600033CA8FF0A429F9EA35F0FAEBF88EF0A43B
:1005700029F9EA35F0FAE433FBEC8DF0A429F9EA25
:1005800035F0FAE43BFBE88FF0A42AFAEB35F0FBF8
:10059000E433CCFD8EF0A42AFAEB35F0FBE43CFC0E
:1005A000ED8FF0A42BFBEC35F0FC20E7031207B332
:1005B0000207640211A085821885831985F01A85C7
:1005C000091B9005B3020BF3C008858108E50824D8
:1005D000FBF51BE50824FBF8861808861908861A1F
:1005E0009005B3120BF3D008221207E630D502B201
:1005F000D1BF0009BC00030207A802079BBC00038F
:10060000020785E583B4FF0BE582B4FF030207A868
:10061000020785E582B4FF0302079BC39583500759
:10062000247F400B020785248014500302079BC0DF
:10063000E0E4CCCBCAF98D1C8E1D8F1EEF54F0C4A4
:10064000F51F758306851FF0EB84F582E9C4F9EA8E
:10065000C4FAEBC4FBEC540FC47803D6FC18EBD6F9
:10066000FB18EAD6FA8582F0EDA4A8F0FD8582F0A9
:10067000EEA428FEE435F0F88582F0EFA428FFE42C
:1006800035F0F8E99DF9EA9EFAEB9FFBEC98FCAD9A
:100690001CAE1DAF1E30E7101582E92DF9EA3EFAB7
:1006A000EB3FFBE43CFC80EDC082D58398C3E9338B
:1006B000F9EA33FAEB33FBEC33FCC3E99DEA9EEB3A
:1006C0009FEC9400B3E413F9D002D0E0C44AFAD00E
:1006D00003D0E0C44BFBD004D0E0F5F0540FC44C81
:1006E000FCD082158230F40FD3EC13FCEB13FBEA41
:1006F00013FAE913F90582E930E70A74012AFAE4EA
:100700003BFBE43CFC02077CFCABF0AA83A98274AF
:100710009EC2D1F5821207B30207647901AA82E66C
:100720008F82B5821318E6B5F00E18E6B583091866
:10073000E68A82B58202790022B4800FE5F0700A61
:10074000E5837006E58270027F00EFB6801518B66B
:10075000001018B6000B18B600060808087600222C
:1007600008080822B98003EA13B34010EA2401FA0A
:10077000E43BFBE43CFC50047C800582BC000EBBE7
:10078000000BBA0008E4F5F0F583F58222A2D1E56A
:1007900082138CF092F78B838A8222E4F583F582B0
:1007A00075F080F4A2D11322E4F583F58275F0C0D0
:1007B000747F227804EC7011E58224F8500AF582E7
:1007C000E4C9CACBFCD8EF22EC7820058220E713DD
:1007D000D5820122C3E933F9EA33FAEB33FBEC3378
:1007E000FCD8EA158222AA82AB83A2F73392D160A9
:1007F00002D2F7F582ACF0E58124F9F8E6FD08E6CF
:10080000FE0886F008E6A2F73392D56002D2F7F52B
:1008100083AFF022AA827425C0E07408C0E0C00A49
:10082000C00B8A82220511E4B51102051222AA82A8
:1008300074302AFA24C6500A74072AFA3000034397
:1008400002208A82020814E582FAC4540FF582C09D
:100850000212082ED002740F5AF58202082EAA0C3A
:10086000AB0DAC0EAD0FAE10751720EE2EFEED23C6
:100870005401FF4206EA2AFAEB33FBEC33FCED337A
:10088000FDC3EE95134008EEC39513FE430201D558
:1008900017D98A0C8B0D8C0E8D0F8E10227861E685
:1008A00024D075F00AA4FA7862E624D02AFA786097
:1008B0008603BB2D04C3E49AFA751301C3E4648074
:1008C0008AF063F08095F050297517038A0374F657
:1008D0002517401C0513E517142455F8E517245572
:1008E000F98704A604772E1BEBFA6004051780DE57
:1008F0008B02EA30E70D785686037857A6037856C0
:10090000762E0AE515600AE51504FB2513F513801C
:1009100005300B02051378558603E4BB2D0104FB5B
:10092000700620060330070205133004030209E4B1
:10093000300557EB600C75822DC002120814D002EE
:10094000801C30060C75822BC002120814D0028065
:100950000D30070A758220C002120814D0027856A2
:100960008604BC2E0C758230C002120814D0021509
:1009700014AC141514C3E5139C4003020A287582B5
:1009800030C002120814D00280E7AC141514C3E57D
:10099000139C500C758220C002120814D00280EA09
:1009A00078558604BC2D0C75822DC002120814D017
:1009B00002801C30060C75822BC002120814D00273
:1009C000800D30070A758220C002120814D0027808
:1009D000568604BC2E52758230C002120814D00212
:1009E00015148044EB600E75822DC002120814D0DD
:1009F000021514802030060E75822BC002120814D6
:100A0000D0021514800F30070C758220C002120826
:100A100014D002151478568603BB2E0C758230C094
:100A200002120814D0021514751701C20DE517241F
:100A300055F88603BB4503020AE5BB2E348A03C37F
:100A4000E464808BF063F08095F0500F758230C0C5
:100A500003120814D0031B8B0280E48B02D20DE535
:100A6000157038200B03020AE575822E12081480D7
:100A700074300D278A03EB30E71FC3E464808515CB
:100A8000F063F08095F0500C758230C003120814AA
:100A9000D00315150B8B0280DD8B02300D0EC3E4E5
:100AA00064808515F063F08095F05021E51724559A
:100AB000F886038B82C002120814D002300D0EE5B6
:100AC000172455F88603BB2E02800215151514C392
:100AD000E464808515F063F08095F04003200D05F7
:100AE0000517020A2DC3E464808515F063F0809534
:100AF000F0500A758230120814151580E830040F82
:100B0000AA141514EA600875822012081480F122D4
:100B1000E5157003300B0D74072515FAE514C39A1B
:100B2000F5148006E51424FAF51475170078558637
:100B300002BA2B0F20060C78557620200705751772
:100B4000010514200419AA14C3E464808AF063F038
:100B50008095F0500A758220120814151480E7C29F
:100B60000DE5172455F88602BA00028069BA451FC0
:100B70003000027665C3E464808515F063F08095EB
:100B8000F0500A758230120814151580E8D20DC392
:100B9000E5179402E433FA7014EA700EC3E464803B
:100BA0008515F063F08095F04003300D16E51724AD
:100BB00055F886028A82120814E51724FD50121592
:100BC00015800E7402B51709300B0675822E1208B7
:100BD000140517020B61300419AA14C3E464808A57
:100BE000F063F08095F0500A7582201208141514F5
:100BF00080E72285820A85830BE4F511F512AA1895
:100C0000AB19AC1A8A828B838CF01211B5FD74017A
:100C10002AF518E43BF5198C1AEDFA7003021199C4
:100C2000BA25028003021191C204C205C206C2079E
:100C3000C208C209C20AC20BC201C202C2037513B2
:100C4000007514007515FFAB18AC19AD1A8B828CAA
:100C5000838DF01211B5FAA3AB82AC838B188C197B
:100C60008D1ABA25078A8212081480928A06BE302D
:100C700000402E8A06EE24C6402774FFB51513E502
:100C80001475F00AA4FEEA24D02EF51470BFD20524
:100C900080BBE51575F00AA4FEEA24D02EF5158078
:100CA000ACBA2E0A74FFB515A4751500809F8A068C
:100CB000BE6100400E8A06EE248540075302DFD253
:100CC000008002C200BA20028075BA2303020D4ED2
:100CD000BA2A03020D53BA2B02805FBA2D02805547
:100CE000BA4202805FBA4303020D98BA4403020E6F
:100CF000D3BA4503020EEDBA4603020EE9BA470322
:100D0000020EF1BA4903020ED3BA4C02803BBA4E2E
:100D100003020EF5BA4F03020EDABA5003020E6C4C
:100D2000BA5303020DBCBA5503020EDFBA580302D0
:100D30000EE4020F1FD204020C4DD206020C4DD25B
:100D400007020C4DD209020C4DD20A020C4DD20BF7
:100D5000020C4D74FFB5152030090BE51B14F88803
:100D60001B8614020C4DE51B24FEF8881B86060822
:100D70008607188E14020C4D30090BE51B14F888F9
:100D80001B8615020C4DE51B24FEF8881B86060801
:100D90008607188E15020C4D30090AE51B14F888D9
:100DA0001B8602800FE51B24FEF8881B860308863D
:100DB00004188B028A82120814020F24E51B24FDFA
:100DC000F8881B860308860408860518188B0C8C87
:100DD0000D8D0E8B828C838DF0121309AB82AC8348
:100DE0008B1674FFB5150385161520041DC3E51673
:100DF00095145016E514C39516F514AB141514EBA1
:100E0000600875822012081480F1850C82850D839C
:100E1000850EF01211B5FBFA6029AB151515C3E468
:100E200064808BF063F08095F050188A8212081469
:100E3000AB0CAC0DAD0E0BBB00010C8B0C8C0D8DF7
:100E40000E80C7200403020F24C3E5169514400347
:100E5000020F24E514C39516F514AB141514EB70AA
:100E600003020F2475822012081480EEE51B24FD76
:100E7000F8881B860308860408860518188B0C8CD6
:100E80000D8D0EE50EFB30E7047A438013EB5460C2
:100E900060047A50800AEB30E6047A4980027A587E
:100EA0008A82C00212081475823A120814758230C0
:100EB000120814758278120814D002BA4902800B05
:100EC000BA50028006850D82120847850C821208EE
:100ED000478051D20875130A804A751308804575FA
:100EE000130A8040751310803BD2018037D20280F4
:100EF00033D203802FE51B24FDF8881B8603088668
:100F00000408860518188B0C8C0D8D0E8B828C8333
:100F10008DF0E5111212F0A3E5121212F080058A8D
:100F200082120814200106200203300370E51B24FE
:100F3000FCF8881B860308860408860508860618C0
:100F400018188B0C8C0D8D0E8E0FE50CE50DE50E33
:100F5000E50F8B828C838DF0EE1211D174FFB515E5
:100F600003751506300327747F550FFB8B10E510B2
:100F7000EB2BFB8B10E50E30E70674014510F510E6
:100F8000E51024684006749925104002D202300210
:100F900006120B10020BFE12089D020BFEE51370E9
:100FA00003020BFE7B5A30092BE51B14F8881BE665
:100FB000FC3395E0FDFEFF8C0C8D0D8E0E8F0F2007
:100FC000085EAC0C7D007E007F008C0C8D0D8E0EBB
:100FD0008F0F804C300A1FE51B24FCF8881B860409
:100FE0000886050886060886071818188C0C8D0DCB
:100FF0008E0E8F0F802AE51B24FEF8881B860408BE
:10100000860518ED3395E0FEFF8C0C8D0D8E0E8F4E
:101010000F20080CAC0CAD0D7E007F008E0E8F0FE4
:10102000300B43E50C450D450E450F60397408B58E
:10103000130C758230C003120814D003802874107A
:10104000B51323758230C003120814D00330000C8E
:10105000758278C003120814D003800A758258C0C4
:1010600003120814D003300825AC0CAD0DAE0EE50C
:101070000FFF30E717C3E49CFCE49DFDE49EFEE413
:101080009FFF8C0C8D0D8E0E8F0F8002C20875167F
:1010900000D20C8B00751000C00012085ED000203A
:1010A0000C0DE510C4FCE6FD4CF61888038002A682
:1010B000100516B20CE50C450D450E450F70D6888F
:1010C00003E514700375140120051A200417E516B2
:1010D00004FCC39514500E758220C003120814D06E
:1010E00003151480E930080E75822DC00312081410
:1010F000D00315148024E516602030060E75822B6F
:10110000C003120814D0031514800F30070C758229
:1011100020C003120814D003151420041EAC1415AB
:1011200014C3E5169C50273005047C3080027C20D7
:101130008C82C003120814D00380E2C3E516951414
:101140005009E514C39516F51480037514008B003F
:10115000AB161516EB6022B20C200C0A08E6C4543C
:101160000FFB8B1080078603740F5BF510851082D0
:10117000C00012082ED00080D7200403020BFEAB63
:10118000141514EB7003020BFE75822012081480F4
:10119000EE8A82120814020BFE85118285128322C8
:1011A000AA82BA0A0810990280FB75990D1099025B
:1011B00080FB8A992220F71430F6148883A88220B5
:1011C000F507E6A88375830022E280F7E49322E026
:1011D00022C0E0F84582458345F07009F5F0FBFC3C
:1011E000FDFE02129FE823A2F792E0F8A982AA83EB
:1011F000D2F7ABF07C007E07C3749798404074FF31
:101200002EFE740A89F0A4F985F082740A8AF0A48B
:10121000FA85F083740A8BF0A4FB740529F9EA358A
:1012200082FAEB3583FB740035F0FCC3EC13FCEB66
:1012300013FBEA13FAE913F908EC70EF80BAE8C37C
:10124000947FF88B838EF0E4FBFCFDFEFF08C3E97E
:1012500033F9EA33FAE58333F583EB3BD4FBEC3C1B
:10126000D4FCED3DD4FDEE3ED4FEEF3FD4FF602D27
:1012700005F074052BD4FBE43CD4FCE43DD4FDE440
:101280003ED4FEE43FD4FF758204C3EF13FFEE1398
:10129000FEED13FDEC13FCEB13FBD582EDD8AF781C
:1012A00055D0E020E704762B8002762D087906E7FA
:1012B000C4540F4430F608B90603762E08E7540FDD
:1012C0004430F60819B902E7764508E5F020E7044E
:1012D000762B8004762DF4040875F00A844430F6E9
:1012E00008E5F04430F608E4F690005575F0402229
:1012F00020F71030F6118883A88220F507F6A8831E
:1013000075830022F280F7F022AA82AB83ACF07DD5
:10131000007E008A828B838CF01211B5FFA3AA8213
:10132000AB83EF60070DBD00EA0E80E78D828E83F0
:10133000220000000000000000000000000000008B
:00000001FF
