:10000000020003758143120116E582600302006F4E
:10001000780079007A007B007C007D00EC4D601C4C
:1000200088828983E493A3A882A9838A828B83F040
:10003000A3AA82AB831CBCFFE31D80E07582007520
:1000400083007C007D00EC4D600AE4F0A31CBCFF43
:10005000F51D80F27582007583007C007D00EC4DFB
:10006000600AE4F0A31CBCFFF51D80F2120115121A
:1000700002AA80FE1B5B324A0045464D382046727C
:10008000657175656E6379206D6561737572656DF7
:10009000656E74207573696E672054696D65722F83
:1000A000436F756E74657220302E0A46696C653A2E
:1000B0002025730A436F6D70696C65643A2025735F
:1000C0002C2025730A0A00736F75726365636F6471
:1000D000652E63004D6172202033203230323400AF
:1000E00032313A31323A343800564050322E313DB6
:1000F00025372E3566562C20564050322E323D255F
:10010000372E3566560D000D663D256C75487A0014
:100110001B5B304B002275A7007597DE7597AD43CA
:10012000FF8075EF0275A71075C12075A70075A92E
:100130000075A900E5A930E7FB75A90375A903E5DA
:10014000A930E7FB43A41075E10175E21075E340A7
:10015000759810858E8E758DE6858D8B53890F432E
:100160008920D28ED29975820022AA82438E407550
:1001700092B87593FF8592948593957591047B0051
:10018000C3EB9A5012E59130E7FB53917F108D023B
:10019000800205090B80E975910022AA82AB83BA1F
:1001A0000004BB0001227582F9C002C00312016A7B
:1001B0007582F912016A7582F912016A7582FA1262
:1001C000016AD003D0021ABAFF011B80D25389F012
:1001D000438905C28C22C2EDD2EC30EDFD85BD8293
:1001E00085BE832275A700C2EF75B28075BC2075ED
:1001F000B91E75E80075DF3F75B300D2EF22AA8201
:100200008517F005F07401800225E0D5F0FBFB7541
:10021000A720BA0002800ABA0102800FBA021E802B
:1002200014EBF4FA52F1EB42D48012EBF4FA52F2EE
:10023000EB42D58008EBF4FA52F3EB42CC75A70001
:10024000228582BBC2EDD2EC85BD8285BE8322129F
:1002500002411203E3AA82AB83ACF0FDC002C003EB
:10026000C004C00590333375F05374401203EFAAF5
:1002700082AB83ACF0FDE58124FCF581E4C0E07441
:10028000FCC0E0747FC0E07446C0E08A828B838C3F
:10029000F0ED1204C8AA82AB83ACF0FDE58124FC2A
:1002A000F5818A828B838CF0ED221201CD9001F4CE
:1002B00012019B7474C0E07400C0E07480C0E0124E
:1002C00004A715811581158174E0C0E07400C0E0B9
:1002D0007480C0E074D4C0E07400C0E07480C0E0FA
:1002E00074C7C0E07400C0E07480C0E07479C0E0FE
:1002F0007400C0E07480C0E01204A7E58124F4F526
:100300008175820E12024FAA82AB83ACF0FD8A0A7D
:100310008B0B8C0C8D0D75820F12024FAA82AB8352
:10032000ACF0FD8A0E8B0F8C108D11C002C003C083
:1003300004C005C00AC00BC00CC00D74E9C0E07455
:1003400000C0E07480C0E01204A7E58124F5F581C7
:10035000758A00758C00750900C28DD28C9003E8F7
:1003600012019BC28CAA097B008B158A147513009D
:10037000751200AE8C7F007A008A038F028E077E92
:1003800000EE2512F512EF3513F513EA3514F514C6
:10039000EB3515F515AC8AE4FD3395E0FAFBEC2559
:1003A00012FCED3513FDEA3514FAEB3515FBC004EC
:1003B000C005C002C0037407C0E07401C0E07480CF
:1003C000C0E01204A7E58124F9F5817410C0E0743F
:1003D00001C0E07480C0E01204A715811581158169
:1003E000020301E4AC83AB82FAF9748E0205F012C9
:1003F000067CBC000302061BEF60FA30D502B2D1C6
:10040000E583B4FF03020631E582B4FF030206313F
:10041000258340072482400B02061B2483145003CB
:10042000020631F582EA8DF0A4A8F0EA8EF0A42845
:10043000F8E435F0F9EB8DF0A428E935F0F9E43370
:10044000CA8FF0A429F9EA35F0FAEBF88EF0A42966
:10045000F9EA35F0FAE433FBEC8DF0A429F9EA353A
:10046000F0FAE43BFBE88FF0A42AFAEB35F0FBE46A
:1004700033CCFD8EF0A42AFAEB35F0FBE43CFCED26
:100480008FF0A42BFBEC35F0FC20E70312064902A9
:1004900005FA02103685823085833185F032851663
:1004A00033900492020A89C008858108E50824FB7C
:1004B000F533E50824FBF88630088631088632904B
:1004C0000492120A89D0082212067C30D502B2D1D9
:1004D000BF0009BC000302063E020631BC00030255
:1004E000061BE583B4FF0BE582B4FF0302063E0260
:1004F000061BE582B4FF03020631C395835007242F
:100500007F400B02061B2480145003020631C0E01A
:10051000E4CCCBCAF98D178E188F19EF54F0C4F5BF
:100520001A758306851AF0EB84F582E9C4F9EAC4EA
:10053000FAEBC4FBEC540FC47803D6FC18EBD6FBE3
:1005400018EAD6FA8582F0EDA4A8F0FD8582F0EED7
:10055000A428FEE435F0F88582F0EFA428FFE43506
:10056000F0F8E99DF9EA9EFAEB9FFBEC98FCAD17D9
:10057000AE18AF1930E7101582E92DF9EA3EFAEB13
:100580003FFBE43CFC80EDC082D58398C3E933F99E
:10059000EA33FAEB33FBEC33FCC3E99DEA9EEB9FB5
:1005A000EC9400B3E413F9D002D0E0C44AFAD003CB
:1005B000D0E0C44BFBD004D0E0F5F0540FC44CFCA9
:1005C000D082158230F40FD3EC13FCEB13FBEA134B
:1005D000FAE913F90582E930E70A74012AFAE43BE3
:1005E000FBE43CFC020612FCABF0AA83A982749ED9
:1005F000C2D1F5821206490205FAB98003EA13B3A3
:100600004010EA2401FAE43BFBE43CFC50047C800B
:100610000582BC000EBB000BBA0008E4F5F0F583C0
:10062000F58222A2D1E582138CF092F78B838A8225
:1006300022E4F583F58275F080F4A2D11322E4F56B
:1006400083F58275F0C0747F227804EC7011E58226
:1006500024F8500AF582E4C9CACBFCD8EF22EC7822
:1006600020058220E713D5820122C3E933F9EA335A
:10067000FAEB33FBEC33FCD8EA158222AA82AB8377
:10068000A2F73392D16002D2F7F582ACF0E5812473
:10069000F9F8E6FD08E6FE0886F008E6A2F73392D0
:1006A000D56002D2F7F583AFF022AA8274BBC0E016
:1006B0007406C0E0C022C0238A82220529E4B5293D
:1006C00002052A22AA8274302AFA24C6500A740724
:1006D0002AFA3000034302208A820206AAE582FA3F
:1006E000C4540FF582C0021206C4D002740F5AF52A
:1006F000820206C4AA24AB25AC26AD27AE28752FEE
:1007000020EE2EFEED235401FF4206EA2AFAEB33D7
:10071000FBEC33FCED33FDC3EE952B4008EEC395A7
:100720002BFE430201D52FD98A248B258C268D27B9
:100730008E28227840E624D075F00AA4FA7841E6A3
:1007400024D02AFA783F8603BB2D04C3E49AFA75B5
:100750002B01C3E464808AF063F08095F050297522
:100760002F038A0374F6252F401C052BE52F142434
:1007700034F8E52F2434F98704A604772E1BEBFA0E
:100780006004052F80DE8B02EA30E70D78358603A2
:100790007836A6037835762E0AE52D600AE52D0415
:1007A000FB252BF52B8005300B02052B78348603B7
:1007B000E4BB2D0104FB7006200603300702052B65
:1007C00030040302087A300557EB600C75822DC0A7
:1007D000021206AAD002801C30060C75822BC002C1
:1007E0001206AAD002800D30070A758220C00212BC
:1007F00006AAD00278358604BC2E0C758230C00261
:100800001206AAD002152CAC2C152CC3E52B9C404B
:10081000030208BE758230C0021206AAD00280E729
:10082000AC2C152CC3E52B9C500C758220C00212F9
:1008300006AAD00280EA78348604BC2D0C75822D7D
:10084000C0021206AAD002801C30060C75822BC092
:10085000021206AAD002800D30070A758220C0025B
:100860001206AAD00278358604BC2E52758230C09A
:10087000021206AAD002152C8044EB600E75822D60
:10088000C0021206AAD002152C802030060E7582F6
:100890002BC0021206AAD002152C800F30070C754F
:1008A0008220C0021206AAD002152C78358603BB1E
:1008B0002E0C758230C0021206AAD002152C752F9C
:1008C00001C20DE52F2434F88603BB450302097BE2
:1008D000BB2E348A03C3E464808BF063F08095F010
:1008E000500F758230C0031206AAD0031B8B028002
:1008F000E48B02D20DE52D7038200B0302097B75C5
:10090000822E1206AA8074300D278A03EB30E71F6F
:10091000C3E46480852DF063F08095F0500C7582FF
:1009200030C0031206AAD003152D0B8B0280DD8B7D
:1009300002300D0EC3E46480852DF063F08095F0E5
:100940005021E52F2434F886038B82C0021206AAB8
:10095000D002300D0EE52F2434F88603BB2E028022
:1009600002152D152CC3E46480852DF063F080956D
:10097000F04003200D05052F0208C3C3E464808501
:100980002DF063F08095F0500A7582301206AA159A
:100990002D80E830040FAA2C152CEA6008758220FF
:1009A0001206AA80F122E52D7003300B0D74072585
:1009B0002DFAE52CC39AF52C8006E52C24FAF52CAB
:1009C000752F0078348602BA2B0F20060C78347607
:1009D00020200705752F01052C200419AA2CC3E43B
:1009E00064808AF063F08095F0500A7582201206C8
:1009F000AA152C80E7C20DE52F2434F88602BA0030
:100A0000028069BA451F3000027665C3E4648085C0
:100A10002DF063F08095F0500A7582301206AA1509
:100A20002D80E8D20DC3E52F9402E433FA7014EA66
:100A3000700EC3E46480852DF063F08095F0400370
:100A4000300D16E52F2434F886028A821206AAE5B4
:100A50002F24FD5012152D800E7402B52F09300B76
:100A60000675822E1206AA052F0209F7300419AA6C
:100A70002CC3E464808AF063F08095F0500A75829C
:100A8000201206AA152C80E722858222858323E482
:100A9000F529F52AAA30AB31AC328A828B838CF0EF
:100AA00012104BFD74012AF530E43BF5318C32ED28
:100AB000FA700302102FBA25028003021027C20425
:100AC000C205C206C207C208C209C20AC20BC201DD
:100AD000C202C203752B00752C00752DFFAB30AC24
:100AE00031AD328B828C838DF012104BFAA3AB8226
:100AF000AC838B308C318D32BA25078A821206AADC
:100B000080928A06BE3000402E8A06EE24C6402718
:100B100074FFB52D13E52C75F00AA4FEEA24D02E3F
:100B2000F52C70BFD20580BBE52D75F00AA4FEEA56
:100B300024D02EF52D80ACBA2E0A74FFB52DA475E5
:100B40002D00809F8A06BE6100400E8A06EE248535
:100B500040075302DFD2008002C200BA2002807533
:100B6000BA2303020BE4BA2A03020BE9BA2B028070
:100B70005FBA2D028055BA4202805FBA4303020C6D
:100B80002EBA4403020D69BA4503020D83BA460327
:100B9000020D7FBA4703020D87BA4903020D69BAF5
:100BA0004C02803BBA4E03020D8BBA4F03020D700C
:100BB000BA5003020D02BA5303020C52BA55030293
:100BC0000D75BA5803020D7A020DB5D204020AE37C
:100BD000D206020AE3D207020AE3D209020AE3D2EA
:100BE0000A020AE3D20B020AE374FFB52D20300992
:100BF0000BE53314F88833862C020AE3E53324FE30
:100C0000F888338606088607188E2C020AE3300916
:100C10000BE53314F88833862D020AE3E53324FE0E
:100C2000F888338606088607188E2D020AE33009F5
:100C30000AE53314F888338602800FE53324FEF882
:100C400088338603088604188B028A821206AA0259
:100C50000DBAE53324FDF888338603088604088638
:100C60000518188B248C258D268B828C838DF01291
:100C7000119FAB82AC838B2E74FFB52D03852E2D77
:100C800020041DC3E52E952C5016E52CC3952EF59A
:100C90002CAB2C152CEB60087582201206AA80F173
:100CA0008524828525838526F012104BFBFA602966
:100CB000AB2D152DC3E464808BF063F08095F0506C
:100CC000188A821206AAAB24AC25AD260BBB000104
:100CD0000C8B248C258D2680C7200403020DBAC3FB
:100CE000E52E952C4003020DBAE52CC3952EF52C6C
:100CF000AB2C152CEB7003020DBA7582201206AADC
:100D000080EEE53324FDF8883386030886040886E0
:100D10000518188B248C258D26E526FB30E7047AF0
:100D2000438013EB546060047A50800AEB30E60491
:100D30007A4980027A588A82C0021206AA75823ADB
:100D40001206AA7582301206AA7582781206AAD0F7
:100D500002BA4902800BBA5002800685258212062B
:100D6000DD8524821206DD8051D208752B0A804A67
:100D7000752B088045752B0A8040752B10803BD25F
:100D8000018037D2028033D203802FE53324FDF86F
:100D90008833860308860408860518188B248C255A
:100DA0008D268B828C838DF0E529121186A3E52A8E
:100DB00012118680058A821206AA200106200203EB
:100DC000300370E53324FCF8883386030886040872
:100DD00086050886061818188B248C258D268E27E4
:100DE000E524E525E526E5278B828C838DF0EE1240
:100DF000106774FFB52D03752D06300327747F55DA
:100E000027FB8B28E528EB2BFB8B28E52630E70614
:100E100074014528F528E52824684006749925289A
:100E20004002D2023002061209A6020A94120733C7
:100E3000020A94E52B7003020A947B3930092BE5F2
:100E40003314F88833E6FC3395E0FDFEFF8C248DE7
:100E5000258E268F2720085EAC247D007E007F0033
:100E60008C248D258E268F27804C300A1FE5332455
:100E7000FCF8883386040886050886060886071865
:100E800018188C248D258E268F27802AE53324FE82
:100E9000F88833860408860518ED3395E0FEFF8C4C
:100EA000248D258E268F2720080CAC24AD257E00AE
:100EB0007F008E268F27300B43E5244525452645A8
:100EC0002760397408B52B0C758230C0031206AA4E
:100ED000D00380287410B52B23758230C00312060E
:100EE000AAD00330000C758278C0031206AAD00382
:100EF000800A758258C0031206AAD003300825ACB8
:100F000024AD25AE26E527FF30E717C3E49CFCE4BB
:100F10009DFDE49EFEE49FFF8C248D258E268F2769
:100F20008002C208752E00D20C8B00752800C0000C
:100F30001206F4D000200C0DE528C4FCE6FD4CF6AA
:100F40001888038002A628052EB20CE52445254505
:100F500026452770D68803E52C7003752C012005E3
:100F60001A200417E52E04FCC3952C500E75822020
:100F7000C0031206AAD003152C80E930080E758232
:100F80002DC0031206AAD003152C8024E52E602064
:100F900030060E75822BC0031206AAD003152C80D2
:100FA0000F30070C758220C0031206AAD003152C3F
:100FB00020041EAC2C152CC3E52E9C5027300504B4
:100FC0007C3080027C208C82C0031206AAD0038071
:100FD000E2C3E52E952C5009E52CC3952EF52C8007
:100FE00003752C008B00AB2E152EEB6022B20C206B
:100FF0000C0A08E6C4540FFB8B2880078603740F85
:101000005BF528852882C0001206C4D00080D72056
:101010000403020A94AB2C152CEB7003020A94759E
:1010200082201206AA80EE8A821206AA020A9485FB
:101030002982852A8322AA82BA0A0810990280FB93
:1010400075990D10990280FB8A992220F71430F6C9
:10105000148883A88220F507E6A88375830022E21E
:1010600080F7E49322E022C0E0F84582458345F012
:101070007009F5F0FBFCFDFE021135E823A2F792A2
:10108000E0F8A982AA83D2F7ABF07C007E07C37494
:101090009798404074FF2EFE740A89F0A4F985F0F9
:1010A00082740A8AF0A4FA85F083740A8BF0A4FB98
:1010B000740529F9EA3582FAEB3583FB740035F0C3
:1010C000FCC3EC13FCEB13FBEA13FAE913F908EC8D
:1010D00070EF80BAE8C3947FF88B838EF0E4FBFC5A
:1010E000FDFEFF08C3E933F9EA33FAE58333F583FC
:1010F000EB3BD4FBEC3CD4FCED3DD4FDEE3ED4FE0A
:10110000EF3FD4FF602D05F074052BD4FBE43CD4F5
:10111000FCE43DD4FDE43ED4FEE43FD4FF758204FC
:10112000C3EF13FFEE13FEED13FDEC13FCEB13FB0B
:10113000D582EDD8AF7834D0E020E704762B80025A
:10114000762D087906E7C4540F4430F608B9060333
:10115000762E08E7540F4430F60819B902E77645B1
:1011600008E5F020E704762B8004762DF40408755A
:10117000F00A844430F608E5F04430F608E4F690CE
:10118000003475F0402220F71030F6118883A882D1
:1011900020F507F6A88375830022F280F7F022AAD3
:1011A00082AB83ACF07D007E008A828B838CF01250
:1011B000104BFFA3AA82AB83EF60070DBD00EA0EC0
:1011C00080E78D828E832200000000000000000076
:00000001FF
