:1000000002000375818912017BE582600302006FA3
:10001000780079007A007B007C007D00EC4D601C4C
:1000200088828983E493A3A882A9838A828B83F040
:10003000A3AA82AB831CBCFFE31D80E07582007520
:1000400083007C007D00EC4D600AE4F0A31CBCFF43
:10005000F51D80F27582007583007C007D00EC4DFB
:10006000600AE4F0A31CBCFFF51D80F212014A12E5
:10007000047480FE1B5B324A004144432074657364
:10008000742070726F6772616D0A46696C653A2000
:1000900025730A436F6D70696C65643A2025732C73
:1000A0002025730A0A00736F75726365636F646558
:1000B0002E63004D61722020372032303234003000
:1000C000353A34303A313100463A5858487A20208F
:1000D00020503A20202E5858580056523A582E5840
:1000E00058202056543A582E585800543D25666DD5
:1000F000732C2050686173653A2025662C20763178
:100100005F526D733A25662C2076325F526D733ADA
:1001100025660D002D00200025332E316600543A4F
:10012000006D730025332E306600773A00726164EB
:10013000200025322E306600487A202000463A0002
:1001400025312E32660025336600752300752400A4
:10015000752500752600752700752800752900751E
:100160002A00752B00752C00752D00752E00752F3B
:10017000007530007531007532002275FF8075EF13
:100180000675A71075C12075A70075A90075A9008F
:10019000E5A930E7FB75A90375A903E5A930E7FBDD
:1001A00043A41075E10175E20075E3407598107580
:1001B0008DE6858D8B53890F438920D28ED2997518
:1001C00082002275A700C2EF75B28075BC2075B998
:1001D0001E75E80075DF3F75B300D2EF22AA824397
:1001E0008E407592B87593FF85929485939575911D
:1001F000047B00C3EB9A500BE59130E7FB53917FF2
:100200000B80F075910022AA82AB837C007D00C335
:10021000EC9AED9B502B7E00BE0400501D7582FAB7
:10022000C002C003C004C005C0061201DDD006D064
:1002300005D004D003D0020E80DE0CBC00D10D80AE
:10024000CE22AA828511F005F07401800225E0D546
:10025000F0FBFB75A720BA0002800ABA0102800FEA
:10026000BA021E8014EBF4FA52F1EB42D48012EB86
:10027000F4FA52F2EB42D58008EBF4FA52F3EB4277
:10028000CC75A700228582BBC2EDD2EC30EDFD8596
:10029000BD8285BE8322120285120D5FAA82AB83C6
:1002A000ACF0FDC002C003C004C00590923A75F0E6
:1002B000537440120D9BAA82AB83ACF0FDE5812400
:1002C000FCF581E4C0E074FCC0E0747FC0E07446DB
:1002D000C0E08A828B838CF0ED120F90AA82AB83F0
:1002E000ACF0FDE58124FCF5818A828B838CF0EDF6
:1002F000225389F0438901C28C22D2A07582281230
:1003000001DDC2A022AA828AE0A2E79290A2E69230
:1003100091A2E59292A2E49293C0021202FA75822F
:10032000281201DDD0028AE0A2E39290A2E292912B
:10033000A2E19292A2E092930202FAAA82D2978A52
:1003400082120305900002020207AA82C2978A82E3
:10035000120305900005020207C2A09000141202C9
:100360000775823312034A75823312034A7582324B
:1003700012034A75822812034A75820C12034A75C9
:10038000820112034A900014020207AA82AB83ACD6
:10039000F07402B533047DC080027D808D82C0027E
:1003A000C003C00412034A900005120207D004D013
:1003B00003D0027D007E00ED2AFFEE3BF88C018F1A
:1003C00082888389F0120D43FF60208F82C002C0B3
:1003D00003C004C005C00612033BD006D005D004FC
:1003E000D003D0020DBD00CF0E80CC3000248D0292
:1003F0008E03C3EA9410EB648094805015758220BC
:10040000C002C00312033BD003D0020ABA00E30BC0
:1004100080E022AA82AB83ACF07402B5340774C0CA
:100420004535FD800574804535FD8D82C002C003D1
:10043000C00412034AD004D003D0027D007E00ED38
:100440002AFFEE3BF88C018F82888389F0120D43DE
:10045000FF60208F82C002C003C004C005C0061226
:10046000033BD006D005D004D003D0020DBD00CF91
:100470000E80CC22E4F546F5471202F112035990A2
:1004800001F41202077474C0E07400C0E07480C00C
:10049000E0120EB715811581158174BFC0E074009C
:1004A000C0E07480C0E074B3C0E07400C0E0748049
:1004B000C0E074A6C0E07400C0E07480C0E074794D
:1004C000C0E07400C0E07480C0E0120EB7E5812483
:1004D000F4F5817534017535009000C875F080120F
:1004E00004137534027535009000DA75F08012043B
:1004F0001375110175820212024275110275820292
:100500001202421201C3758A00758C00C28D7522D9
:100510000075820F120296AC82AD83AEF0FFE4C08C
:10052000E0C0E0C0E0C0E08C828D838EF0EF120D61
:100530006BAC82E58124FCF581EC70D575820F12DD
:100540000296AC82AD83AEF0FFEC4D4E8FF0C2F759
:1005500045F060E8D28C75820F120296AC82AD83B2
:10056000AEF0FFE4C0E0C0E0C0E0C0E08C828D836C
:100570008EF0EF120D6BAC82E58124FCF581EC600E
:1005800009108D0280D0052280CC75820F12029650
:10059000AC82AD83AEF0FFE4C0E0C0E0C0E0C0E0FC
:1005A0008C828D838EF0EF120D6BAC82E58124FC82
:1005B000F581EC6009108D0280D0052280CCC28CC0
:1005C000852282120E3EAC82AD83AEF0FFC004C025
:1005D00005C006C00790000075F0807447120D9B9F
:1005E000AC82AD83AEF0FFE58124FCF581858C8281
:1005F000C004C005C006C007120E3EA882A983AA87
:10060000F0FBC000C001C002C00390000075F08084
:100610007443120D9BAA82AB83A8F0F9E58124FCF8
:10062000F581D007D006D005D004C002C003C000B9
:10063000C0018C828D838EF0EF120E49AA82AB83AB
:10064000ACF0FDE58124FCF581AE8A7F008E828FBF
:1006500083C002C003C004C005120F83AE82AF8303
:10066000A8F0F9D005D004D003D002C006C007C05E
:1006700000C0018A828B838CF0ED120E49AA82ABF6
:1006800083ACF0FDE58124FCF581C002C003C00409
:10069000C00590F4FC75F0B27434120D9B8582365F
:1006A00085833785F038F539E58124FCF581C0363E
:1006B000C037C038C03990000075F080743F120F09
:1006C0009085823E85833F85F040F541E58124FC9D
:1006D000F581C03EC03FC040C041900FDB75F0C9FE
:1006E0007440120D9B85824285834385F044F54515
:1006F000E58124FCF58175820F120296AE82AF83EC
:10070000A8F0F9E4C0E0C0E0C0E0C0E08E828F83D2
:1007100088F0E9120D6BAE82E58124FCF581EE7064
:10072000D575820F120296AE82AF83A8F0F9EE4F14
:100730004889F0C2F745F060E8C036C037C038C01D
:100740003990000075F07A7444120D9BAE82AF832D
:10075000A8F0F9E58124FCF581C006C007C000C0FF
:1007600001E4C0E0C0E07480C0E07440C0E08E826C
:100770008F8388F0E9120F90AA82AB83ACF0FDE57D
:100780008124FCF5818A828B838CF0ED120F7885B1
:10079000826285836312020775820F120296AC8211
:1007A000AD83AAF0FB742FC0E074E4C0E074B4C061
:1007B000E0743FC0E08C828D838AF0EB120F90854D
:1007C000822385832485F025F526E58124FCF581A7
:1007D000D001D000D007D00675820EC006C007C079
:1007E00000C001120296AA82AB83ACF0FDE4C0E027
:1007F000C0E0C0E0C0E08A828B838CF0ED120D6B0C
:10080000AA82E58124FCF581D001D000D007D00672
:10081000EA70C575820EC006C007C000C001120292
:1008200096AA82AB83ACF0FDD001D000D007D006F1
:10083000EA4B4C8DF0C2F745F060D8856282856343
:1008400083C006C007C000C00112020775820E12E5
:100850000296AA82AB83ACF0FD742FC0E074E4C0B2
:10086000E074B4C0E0743FC0E08A828B838CF0ED0A
:10087000120F9085822785832885F029F52AE58146
:1008800024FCF581D001D000D007D006C28C75229F
:1008900000758C00758A00C28D75820FC006C00776
:1008A000C000C001120296AA82AB83ACF0FDD00159
:1008B000D000D007D006EA4B4C8DF0C2F745F0705F
:1008C000D875820FC006C007C000C001120296AAE8
:1008D00082AB83ACF0FDD001D000D007D006EA4B4C
:1008E0004C8DF0C2F745F060D8D28C75820EC006F0
:1008F000C007C000C001120296AA82AB83ACF0FD13
:10090000D001D000D007D006EA4B4C8DF0C2F7459D
:10091000F06009108D0280D3052280CF75820EC051
:1009200006C007C000C001120296AA82AB83ACF0D9
:10093000FDD001D000D007D006EA4B4C8DF0C2F7B5
:1009400045F07009108D0280D3052280CFC28C85BE
:100950002282C006C007C000C001120E3EAA82ABB0
:1009600083ACF0FDC002C003C004C0059000007558
:10097000F0807447120D9B85826485836585F066DF
:10098000F567E58124FCF581858C82120E3EAA82F2
:10099000AB83ACF0FDC002C003C004C005900000F2
:1009A00075F0807443120D9BAA82AB83ACF0FDE519
:1009B0008124FCF581C002C003C004C005856482A7
:1009C0008565838566F0E567120E498582648583B7
:1009D0006585F066F567E58124FCF581AA8A7B00D0
:1009E0008A828B83120F83AA82AB83ACF0FDC00294
:1009F000C003C004C0058564828565838566F0E513
:100A000067120E49AA82AB83ACF0FDE58124FCF5A8
:100A100081C002C003C004C00590F4FC75F03274BC
:100A200034120D9BAA82AB83ACF0FDE58124FCF56A
:100A300081C002C003C004C00590000075F0B4740A
:100A400043120D9BAA82AB83ACF0FDE58124FCF53B
:100A500081C036C037C038C0398A828B838CF0EDB4
:100A6000120F9085823A85833B85F03CF53DE58108
:100A700024FCF581D001D000D007D006C006C00705
:100A8000C000C001C027C028C029C02AC023C0247C
:100A9000C025C026C03AC03BC03CC03DC006C00710
:100AA000C000C00174EBC0E07400C0E07480C0E01E
:100AB000120EB7E58124EDF581E4C0E0C0E07434A6
:100AC000C0E07443C0E0853A82853B83853CF0E515
:100AD0003D120D6BAA82E58124FCF581D001D00086
:100AE000D007D006EA6045C006C007C000C001C0FC
:100AF0003AC03BC03CC03D90000075F0B474431256
:100B00000F6D85823A85833B85F03CF53DE5812478
:100B1000FCF58175340175350B90011475F0801268
:100B20000413D001D000D007D006801F75340175A2
:100B3000350B90011675F080C006C007C000C001DB
:100B4000120413D001D000D007D00620A5249000B5
:100B500032C006C007C000C001120207D001D00099
:100B6000D007D00620A50B30A5FD0546E4B546020A
:100B700005477401B54606E4B5470280028059C0B6
:100B800006C007C000C0017418C0E07401C0E07462
:100B900080C0E0745AC0E07400C0E07440C0E0124D
:100BA0000F27E58124F6F581753401753502900033
:100BB0005A75F04012041375340175350090011E0A
:100BC00075F0801204137534017535079001217595
:100BD000F080120413020C987402B54606E4B5477F
:100BE0000280028058C042C043C044C0457424C043
:100BF000E07401C0E07480C0E0745EC0E07400C0C6
:100C0000E07440C0E0120F27E58124F6F5817534C9
:100C10000175350290005E75F040120413753401C1
:100C200075350090012A75F0801204137534017532
:100C3000350590012D75F080120413805BE4F546B4
:100C4000F547C03EC03FC040C0417432C0E07401AF
:100C5000C0E07480C0E07448C0E07400C0E074403C
:100C6000C0E0120F27E58124F6F581753401753552
:100C70000290004875F04012041375340175350474
:100C800090013875F08012041375340175350090A9
:100C9000013D75F080120413C023C024C025C02676
:100CA0007440C0E07401C0E07480C0E0744CC0E0E7
:100CB0007400C0E07440C0E0120F27E58124F6F50F
:100CC00081C027C028C029C02A7440C0E07401C078
:100CD000E07480C0E07451C0E07400C0E07440C0B3
:100CE000E0120F27E58124F6F581C03AC03BC03CF5
:100CF000C03D7446C0E07401C0E07480C0E074562A
:100D0000C0E07400C0E07440C0E0120F27E5812409
:100D1000F6F58175340175350C90005675F040126A
:100D2000041375340275350390004C75F0401204BD
:100D30001375340275350C90005175F04012041390
:100D400002050620F71430F6148883A88220F507E0
:100D5000E6A88375830022E280F7E49322E022E490
:100D6000AC83AB82FAF9748E0210B8FFA881181810
:100D70001210E0D2D133E6400730E70B7582012232
:100D800020E70675820022C2D11210C2E97003F575
:100D9000822230D101B3E433F5822212118DBC00DE
:100DA0000302112CEF60FA30D502B2D1E583B4FF13
:100DB00003021142E582B4FF03021142258340077A
:100DC0002482400B02112C2483145003021142F59B
:100DD00082EA8DF0A4A8F0EA8EF0A428F8E435F0B9
:100DE000F9EB8DF0A428E935F0F9E433CA8FF0A4CB
:100DF00029F9EA35F0FAEBF88EF0A429F9EA35F092
:100E0000FAE433FBEC8DF0A429F9EA35F0FAE43B7F
:100E1000FBE88FF0A42AFAEB35F0FBE433CCFD8E2F
:100E2000F0A42AFAEB35F0FBE43CFCED8FF0A42BA8
:100E3000FBEC35F0FC20E70312115A02110BE4AC75
:100E400082FBFAF974860210B812118D7900E583DD
:100E5000B58202800D50031211BBE583C395821247
:100E600011D5E5D0C465D020E117EA2DFAEB3EFBA1
:100E7000EC3FFC500974011211D5EC4480FC0211C6
:100E80000BC3EA9DFAEB9EFBEC9FFC500FC3E49969
:100E9000F9E49AFAE49BFBE49CFCB2D112115A02E9
:100EA000110B021BA485827685837785F0788510E7
:100EB00079900EA20215F7C008858108E50824FB89
:100EC000F579E50824FBF886760886770886789019
:100ED0000EA21215F7D00822AA82AB09AC0AAD0BFC
:100EE0008B828C838DF0EA121BB90509E4B50902E7
:100EF000050A2285820985830A85F00B850C768593
:100F00000D77850E78850F79900ED81215F7AA8285
:100F1000AB83AC09AD0AAE0B8C828D838EF0E412EC
:100F20001BB98A828B8322C008858108E50824F8D2
:100F3000F579E50824FBF8860908860A08860BE59A
:100F40000824F8F88676088677088678900ED812F6
:100F500015F7AA82AB83AC09AD0AAE0B8C828D83E8
:100F60008EF0E4121BB98A828B83D00822A88118E4
:100F700018C6B2E7C6020E497F8E121BD4F58385D0
:100F8000F08222AC83AB827A007900748E021C025C
:100F900012118D30D502B2D1BF0009BC000302117D
:100FA0004F021142BC000302112CE583B4FF0BE594
:100FB00082B4FF0302114F02112CE582B4FF030239
:100FC0001142C395835007247F400B02112C2480CB
:100FD000145003021142C0E0E4CCCBCAF98D118E4B
:100FE000128F13EF54F0C4F5147583068514F0EBDB
:100FF00084F582E9C4F9EAC4FAEBC4FBEC540FC4EB
:101000007803D6FC18EBD6FB18EAD6FA8582F0ED09
:10101000A4A8F0FD8582F0EEA428FEE435F0F88562
:1010200082F0EFA428FFE435F0F8E99DF9EA9EFA92
:10103000EB9FFBEC98FCAD11AE12AF1330E710152F
:1010400082E92DF9EA3EFAEB3FFBE43CFC80EDC07F
:1010500082D58398C3E933F9EA33FAEB33FBEC33F7
:10106000FCC3E99DEA9EEB9FEC9400B3E413F9D036
:1010700002D0E0C44AFAD003D0E0C44BFBD004D085
:10108000E0F5F0540FC44CFCD082158230F40FD33D
:10109000EC13FCEB13FBEA13FAE913F90582E930D0
:1010A000E70A74012AFAE43BFBE43CFC021123FC4E
:1010B000ABF0AA83A982749EC2D1F58212115A02A2
:1010C000110B7901AA82E68F82B5821318E6B5F07A
:1010D0000E18E6B5830918E68A82B58202790022E5
:1010E000B4800FE5F0700AE5837006E58270027F38
:1010F00000EFB6801518B6001018B6000B18B60031
:101100000608080876002208080822B98003EA13B6
:10111000B34010EA2401FAE43BFBE43CFC50047CBD
:10112000800582BC000EBB000BBA0008E4F5F0F5A8
:1011300083F58222A2D1E582138CF092F78B838A09
:101140008222E4F583F58275F080F4A2D11322E4C3
:10115000F583F58275F0C0747F227804EC7011E598
:101160008224F8500AF582E4C9CACBFCD8EF22ECFD
:101170007820058220E713D5820122C3E933F9EAFA
:1011800033FAEB33FBEC33FCD8EA158222AA82ABAC
:1011900083A2F73392D16002D2F7F582ACF0E581F9
:1011A00024F9F8E6FD08E6FE0886F008E6A2F73323
:1011B00092D56002D2F7F583AFF022E582C583F5C0
:1011C00082A2D133A2D592D11392D5ECCFFCEBCE33
:1011D000FBEACDFA226040F82582500274FFF582C6
:1011E000E824F8501ECCCBCAF9E4CC24F85014CB38
:1011F000CAF9E4CB24F8500BCAF9E4CA24F8500326
:1012000079002224086010F8C3EC13FCEB13FBEA0E
:1012100013FAE913F9D8F122AA827429C0E07412F2
:10122000C0E0C068C0698A8222056FE4B56F02051C
:101230007022AA8274302AFA24C6500A74072AFA45
:101240003001034302208A82021218E582FAC45454
:101250000FF582C002121232D002740F5AF58202C8
:101260001232AA6AAB6BAC6CAD6DAE6E757520EECA
:101270002EFEED235401FF4206EA2AFAEB33FBEC83
:1012800033FCED33FDC3EE95714008EEC39571FE5E
:10129000430201D575D98A6A8B6B8C6C8D6D8E6E0D
:1012A000227886E624D075F00AA4FA7887E624D05E
:1012B0002AFA78858603BB2D04C3E49AFA75710176
:1012C000C3E464808AF063F08095F050297575035B
:1012D0008A0374F62575401C0571E57514247AF8A7
:1012E000E575247AF98704A604772E1BEBFA6004CF
:1012F000057580DE8B02EA30E70D787B8603787C0B
:10130000A603787B762E0AE573600AE57304FB2555
:1013100071F5718005300C020571787A8603E4BBA3
:101320002D0104FB7006200703300802057130050B
:10133000030213E8300657EB600C75822DC00212D1
:101340001218D002801C30070C75822BC0021212BA
:1013500018D002800D30080A758220C002121218BF
:10136000D002787B8604BC2E0C758230C00212122B
:1013700018D0021572AC721572C3E5719C4003025D
:10138000142C758230C002121218D00280E7AC72A1
:101390001572C3E5719C500C758220C002121218A0
:1013A000D00280EA787A8604BC2D0C75822DC002AA
:1013B000121218D002801C30070C75822BC002124A
:1013C0001218D002800D30080A758220C002121255
:1013D00018D002787B8604BC2E52758230C002126F
:1013E0001218D00215728044EB600E75822DC00277
:1013F000121218D0021572802030070E75822BC091
:1014000002121218D0021572800F30080C7582205B
:10141000C002121218D0021572787B8603BB2E0C04
:10142000758230C002121218D0021572757501C291
:101430000EE575247AF88603BB45030214E9BB2E3A
:10144000348A03C3E464808BF063F08095F0500F1E
:10145000758230C003121218D0031B8B0280E48BFC
:1014600002D20EE5737038200C030214E975822E47
:101470001212188074300E278A03EB30E71FC3E482
:1014800064808573F063F08095F0500C758230C0F5
:1014900003121218D00315730B8B0280DD8B023000
:1014A0000E0EC3E464808573F063F08095F05021E4
:1014B000E575247AF886038B82C002121218D002D6
:1014C000300E0EE575247AF88603BB2E02800215D5
:1014D000731572C3E464808573F063F08095F04007
:1014E00003200E050575021431C3E464808573F092
:1014F00063F08095F0500A758230121218157380CF
:10150000E830050FAA721572EA600875822012127F
:101510001880F122E5737003300C0D74072573FAFF
:10152000E572C39AF5728006E57224FAF572757554
:1015300000787A8602BA2B0F20070C787A76202062
:1015400008057575010572200519AA72C3E4648047
:101550008AF063F08095F0500A75822012121815F7
:101560007280E7C20EE575247AF88602BA0002801E
:1015700069BA451F3001027665C3E464808573F063
:1015800063F08095F0500A7582301212181573803E
:10159000E8D20EC3E5759402E433FA7014EA700ED3
:1015A000C3E464808573F063F08095F04003300EEF
:1015B00016E575247AF886028A82121218E57524D7
:1015C000FD50121573800E7402B57509300C067546
:1015D000822E1212180575021565300519AA72C3FC
:1015E000E464808AF063F08095F0500A75822012DE
:1015F0001218157280E722858268858369E4F56F89
:10160000F570AA76AB77AC788A828B838CF0120D5A
:1016100043FD74012AF576E43BF5778C78EDFA709A
:1016200003021B9DBA25028003021B95C205C20658
:10163000C207C208C209C20AC20BC20CC202C2035C
:10164000C2047571007572007573FFAB76AC77AD2F
:10165000788B828C838DF0120D43FAA3AB82AC831E
:101660008B768C778D78BA25078A82121218809231
:101670008A06BE3000402E8A06EE24C6402774FF3C
:10168000B57313E57275F00AA4FEEA24D02EF57244
:1016900070BFD20680BBE57375F00AA4FEEA24D0C1
:1016A0002EF57380ACBA2E0A74FFB573A47573005F
:1016B000809F8A06BE6100400E8A06EE24854007A0
:1016C0005302DFD2018002C201BA20028075BA2320
:1016D00003021752BA2A03021757BA2B02805FBAC5
:1016E0002D028055BA4202805FBA430302179CBAAA
:1016F00044030218D7BA45030218F1BA4603021888
:10170000EDBA47030218F5BA49030218D7BA4C02DA
:10171000803BBA4E030218F9BA4F030218DEBA50E2
:1017200003021870BA53030217C0BA55030218E334
:10173000BA58030218E8021923D205021651D2073B
:10174000021651D208021651D20A021651D20B02C9
:101750001651D20C02165174FFB57320300A0BE5F6
:101760007914F888798672021651E57924FEF88892
:10177000798606088607188E72021651300A0BE524
:101780007914F888798673021651E57924FEF88871
:10179000798606088607188E73021651300A0AE504
:1017A0007914F888798602800FE57924FEF8887923
:1017B0008603088604188B028A82121218021928DE
:1017C000E57924FDF88879860308860408860518DB
:1017D000188B6A8C6B8D6C8B828C838DF0121D45FF
:1017E000AB82AC838B7474FFB5730385747320056F
:1017F0001DC3E57495725016E572C39574F572AB0E
:10180000721572EB600875822012121880F1856AD9
:1018100082856B83856CF0120D43FBFA6029AB73F4
:101820001573C3E464808BF063F08095F050188AE0
:1018300082121218AB6AAC6BAD6C0BBB00010C8B47
:101840006A8C6B8D6C80C7200503021928C3E57470
:1018500095724003021928E572C39574F572AB7254
:101860001572EB700302192875822012121880EE8F
:10187000E57924FDF888798603088604088605182A
:10188000188B6A8C6B8D6CE56CFB30E7047A4380B7
:1018900013EB546060047A50800AEB30E6047A4916
:1018A00080027A588A82C00212121875823A121285
:1018B00018758230121218758278121218D002BA76
:1018C0004902800BBA50028006856B8212124B854A
:1018D0006A8212124B8051D20975710A804A757161
:1018E00008804575710A8040757110803BD2028076
:1018F00037D2038033D204802FE57924FDF888792C
:10190000860308860408860518188B6A8C6B8D6C14
:101910008B828C838DF0E56F121BB9A3E570121BCF
:10192000B980058A821212182002062003033004AF
:1019300070E57924FCF88879860308860408860512
:101940000886061818188B6A8C6B8D6C8E6DE56A8C
:10195000E56BE56CE56D8B828C838DF0EE121C26B9
:1019600074FFB57303757306300427747F556DFBE0
:101970008B6EE56EEB2BFB8B6EE56C30E70674012E
:10198000456EF56EE56E246840067499256E40023A
:10199000D2033003061215140216021212A1021607
:1019A00002E57170030216027B7F300A2BE5791481
:1019B000F88879E6FC3395E0FDFEFF8C6A8D6B8E2E
:1019C0006C8F6D20095EAC6A7D007E007F008C6AA2
:1019D0008D6B8E6C8F6D804C300B1FE57924FCF87D
:1019E0008879860408860508860608860718181868
:1019F0008C6A8D6B8E6C8F6D802AE57924FEF88859
:101A000079860408860518ED3395E0FEFF8C6A8D13
:101A10006B8E6C8F6D20090CAC6AAD6B7E007F0005
:101A20008E6C8F6D300C43E56A456B456C456D607F
:101A3000397408B5710C758230C003121218D003C6
:101A400080287410B57123758230C003121218D02B
:101A50000330010C758278C003121218D003800A7B
:101A6000758258C003121218D003300925AC6AAD34
:101A70006BAE6CE56DFF30E717C3E49CFCE49DFDA5
:101A8000E49EFEE49FFF8C6A8D6B8E6C8F6D8002EE
:101A9000C209757400D20D8B00756E00C000121261
:101AA00062D000200D0DE56EC4FCE6FD4CF61888F2
:101AB000038002A66E0574B20DE56A456B456C4560
:101AC0006D70D68803E572700375720120061A20C6
:101AD0000517E57404FCC39572500E758220C0038F
:101AE000121218D003157280E930090E75822DC0CC
:101AF00003121218D00315728024E5746020300799
:101B00000E75822BC003121218D0031572800F308D
:101B1000080C758220C003121218D003157220051C
:101B20001EAC721572C3E5749C50273006047C30DD
:101B300080027C208C82C003121218D00380E2C382
:101B4000E57495725009E572C39574F5728003755A
:101B500072008B00AB741574EB6022B20D200D0A7D
:101B600008E6C4540FFB8B6E80078603740F5BF589
:101B70006E856E82C000121232D00080D72005031D
:101B8000021602AB721572EB700302160275822008
:101B900012121880EE8A82121218021602856F82C3
:101BA00085708322AA82BA0A0810990280FB75996F
:101BB0000D10990280FB8A992220F71030F61188C7
:101BC00083A88220F507F6A88375830022F280F7A8
:101BD000F0227F9E121D6D30D10302112CC3EF95B0
:101BE00082500974FFF5F0F583F582227900121115
:101BF000D589828A838BF0EC22FCABF0AA83A98280
:101C0000749EF582C2D1EC30E716D2D1E9F42401FA
:101C1000F9EAF43400FAEBF43400FBECF43400FCA1
:101C200012115A02110BC0E0F84582458345F0704D
:101C300009F5F0FBFCFDFE021CF4E823A2F792E09C
:101C4000F8A982AA83D2F7ABF07C007E07C3749711
:101C500098404074FF2EFE740A89F0A4F985F08242
:101C6000740A8AF0A4FA85F083740A8BF0A4FB74DA
:101C70000529F9EA3582FAEB3583FB740035F0FC6F
:101C8000C3EC13FCEB13FBEA13FAE913F908EC704D
:101C9000EF80BAE8C3947FF88B838EF0E4FBFCFD01
:101CA000FEFF08C3E933F9EA33FAE58333F583EB42
:101CB0003BD4FBEC3CD4FCED3DD4FDEE3ED4FEEF3A
:101CC0003FD4FF602D05F074052BD4FBE43CD4FC1D
:101CD000E43DD4FDE43ED4FEE43FD4FF758204C36A
:101CE000EF13FFEE13FEED13FDEC13FCEB13FBD52E
:101CF00082EDD8AF787AD0E020E704762B800276A8
:101D00002D087906E7C4540F4430F608B906037667
:101D10002E08E7540F4430F60819B902E776450853
:101D2000E5F020E704762B8004762DF4040875F0A6
:101D30000A844430F608E5F04430F608E4F69000F2
:101D40007A75F04022AA82AB83ACF07D007E008AD7
:101D5000828B838CF0120D43FFA3AA82AB83EF60CA
:101D6000070DBD00EA0E80E78D828E8322AA82AB2A
:101D700083A2F73392D16002D2F7F582ACF0220051
:00000001FF
