:1000000002000375815412013EE582600302006F15
:10001000780079007A007B007C007D00EC4D601C4C
:1000200088828983E493A3A882A9838A828B83F040
:10003000A3AA82AB831CBCFFE31D80E07582007520
:1000400083007C007D00EC4D600AE4F0A31CBCFF43
:10005000F51D80F27582007583007C007D00EC4DFB
:10006000600AE4F0A31CBCFFF51D80F21200F5123B
:1000700002D480FE1B5B324A004144432074657306
:10008000742070726F6772616D0A46696C653A2000
:1000900025730A436F6D70696C65643A2025732C73
:1000A0002025730A0A00736F75726365636F646558
:1000B0002E63004D61722020352032303234003101
:1000C000303A35323A3436004D617820416D702037
:1000D0004070322E313D25372E3566562C204D612D
:1000E0007820416D70204070322E323D25372E35FC
:1000F00066562C0D00752D00752E00752F0075307D
:1001000000753100753200753300753400753500A7
:10011000753600753700753800753900753A007509
:100120003B00753C00753D00753E00753F00754015
:10013000007541007542007543007544002275A7A3
:10014000007597DE7597AD75FF8075EF0675A71082
:1001500075C12075A70075A90075A900E5A930E74C
:10016000FB75A90375A903E5A930E7FB43A4107546
:10017000E10175E20075E340759810758DE6858D97
:100180008B53890F438920D28ED2997582002275B4
:10019000A700C2EF75B28075BC2075B91E75E80066
:1001A00075DF3F75B300D2EF22AA82438E4075926D
:1001B000B87593FF8592948593957591047B00C3E0
:1001C000EB9A500BE59130E7FB53917F0B80F07574
:1001D000910022AA82AB837C007D00C3EC9AED9B48
:1001E000502B7E00BE0400501D7582FAC002C00371
:1001F000C004C005C0061201A9D006D005D004D0A5
:1002000003D0020E80DE0CBC00D10D80CE22AA826B
:10021000851CF005F07401800225E0D5F0FBFB752C
:10022000A720BA0002800ABA0102800FBA021E801B
:1002300014EBF4FA52F1EB42D48012EBF4FA52F2DE
:10024000EB42D58008EBF4FA52F3EB42CC75A700F1
:10025000228582BBC2EDD2EC30EDFD85BD8285BE2C
:100260008322C2EDD2EC30EDFD85BD8285BE8322B6
:10027000120251120404AA82AB83ACF0FDC002C08A
:1002800003C004C00590923A75F0537440120440C4
:10029000AA82AB83ACF0FDE58124FCF581E4C0E0EB
:1002A00074FCC0E0747FC0E07446C0E08A828B8337
:1002B0008CF0ED120519AA82AB83ACF0FDE5812428
:1002C000FCF5818A828B838CF0ED225389F043897F
:1002D00005C28C221202CB9001F41201D37474C0B7
:1002E000E07400C0E07480C0E01204F8158115814C
:1002F000158174BFC0E07400C0E07480C0E074B3C6
:10030000C0E07400C0E07480C0E074A6C0E0740077
:10031000C0E07480C0E07479C0E07400C0E0748014
:10032000C0E01204F8E58124F4F581751C017582A2
:100330000212020E751C0275820212020E12018F49
:1003400075820E12027085823D85833E85F03FF5F1
:1003500040C02DC02EC02FC030853D82853E838594
:100360003FF0E540120410AA82E58124FCF581EA01
:10037000600C853D35853E36853F37854038853D67
:100380002D853E2E853F2F85403075820F120270DD
:1003900085824185834285F043F544C031C032C037
:1003A00033C0348541828542838543F0E54412049D
:1003B00010AA82E58124FCF581EA600C854139852B
:1003C000423A85433B85443C8541318542328543F1
:1003D000338544340523E4B523020524C039C03AEB
:1003E000C03BC03CC035C036C037C03874C8C0E060
:1003F0007400C0E07480C0E01204F8E58124F5F5D3
:1004000081020340E4AC83AB82FAF9748E020641A8
:10041000FFA8811818120669D2D133E6400730E7E9
:100420000B7582012220E70675820022C2D11206D6
:100430004BE97003F5822230D101B3E433F5822217
:10044000120716BC00030206B5EF60FA30D502B2FF
:10045000D1E583B4FF030206CBE582B4FF030206B5
:10046000CB258340072482400B0206B52483145019
:10047000030206CBF582EA8DF0A4A8F0EA8EF0A480
:1004800028F8E435F0F9EB8DF0A428E935F0F9E42B
:1004900033CA8FF0A429F9EA35F0FAEBF88EF0A40C
:1004A00029F9EA35F0FAE433FBEC8DF0A429F9EAF6
:1004B00035F0FAE43BFBE88FF0A42AFAEB35F0FBC9
:1004C000E433CCFD8EF0A42AFAEB35F0FBE43CFCDF
:1004D000ED8FF0A42BFBEC35F0FC20E7031206E3D4
:1004E0000206940210D085821885831985F01A853A
:1004F000091B9004E3020B23C008858108E508244A
:10050000FBF51BE50824FBF8861808861908861AEF
:100510009004E3120B23D0082212071630D502B242
:10052000D1BF0009BC00030206D80206CBBC000301
:100530000206B5E583B4FF0BE582B4FF030206D8DB
:100540000206B5E582B4FF030206CBC395835007CC
:10055000247F400B0206B524801450030206CBC052
:10056000E0E4CCCBCAF98D1C8E1D8F1EEF54F0C475
:10057000F51F758306851FF0EB84F582E9C4F9EA5F
:10058000C4FAEBC4FBEC540FC47803D6FC18EBD6CA
:10059000FB18EAD6FA8582F0EDA4A8F0FD8582F07A
:1005A000EEA428FEE435F0F88582F0EFA428FFE4FD
:1005B00035F0F8E99DF9EA9EFAEB9FFBEC98FCAD6B
:1005C0001CAE1DAF1E30E7101582E92DF9EA3EFA88
:1005D000EB3FFBE43CFC80EDC082D58398C3E9335C
:1005E000F9EA33FAEB33FBEC33FCC3E99DEA9EEB0B
:1005F0009FEC9400B3E413F9D002D0E0C44AFAD0DF
:1006000003D0E0C44BFBD004D0E0F5F0540FC44C51
:10061000FCD082158230F40FD3EC13FCEB13FBEA11
:1006200013FAE913F90582E930E70A74012AFAE4BA
:100630003BFBE43CFC0206ACFCABF0AA83A9827451
:100640009EC2D1F5821206E30206947901AA82E6DF
:100650008F82B5821318E6B5F00E18E6B583091837
:10066000E68A82B58202790022B4800FE5F0700A32
:10067000E5837006E58270027F00EFB6801518B63C
:10068000001018B6000B18B60006080808760022FD
:1006900008080822B98003EA13B34010EA2401FADB
:1006A000E43BFBE43CFC50047C800582BC000EBBB8
:1006B000000BBA0008E4F5F0F583F58222A2D1E53B
:1006C00082138CF092F78B838A8222E4F583F58281
:1006D00075F080F4A2D11322E4F583F58275F0C0A1
:1006E000747F227804EC7011E58224F8500AF582B8
:1006F000E4C9CACBFCD8EF22EC7820058220E713AE
:10070000D5820122C3E933F9EA33FAEB33FBEC3348
:10071000FCD8EA158222AA82AB83A2F73392D16079
:1007200002D2F7F582ACF0E58124F9F8E6FD08E69F
:10073000FE0886F008E6A2F73392D56002D2F7F5FC
:1007400083AFF022AA827455C0E07407C0E0C00AEB
:10075000C00B8A82220511E4B51102051222AA8279
:1007600074302AFA24C6500A74072AFA3000034368
:1007700002208A82020744E582FAC4540FF582C03F
:100780000212075ED002740F5AF58202075EAA0CAD
:10079000AB0DAC0EAD0FAE10751720EE2EFEED2397
:1007A0005401FF4206EA2AFAEB33FBEC33FCED334B
:1007B000FDC3EE95134008EEC39513FE430201D529
:1007C00017D98A0C8B0D8C0E8D0F8E10227851E666
:1007D00024D075F00AA4FA7852E624D02AFA785088
:1007E0008603BB2D04C3E49AFA751301C3E4648045
:1007F0008AF063F08095F050297517038A0374F628
:100800002517401C0513E517142445F8E517244562
:10081000F98704A604772E1BEBFA6004051780DE27
:100820008B02EA30E70D784686037847A6037846C0
:10083000762E0AE515600AE51504FB2513F51380ED
:1008400005300B02051378458603E4BB2D0104FB3C
:100850007006200603300702051330040302091452
:10086000300557EB600C75822DC002120744D00290
:10087000801C30060C75822BC002120744D0028007
:100880000D30070A758220C002120744D002784654
:100890008604BC2E0C758230C002120744D00215AB
:1008A00014AC141514C3E5139C4003020958758257
:1008B00030C002120744D00280E7AC141514C3E51F
:1008C000139C500C758220C002120744D00280EAAB
:1008D00078458604BC2D0C75822DC002120744D0C9
:1008E00002801C30060C75822BC002120744D00215
:1008F000800D30070A758220C002120744D00278AA
:10090000468604BC2E52758230C002120744D002C3
:1009100015148044EB600E75822DC002120744D07E
:10092000021514802030060E75822BC00212074477
:10093000D0021514800F30070C758220C0021207F8
:1009400044D002151478468603BB2E0C758230C045
:1009500002120744D0021514751701C20DE51724C1
:1009600045F88603BB4503020A15BB2E348A03C330
:10097000E464808BF063F08095F0500F758230C096
:1009800003120744D0031B8B0280E48B02D20DE5D7
:10099000157038200B03020A1575822E1207448049
:1009A00074300D278A03EB30E71FC3E4648085159C
:1009B000F063F08095F0500C758230C0031207444C
:1009C000D00315150B8B0280DD8B02300D0EC3E4B6
:1009D00064808515F063F08095F05021E51724457B
:1009E000F886038B82C002120744D002300D0EE558
:1009F000172445F88603BB2E02800215151514C373
:100A0000E464808515F063F08095F04003200D05C7
:100A1000051702095DC3E464808515F063F08095D5
:100A2000F0500A758230120744151580E830040F23
:100A3000AA141514EA600875822012074480F12276
:100A4000E5157003300B0D74072515FAE514C39AEC
:100A5000F5148006E51424FAF51475170078458618
:100A600002BA2B0F20060C78457620200705751753
:100A7000010514200419AA14C3E464808AF063F009
:100A80008095F0500A758220120744151480E7C241
:100A90000DE5172445F88602BA00028069BA451FA1
:100AA0003000027665C3E464808515F063F08095BC
:100AB000F0500A758230120744151580E8D20DC334
:100AC000E5179402E433FA7014EA700EC3E464800C
:100AD0008515F063F08095F04003300D16E517247E
:100AE00045F886028A82120744E51724FD50121544
:100AF00015800E7402B51709300B0675822E120789
:100B0000440517020A91300419AA14C3E464808AC8
:100B1000F063F08095F0500A758220120744151496
:100B200080E72285820A85830BE4F511F512AA1865
:100B3000AB19AC1A8A828B838CF01210E5FD74011C
:100B40002AF518E43BF5198C1AEDFA70030210C966
:100B5000BA250280030210C1C204C205C206C20740
:100B6000C208C209C20AC20BC201C202C203751383
:100B7000007514007515FFAB18AC19AD1A8B828C7B
:100B8000838DF01210E5FAA3AB82AC838B188C191D
:100B90008D1ABA25078A8212074480928A06BE30CF
:100BA00000402E8A06EE24C6402774FFB51513E5D3
:100BB0001475F00AA4FEEA24D02EF51470BFD205F5
:100BC00080BBE51575F00AA4FEEA24D02EF5158049
:100BD000ACBA2E0A74FFB515A4751500809F8A065D
:100BE000BE6100400E8A06EE248540075302DFD224
:100BF000008002C200BA20028075BA2303020C7E74
:100C0000BA2A03020C83BA2B02805FBA2D028055E8
:100C1000BA4202805FBA4303020CC8BA4403020E10
:100C200003BA4503020E1DBA4603020E19BA470362
:100C3000020E21BA4903020E03BA4C02803BBA4E9F
:100C400003020E25BA4F03020E0ABA5003020D9C8E
:100C5000BA5303020CECBA5503020E0FBA58030242
:100C60000E14020E4FD204020B7DD206020B7DD26F
:100C700007020B7DD209020B7DD20A020B7DD20B3B
:100C8000020B7D74FFB5152030090BE51B14F888A5
:100C90001B8614020B7DE51B24FEF8881B860608C4
:100CA0008607188E14020B7D30090BE51B14F8889B
:100CB0001B8615020B7DE51B24FEF8881B860608A3
:100CC0008607188E15020B7D30090AE51B14F8887B
:100CD0001B8602800FE51B24FEF8881B860308860E
:100CE00004188B028A82120744020E54E51B24FD6D
:100CF000F8881B860308860408860518188B0C8C58
:100D00000D8D0E8B828C838DF0121239AB82AC83E9
:100D10008B1674FFB5150385161520041DC3E51643
:100D200095145016E514C39516F514AB141514EB71
:100D3000600875822012074480F1850C82850D833E
:100D4000850EF01210E5FBFA6029AB151515C3E40A
:100D500064808BF063F08095F050188A821207440B
:100D6000AB0CAC0DAD0E0BBB00010C8B0C8C0D8DC8
:100D70000E80C7200403020E54C3E51695144003E9
:100D8000020E54E514C39516F514AB141514EB704C
:100D900003020E5475822012074480EEE51B24FDE9
:100DA000F8881B860308860408860518188B0C8CA7
:100DB0000D8D0EE50EFB30E7047A438013EB546093
:100DC00060047A50800AEB30E6047A4980027A584F
:100DD0008A82C00212074475823A12074475823033
:100DE000120744758278120744D002BA4902800B78
:100DF000BA50028006850D82120777850C82120791
:100E0000778051D20875130A804A7513088045759A
:100E1000130A8040751310803BD2018037D20280C4
:100E200033D203802FE51B24FDF8881B8603088638
:100E30000408860518188B0C8C0D8D0E8B828C8304
:100E40008DF0E511121220A3E51212122080058AFE
:100E500082120744200106200203300370E51B24A0
:100E6000FCF8881B86030886040886050886061891
:100E700018188B0C8C0D8D0E8E0FE50CE50DE50E04
:100E8000E50F8B828C838DF0EE12110174FFB51586
:100E900003751506300327747F550FFB8B10E51083
:100EA000EB2BFB8B10E50E30E70674014510F510B7
:100EB000E51024684006749925104002D2023002E1
:100EC00006120A40020B2E1207CD020B2EE51370FC
:100ED00003020B2E7B4A30092BE51B14F8881BE616
:100EE000FC3395E0FDFEFF8C0C8D0D8E0E8F0F20D8
:100EF000085EAC0C7D007E007F008C0C8D0D8E0E8C
:100F00008F0F804C300A1FE51B24FCF8881B8604D9
:100F10000886050886060886071818188C0C8D0D9B
:100F20008E0E8F0F802AE51B24FEF8881B8604088E
:100F3000860518ED3395E0FEFF8C0C8D0D8E0E8F1F
:100F40000F20080CAC0CAD0D7E007F008E0E8F0FB5
:100F5000300B43E50C450D450E450F60397408B55F
:100F6000130C758230C003120744D003802874101C
:100F7000B51323758230C003120744D00330000C30
:100F8000758278C003120744D003800A758258C066
:100F900003120744D003300825AC0CAD0DAE0EE5AE
:100FA0000FFF30E717C3E49CFCE49DFDE49EFEE4E4
:100FB0009FFF8C0C8D0D8E0E8F0F8002C208751650
:100FC00000D20C8B00751000C00012078ED00020DC
:100FD0000C0DE510C4FCE6FD4CF61888038002A653
:100FE000100516B20CE50C450D450E450F70D68860
:100FF00003E514700375140120051A200417E51683
:1010000004FCC39514500E758220C003120744D00F
:1010100003151480E930080E75822DC003120744B1
:10102000D00315148024E516602030060E75822B3F
:10103000C003120744D0031514800F30070C7582CB
:1010400020C003120744D003151420041EAC14154D
:1010500014C3E5169C50273005047C3080027C20A8
:101060008C82C003120744D00380E2C3E5169514B6
:101070005009E514C39516F51480037514008B0010
:10108000AB161516EB6022B20C200C0A08E6C4540D
:101090000FFB8B1080078603740F5BF510851082A1
:1010A000C00012075ED00080D7200403020B2EABD5
:1010B000141514EB7003020B2E7582201207448066
:1010C000EE8A82120744020B2E851182851283223A
:1010D000AA82BA0A0810990280FB75990D1099022C
:1010E00080FB8A992220F71430F6148883A8822086
:1010F000F507E6A88375830022E280F7E49322E0F7
:1011000022C0E0F84582458345F07009F5F0FBFC0C
:10111000FDFE0211CFE823A2F792E0F8A982AA838C
:10112000D2F7ABF07C007E07C3749798404074FF01
:101130002EFE740A89F0A4F985F082740A8AF0A45C
:10114000FA85F083740A8BF0A4FB740529F9EA355B
:1011500082FAEB3583FB740035F0FCC3EC13FCEB37
:1011600013FBEA13FAE913F908EC70EF80BAE8C34D
:10117000947FF88B838EF0E4FBFCFDFEFF08C3E94F
:1011800033F9EA33FAE58333F583EB3BD4FBEC3CEC
:10119000D4FCED3DD4FDEE3ED4FEEF3FD4FF602DF8
:1011A00005F074052BD4FBE43CD4FCE43DD4FDE411
:1011B0003ED4FEE43FD4FF758204C3EF13FFEE1369
:1011C000FEED13FDEC13FCEB13FBD582EDD8AF78ED
:1011D00045D0E020E704762B8002762D087906E7DB
:1011E000C4540F4430F608B90603762E08E7540FAE
:1011F0004430F60819B902E7764508E5F020E7041F
:10120000762B8004762DF4040875F00A844430F6B9
:1012100008E5F04430F608E4F690004575F0402209
:1012200020F71030F6118883A88220F507F6A883EE
:1012300075830022F280F7F022AA82AB83ACF07DA6
:10124000007E008A828B838CF01210E5FFA3AA82B5
:10125000AB83EF60070DBD00EA0E80E78D828E83C1
:10126000220000000000000000000000000000005C
:00000001FF
