:100000000200037581471200F5E582600302006F6C
:10001000780079007A007B007C007D00EC4D601C4C
:1000200088828983E493A3A882A9838A828B83F040
:10003000A3AA82AB831CBCFFE31D80E07582007520
:1000400083007C007D00EC4D600AE4F0A31CBCFF43
:10005000F51D80F27582007583007C007D00EC4DFB
:10006000600AE4F0A31CBCFFF51D80F21200F4123C
:10007000027D80FE1B5B324A00414443207465735D
:10008000742070726F6772616D0A46696C653A2000
:1000900025730A436F6D70696C65643A2025732C73
:1000A0002025730A0A00736F75726365636F646558
:1000B0002E63004D61722020342032303234003102
:1000C000393A34383A3435000D663D256C75487A36
:1000D0002000564050322E313D25372E3566562CA5
:1000E00020564050322E323D25372E356656001BA5
:1000F0005B304B002275A7007597DE7597AD75FFD5
:100100008075EF0675A71075C12075A70075A90049
:1001100075A900E5A930E7FB75A90375A903E5A951
:1001200030E7FB43A41075E10175E20075E340750B
:100130009810758DE6858D8B53890F438920D28E5B
:10014000D2997582002275A700C2EF75B28075BC86
:100150002075B91E75E80075DF3F75B300D2EF2238
:10016000AA82438E407592B87593FF8592948593C9
:10017000957591047B00C3EB9A500BE59130E7FB3A
:1001800053917F0B80F075910022AA82AB837C0093
:100190007D00C3EC9AED9B502B7E00BE0400501DE9
:1001A0007582FAC002C003C004C005C00612016017
:1001B000D006D005D004D003D0020E80DE0CBC00E7
:1001C000D10D80CE22AA828534F005F07401800220
:1001D00025E0D5F0FBFB75A720BA0002800ABA0122
:1001E00002800FBA021E8014EBF4FA52F1EB42D4F3
:1001F0008012EBF4FA52F2EB42D58008EBF4FA529B
:10020000F3EB42CC75A700228582BBC2EDD2EC3065
:10021000EDFD85BD8285BE83221202081203AAAAC3
:1002200082AB83ACF0FDC002C003C004C0059033B4
:100230003375F05374401203B6AA82AB83ACF0FD61
:10024000E58124FCF581E4C0E074FCC0E0747FC06B
:10025000E07446C0E08A828B838CF0ED12048FAA92
:1002600082AB83ACF0FDE58124FCF5818A828B832F
:100270008CF0ED225389F0438905C28C221202745E
:100280009001F412018A7474C0E07400C0E07480BC
:10029000C0E012046E15811581158174BFC0E07431
:1002A00000C0E07480C0E074B3C0E07400C0E074CB
:1002B00080C0E074A6C0E07400C0E07480C0E07448
:1002C00079C0E07400C0E07480C0E012046EE58183
:1002D00024F4F5817534017582021201C57534026A
:1002E0007582021201C5120146758A00758C00756F
:1002F0000900C28DD28CC28CAA8C7B007C008C1D24
:100300008B1C8A1B751A00AE8AE4FF3395E0FAFB5A
:10031000EE251AFEEF351BFFEA351CFAEB351DFB07
:10032000C006C007C002C00374C8C0E07400C0E0CB
:100330007480C0E012046EE58124F9F58175820EA7
:10034000120219AA82AB83ACF0FD8A0A8B0B8C0CCB
:100350008D0D75820F120219AA82AB83ACF0FD8A53
:100360000E8B0F8C108D11C002C003C004C005C0DD
:100370000AC00BC00CC00D74D2C0E07400C0E074A1
:1003800080C0E012046EE58124F5F58174EFC0E0D1
:100390007400C0E07480C0E012046E1581158115F0
:1003A0008190000112018A0202E9E4AC83AB82FA77
:1003B000F9748E0205B7120643BC00030205E2EF92
:1003C00060FA30D502B2D1E583B4FF030205F8E547
:1003D00082B4FF030205F8258340072482400B0204
:1003E00005E224831450030205F8F582EA8DF0A497
:1003F000A8F0EA8EF0A428F8E435F0F9EB8DF0A42B
:1004000028E935F0F9E433CA8FF0A429F9EA35F088
:10041000FAEBF88EF0A429F9EA35F0FAE433FBECB4
:100420008DF0A429F9EA35F0FAE43BFBE88FF0A45B
:100430002AFAEB35F0FBE433CCFD8EF0A42AFAEB7C
:1004400035F0FBE43CFCED8FF0A42BFBEC35F0FC2D
:1004500020E7031206100205C1020FFD85823085D8
:10046000833185F032851E33900459020A50C0084A
:10047000858108E50824FBF533E50824FBF8863080
:10048000088631088632900459120A50D008221288
:10049000064330D502B2D1BF0009BC0003020605F5
:1004A0000205F8BC00030205E2E583B4FF0BE58218
:1004B000B4FF030206050205E2E582B4FF0302056C
:1004C000F8C395835007247F400B0205E224801473
:1004D00050030205F8C0E0E4CCCBCAF98D348E3568
:1004E0008F36EF54F0C4F5377583068537F0EB840B
:1004F000F582E9C4F9EAC4FAEBC4FBEC540FC47802
:1005000003D6FC18EBD6FB18EAD6FA8582F0EDA4E8
:10051000A8F0FD8582F0EEA428FEE435F0F885828F
:10052000F0EFA428FFE435F0F8E99DF9EA9EFAEB34
:100530009FFBEC98FCAD34AE35AF3630E71015823A
:10054000E92DF9EA3EFAEB3FFBE43CFC80EDC0828A
:10055000D58398C3E933F9EA33FAEB33FBEC33FC88
:10056000C3E99DEA9EEB9FEC9400B3E413F9D0023B
:10057000D0E0C44AFAD003D0E0C44BFBD004D0E0B2
:10058000F5F0540FC44CFCD082158230F40FD3EC3C
:1005900013FCEB13FBEA13FAE913F90582E930E7E0
:1005A0000A74012AFAE43BFBE43CFC0205D9FCABEB
:1005B000F0AA83A982749EC2D1F5821206100205A8
:1005C000C1B98003EA13B34010EA2401FAE43BFB0B
:1005D000E43CFC50047C800582BC000EBB000BBADE
:1005E0000008E4F5F0F583F58222A2D1E582138CB0
:1005F000F092F78B838A8222E4F583F58275F0808E
:10060000F4A2D11322E4F583F58275F0C0747F2241
:100610007804EC7011E58224F8500AF582E4C9CA26
:10062000CBFCD8EF22EC7820058220E713D582019D
:1006300022C3E933F9EA33FAEB33FBEC33FCD8EAB3
:10064000158222AA82AB83A2F73392D16002D2F73D
:10065000F582ACF0E58124F9F8E6FD08E6FE0886AF
:10066000F008E6A2F73392D56002D2F7F583AFF037
:1006700022AA827482C0E07406C0E0C022C0238A2D
:1006800082220529E4B52902052A22AA8274302A89
:10069000FA24C6500A74072AFA3000034302208A5B
:1006A00082020671E582FAC4540FF582C002120676
:1006B0008BD002740F5AF58202068BAA24AB25ACAC
:1006C00026AD27AE28752F20EE2EFEED235401FF18
:1006D0004206EA2AFAEB33FBEC33FCED33FDC3EEC2
:1006E000952B4008EEC3952BFE430201D52FD98AE6
:1006F000248B258C268D278E28227844E624D075DD
:10070000F00AA4FA7845E624D02AFA78438603BB97
:100710002D04C3E49AFA752B01C3E464808AF06364
:10072000F08095F05029752F038A0374F6252F4029
:100730001C052BE52F142438F8E52F2438F98704FD
:10074000A604772E1BEBFA6004052F80DE8B02EAED
:1007500030E70D78398603783AA6037839762E0A81
:10076000E52D600AE52D04FB252BF52B8005300BCC
:1007700002052B78388603E4BB2D0104FB700620AC
:100780000603300702052B300403020841300557E9
:10079000EB600C75822DC002120671D002801C30F5
:1007A000060C75822BC002120671D002800D300734
:1007B0000A758220C002120671D00278398604BC04
:1007C0002E0C758230C002120671D002152CAC2C92
:1007D000152CC3E52B9C4003020885758230C002AE
:1007E000120671D00280E7AC2C152CC3E52B9C506F
:1007F0000C758220C002120671D00280EA78388619
:1008000004BC2D0C75822DC002120671D002801C12
:1008100030060C75822BC002120671D002800D309A
:10082000070A758220C002120671D0027839860448
:10083000BC2E52758230C002120671D002152C8077
:1008400044EB600E75822DC002120671D002152C89
:10085000802030060E75822BC002120671D0021560
:100860002C800F30070C758220C002120671D00256
:10087000152C78398603BB2E0C758230C002120607
:1008800071D002152C752F01C20DE52F2438F88682
:1008900003BB4503020942BB2E348A03C3E46480D0
:1008A0008BF063F08095F0500F758230C003120614
:1008B00071D0031B8B0280E48B02D20DE52D7038C2
:1008C000200B0302094275822E1206718074300DCE
:1008D000278A03EB30E71FC3E46480852DF063F0C3
:1008E0008095F0500C758230C003120671D003154C
:1008F0002D0B8B0280DD8B02300D0EC3E4648085EE
:100900002DF063F08095F05021E52F2438F8860310
:100910008B82C002120671D002300D0EE52F2438F2
:10092000F88603BB2E028002152D152CC3E46480CB
:10093000852DF063F08095F04003200D05052F0212
:10094000088AC3E46480852DF063F08095F0500A36
:10095000758230120671152D80E830040FAA2C150F
:100960002CEA600875822012067180F122E52D7054
:1009700003300B0D7407252DFAE52CC39AF52C8056
:1009800006E52C24FAF52C752F0078388602BA2B50
:100990000F20060C78387620200705752F01052CCE
:1009A000200419AA2CC3E464808AF063F08095F0D7
:1009B000500A758220120671152C80E7C20DE52FB2
:1009C0002438F88602BA00028069BA451F30000256
:1009D0007665C3E46480852DF063F08095F0500A5D
:1009E000758230120671152D80E8D20DC3E52F9463
:1009F00002E433FA7014EA700EC3E46480852DF0CB
:100A000063F08095F04003300D16E52F2438F8860A
:100A1000028A82120671E52F24FD5012152D800ED8
:100A20007402B52F09300B0675822E120671052F40
:100A30000209BE300419AA2CC3E464808AF063F072
:100A40008095F0500A758220120671152C80E722DD
:100A5000858222858323E4F529F52AAA30AB31ACBF
:100A6000328A828B838CF0121012FD74012AF530C9
:100A7000E43BF5318C32EDFA7003020FF6BA250231
:100A80008003020FEEC204C205C206C207C208C23A
:100A900009C20AC20BC201C202C203752B00752C27
:100AA00000752DFFAB30AC31AD328B828C838DF075
:100AB000121012FAA3AB82AC838B308C318D32BA18
:100AC00025078A8212067180928A06BE3000402E67
:100AD0008A06EE24C6402774FFB52D13E52C75F069
:100AE0000AA4FEEA24D02EF52C70BFD20580BBE507
:100AF0002D75F00AA4FEEA24D02EF52D80ACBA2E76
:100B00000A74FFB52DA4752D00809F8A06BE610072
:100B1000400E8A06EE248540075302DFD200800291
:100B2000C200BA20028075BA2303020BABBA2A03B3
:100B3000020BB0BA2B02805FBA2D028055BA420276
:100B4000805FBA4303020BF5BA4403020D30BA4585
:100B500003020D4ABA4603020D46BA4703020D4E80
:100B6000BA4903020D30BA4C02803BBA4E03020D63
:100B700052BA4F03020D37BA5003020CC9BA5303DD
:100B8000020C19BA5503020D3CBA5803020D41027A
:100B90000D7CD204020AAAD206020AAAD207020ACD
:100BA000AAD209020AAAD20A020AAAD20B020AAAE5
:100BB00074FFB52D2030090BE53314F88833862CEB
:100BC000020AAAE53324FEF8883386060886071849
:100BD0008E2C020AAA30090BE53314F88833862DCF
:100BE000020AAAE53324FEF8883386060886071829
:100BF0008E2D020AAA30090AE53314F888338602DA
:100C0000800FE53324FEF888338603088604188BAA
:100C1000028A82120671020D81E53324FDF88833C1
:100C2000860308860408860518188B248C258D26D3
:100C30008B828C838DF0121166AB82AC838B2E7409
:100C4000FFB52D03852E2D20041DC3E52E952C50B8
:100C500016E52CC3952EF52CAB2C152CEB600875E6
:100C6000822012067180F18524828525838526F0F5
:100C7000121012FBFA6029AB2D152DC3E464808B92
:100C8000F063F08095F050188A82120671AB24ACA4
:100C900025AD260BBB00010C8B248C258D2680C72F
:100CA000200403020D81C3E52E952C4003020D8123
:100CB000E52CC3952EF52CAB2C152CEB7003020DF7
:100CC0008175822012067180EEE53324FDF88833A9
:100CD000860308860408860518188B248C258D2623
:100CE000E526FB30E7047A438013EB546060047A16
:100CF00050800AEB30E6047A4980027A588A82C032
:100D00000212067175823A120671758230120671EE
:100D1000758278120671D002BA4902800BBA50026D
:100D200080068525821206A48524821206A480519D
:100D3000D208752B0A804A752B088045752B0A80CE
:100D400040752B10803BD2018037D2028033D20312
:100D5000802FE53324FDF88833860308860408864F
:100D60000518188B248C258D268B828C838DF0E5BD
:100D70002912114DA3E52A12114D80058A8212060F
:100D800071200106200203300370E53324FCF8884B
:100D90003386030886040886050886061818188B0B
:100DA000248C258D268E27E524E525E526E5278B51
:100DB000828C838DF0EE12102E74FFB52D03752DED
:100DC00006300327747F5527FB8B28E528EB2BFB88
:100DD0008B28E52630E70674014528F528E5282408
:100DE000684006749925284002D202300206120992
:100DF0006D020A5B1206FA020A5BE52B7003020A17
:100E00005B7B3D30092BE53314F88833E6FC3395E2
:100E1000E0FDFEFF8C248D258E268F2720085EACFA
:100E2000247D007E007F008C248D258E268F2780D8
:100E30004C300A1FE53324FCF88833860408860505
:100E40000886060886071818188C248D258E268F8C
:100E500027802AE53324FEF888338604088605189F
:100E6000ED3395E0FEFF8C248D258E268F272008FC
:100E70000CAC24AD257E007F008E268F27300B43DF
:100E8000E52445254526452760397408B52B0C75A2
:100E90008230C003120671D00380287410B52B2352
:100EA000758230C003120671D00330000C75827851
:100EB000C003120671D003800A758258C00312065F
:100EC00071D003300825AC24AD25AE26E527FF30D0
:100ED000E717C3E49CFCE49DFDE49EFEE49FFF8CC9
:100EE000248D258E268F278002C208752E00D20CF5
:100EF0008B00752800C0001206BBD000200C0DE549
:100F000028C4FCE6FD4CF61888038002A628052EAE
:100F1000B20CE52445254526452770D68803E52CE7
:100F20007003752C0120051A200417E52E04FCC35C
:100F3000952C500E758220C003120671D003152C1B
:100F400080E930080E75822DC003120671D003159A
:100F50002C8024E52E602030060E75822BC00312F3
:100F60000671D003152C800F30070C758220C0034A
:100F7000120671D003152C20041EAC2C152CC3E5D1
:100F80002E9C50273005047C3080027C208C82C04F
:100F900003120671D00380E2C3E52E952C5009E5BB
:100FA0002CC3952EF52C8003752C008B00AB2E15D1
:100FB0002EEB6022B20C200C0A08E6C4540FFB8B07
:100FC0002880078603740F5BF528852882C00012ED
:100FD000068BD00080D7200403020A5BAB2C152CB3
:100FE000EB7003020A5B75822012067180EE8A8222
:100FF000120671020A5B852982852A8322AA82BA97
:101000000A0810990280FB75990D10990280FB8ADD
:10101000992220F71430F6148883A88220F507E679
:10102000A88375830022E280F7E49322E022C0E0E7
:10103000F84582458345F07009F5F0FBFCFDFE02A2
:1010400010FCE823A2F792E0F8A982AA83D2F7ABBA
:10105000F07C007E07C3749798404074FF2EFE74A6
:101060000A89F0A4F985F082740A8AF0A4FA85F05E
:1010700083740A8BF0A4FB740529F9EA3582FAEB34
:101080003583FB740035F0FCC3EC13FCEB13FBEA77
:1010900013FAE913F908EC70EF80BAE8C3947FF80B
:1010A0008B838EF0E4FBFCFDFEFF08C3E933F9EA15
:1010B00033FAE58333F583EB3BD4FBEC3CD4FCED16
:1010C0003DD4FDEE3ED4FEEF3FD4FF602D05F0741D
:1010D000052BD4FBE43CD4FCE43DD4FDE43ED4FE3B
:1010E000E43FD4FF758204C3EF13FFEE13FEED134C
:1010F000FDEC13FCEB13FBD582EDD8AF7838D0E0D4
:1011000020E704762B8002762D087906E7C4540F79
:101110004430F608B90603762E08E7540F4430F63B
:101120000819B902E7764508E5F020E704762B8038
:1011300004762DF4040875F00A844430F608E5F0CE
:101140004430F608E4F690003875F0402220F7109D
:1011500030F6118883A88220F507F6A883758300EE
:1011600022F280F7F022AA82AB83ACF07D007E00F1
:101170008A828B838CF0121012FFA3AA82AB83EFBA
:1011800060070DBD00EA0E80E78D828E832200008D
:00000001FF
