:10000000020003758143120146E582600302006F1E
:10001000780079007A007B007C007D00EC4D601C4C
:1000200088828983E493A3A882A9838A828B83F040
:10003000A3AA82AB831CBCFFE31D80E07582007520
:1000400083007C007D00EC4D600AE4F0A31CBCFF43
:10005000F51D80F27582007583007C007D00EC4DFB
:10006000600AE4F0A31CBCFFF51D80F2120115121A
:1000700002CE80FE1B5B324A00414443207465730C
:10008000742070726F6772616D0A46696C653A2000
:1000900025730A436F6D70696C65643A2025732C73
:1000A0002025730A0A00433A5C55736572735C65D8
:1000B0007468616E5C4F6E654472697665202D20B0
:1000C0005542435C4465736B746F705C4C61623580
:1000D0005C7A65726F2063726F73732064657465F8
:1000E0006374696F6E2E63004D617220203620327A
:1000F0003032340032303A35313A353000564050E3
:10010000322E323A25660D000A00564050322E310A
:100110003A25660D00750A00750B00750C00750D0B
:1001200000750E00750F0075100075110075120036
:100130007513007514007515007516007517007598
:1001400018007519002275A7007597DE7597AD75B3
:10015000FF8075EF0675A71075C12075A70075A9FA
:100160000075A900E5A930E7FB75A90375A903E5AA
:10017000A930E7FB43A41075E10175E20075E34087
:10018000759810758DE6858D8B53890F438920D224
:100190008ED2997582002275A700C2EF75B2807564
:1001A000BC2075B91E75E80075DF3F75B300D2EF4E
:1001B00022AA82438E407592B87593FF85929485EA
:1001C00093957591047B00C3EB9A500BE59130E752
:1001D000FB53917F0B80F075910022AA82AB837C48
:1001E000007D00C3EC9AED9B502B7E00BE040050B6
:1001F0001D7582FAC002C003C004C005C00612010A
:10020000B1D006D005D004D003D0020E80DE0CBCE5
:1002100000D10D80CE22AA82851BF005F0740180EA
:100220000225E0D5F0FBFB75A720BA0002800ABAD0
:100230000102800FBA021E8014EBF4FA52F1EB4275
:10024000D48012EBF4FA52F2EB42D58008EBF4FAC8
:1002500052F3EB42CC75A700228582BBC2EDD2ECF3
:1002600030EDFD85BD8285BE83221202591204192C
:10027000AA82AB83ACF0FDC002C003C004C00590ED
:10028000923A75F0537440120455AA82AB83ACF0D5
:10029000FDE58124FCF581E4C0E074FCC0E0747FDE
:1002A000C0E07446C0E08A828B838CF0ED12052E8C
:1002B000AA82AB83ACF0FDE58124FCF5818A828BB8
:1002C000838CF0ED225389F0438901C28C22120203
:1002D000C59001F41201DB7474C0E07400C0E074D6
:1002E00080C0E012050D15811581158174F4C0E000
:1002F0007400C0E07480C0E074E8C0E07400C0E046
:100300007480C0E074A6C0E07400C0E07480C0E0F7
:100310007479C0E07400C0E07480C0E012050DE59F
:100320008124F4F581751B01758202120216751B7A
:100330000275820212021612019775820F12026A6A
:10034000AA82AB83ACF0FDE4C0E0C0E0C0E0C0E056
:100350008A828B838CF0ED120425AA82E58124FC2D
:10036000F581EA602C75820F12026AAA82AB83AC17
:10037000F0FDC002C003C004C00574FDC0E07400FD
:10038000C0E07480C0E012050DE58124F9F581809C
:10039000A9D2B27408C0E07401C0E07480C0E01259
:1003A000050D15811581158175820F12026AAA82C9
:1003B000AB83ACF0FDE4C0E0C0E0C0E0C0E08A8206
:1003C0008B838CF0ED120425AA82E58124FCF58153
:1003D000EA602C75820E12026AAA82AB83ACF0FD31
:1003E000C002C003C004C005740AC0E07401C0E0CC
:1003F0007480C0E012050DE58124F9F58180A9C261
:10040000B27408C0E07401C0E07480C0E012050D51
:1004100015811581158102033AE4AC83AB82FAF9A8
:10042000748E020656FFA881181812067ED2D133A8
:10043000E6400730E70B7582012220E7067582004F
:1004400022C2D1120660E97003F5822230D101B3D5
:10045000E433F5822212072BBC00030206CAEF60C8
:10046000FA30D502B2D1E583B4FF030206E0E5829B
:10047000B4FF030206E0258340072482400B0206F6
:10048000CA24831450030206E0F582EA8DF0A4A882
:10049000F0EA8EF0A428F8E435F0F9EB8DF0A4280A
:1004A000E935F0F9E433CA8FF0A429F9EA35F0FA16
:1004B000EBF88EF0A429F9EA35F0FAE433FBEC8D81
:1004C000F0A429F9EA35F0FAE43BFBE88FF0A42A1E
:1004D000FAEB35F0FBE433CCFD8EF0A42AFAEB35D1
:1004E000F0FBE43CFCED8FF0A42BFBEC35F0FC20A2
:1004F000E7031206F80206A90210E585823085831B
:100500003185F032851A339004F8020B38C0088523
:100510008108E50824FBF533E50824FBF88630085C
:1005200086310886329004F8120B38D00822120760
:100530002B30D502B2D1BF0009BC00030206ED0288
:1005400006E0BC00030206CAE583B4FF0BE582B4F3
:10055000FF030206ED0206CAE582B4FF030206E0CD
:10056000C395835007247F400B0206CA2480145091
:10057000030206E0C0E0E4CCCBCAF98D1B8E1C8FD1
:100580001DEF54F0C4F51E758306851EF0EB84F54F
:1005900082E9C4F9EAC4FAEBC4FBEC540FC4780353
:1005A000D6FC18EBD6FB18EAD6FA8582F0EDA4A8A3
:1005B000F0FD8582F0EEA428FEE435F0F88582F0A7
:1005C000EFA428FFE435F0F8E99DF9EA9EFAEB9FE5
:1005D000FBEC98FCAD1BAE1CAF1D30E7101582E99B
:1005E0002DF9EA3EFAEB3FFBE43CFC80EDC082D5FE
:1005F0008398C3E933F9EA33FAEB33FBEC33FCC3FA
:10060000E99DEA9EEB9FEC9400B3E413F9D002D08D
:10061000E0C44AFAD003D0E0C44BFBD004D0E0F5EC
:10062000F0540FC44CFCD082158230F40FD3EC137D
:10063000FCEB13FBEA13FAE913F90582E930E70A48
:1006400074012AFAE43BFBE43CFC0206C1FCABF07B
:10065000AA83A982749EC2D1F5821206F80206A965
:100660007901AA82E68F82B5821318E6B5F00E18DA
:10067000E6B5830918E68A82B58202790022B48041
:100680000FE5F0700AE5837006E58270027F00EFE7
:10069000B6801518B6001018B6000B18B60006087C
:1006A000080876002208080822B98003EA13B3403C
:1006B00010EA2401FAE43BFBE43CFC50047C800596
:1006C00082BC000EBB000BBA0008E4F5F0F583F520
:1006D0008222A2D1E582138CF092F78B838A822248
:1006E000E4F583F58275F080F4A2D11322E4F5835A
:1006F000F58275F0C0747F227804EC7011E58224D5
:10070000F8500AF582E4C9CACBFCD8EF22EC782075
:10071000058220E713D5820122C3E933F9EA33FACF
:10072000EB33FBEC33FCD8EA158222AA82AB83A21E
:10073000F73392D16002D2F7F582ACF0E58124F96B
:10074000F8E6FD08E6FE0886F008E6A2F73392D543
:100750006002D2F7F583AFF022AA82746AC0E07417
:1007600007C0E0C022C0238A82220529E4B52902FD
:10077000052A22AA8274302AFA24C6500A74072A4B
:10078000FA3000034302208A82020759E582FAC444
:10079000540FF582C002120773D002740F5AF5820B
:1007A000020773AA24AB25AC26AD27AE28752F20EF
:1007B000EE2EFEED235401FF4206EA2AFAEB33FB4C
:1007C000EC33FCED33FDC3EE952B4008EEC3952BC7
:1007D000FE430201D52FD98A248B258C268D278EA6
:1007E00028227840E624D075F00AA4FA7841E6245D
:1007F000D02AFA783F8603BB2D04C3E49AFA752BFE
:1008000001C3E464808AF063F08095F05029752F6D
:10081000038A0374F6252F401C052BE52F1424347E
:10082000F8E52F2434F98704A604772E1BEBFA6031
:1008300004052F80DE8B02EA30E70D7835860378D9
:1008400036A6037835762E0AE52D600AE52D04FBE1
:10085000252BF52B8005300B02052B78348603E41D
:10086000BB2D0104FB7006200603300702052B3068
:100870000403020929300557EB600C75822DC00274
:10088000120759D002801C30060C75822BC0021250
:100890000759D002800D30070A758220C002120766
:1008A00059D00278358604BC2E0C758230C00212F5
:1008B0000759D002152CAC2C152CC3E52B9C4003FA
:1008C00002096D758230C002120759D00280E7AC70
:1008D0002C152CC3E52B9C500C758220C0021207EE
:1008E00059D00280EA78348604BC2D0C75822DC064
:1008F00002120759D002801C30060C75822BC002F0
:10090000120759D002800D30070A758220C00212EA
:100910000759D00278358604BC2E52758230C00249
:10092000120759D002152C8044EB600E75822DC041
:1009300002120759D002152C802030060E75822B2A
:10094000C002120759D002152C800F30070C758297
:1009500020C002120759D002152C78358603BB2E11
:100960000C758230C002120759D002152C752F0168
:10097000C20DE52F2434F88603BB4503020A2ABBC7
:100980002E348A03C3E464808BF063F08095F050CA
:100990000F758230C003120759D0031B8B0280E40D
:1009A0008B02D20DE52D7038200B03020A2A7582C6
:1009B0002E1207598074300D278A03EB30E71FC3CE
:1009C000E46480852DF063F08095F0500C758230E2
:1009D000C003120759D003152D0B8B0280DD8B024B
:1009E000300D0EC3E46480852DF063F08095F050E7
:1009F00021E52F2434F886038B82C002120759D0D8
:100A000002300D0EE52F2434F88603BB2E0280023F
:100A1000152D152CC3E46480852DF063F08095F0CE
:100A20004003200D05052F020972C3E46480852D63
:100A3000F063F08095F0500A758230120759152D39
:100A400080E830040FAA2C152CEA60087582201269
:100A5000075980F122E52D7003300B0D7407252D09
:100A6000FAE52CC39AF52C8006E52C24FAF52C75B2
:100A70002F0078348602BA2B0F20060C78347620AB
:100A8000200705752F01052C200419AA2CC3E46446
:100A9000808AF063F08095F0500A75822012075921
:100AA000152C80E7C20DE52F2434F88602BA000227
:100AB0008069BA451F3000027665C3E46480852DE5
:100AC000F063F08095F0500A758230120759152DA9
:100AD00080E8D20DC3E52F9402E433FA7014EA7073
:100AE0000EC3E46480852DF063F08095F040033000
:100AF0000D16E52F2434F886028A82120759E52F55
:100B000024FD5012152D800E7402B52F09300B06EE
:100B100075822E120759052F020AA6300419AA2C35
:100B2000C3E464808AF063F08095F0500A758220F7
:100B3000120759152C80E722858222858323E4F54C
:100B400029F52AAA30AB31AC328A828B838CF01221
:100B500010FAFD74012AF530E43BF5318C32EDFAE0
:100B600070030210DEBA250280030210D6C204C24E
:100B700005C206C207C208C209C20AC20BC201C22C
:100B800002C203752B00752C00752DFFAB30AC3104
:100B9000AD328B828C838DF01210FAFAA3AB82AC4B
:100BA000838B308C318D32BA25078A8212075980A7
:100BB000928A06BE3000402E8A06EE24C640277474
:100BC000FFB52D13E52C75F00AA4FEEA24D02EF50E
:100BD0002C70BFD20580BBE52D75F00AA4FEEA2477
:100BE000D02EF52D80ACBA2E0A74FFB52DA4752D2C
:100BF00000809F8A06BE6100400E8A06EE24854072
:100C0000075302DFD2008002C200BA20028075BA08
:100C10002303020C93BA2A03020C98BA2B02805FBA
:100C2000BA2D028055BA4202805FBA4303020CDD3E
:100C3000BA4403020E18BA4503020E32BA46030242
:100C40000E2EBA4703020E36BA4903020E18BA4CEA
:100C500002803BBA4E03020E3ABA4F03020E1FBA8D
:100C60005003020DB1BA5303020D01BA5503020E2F
:100C700024BA5803020E29020E64D204020B92D247
:100C800006020B92D207020B92D209020B92D20AF1
:100C9000020B92D20B020B9274FFB52D2030090B80
:100CA000E53314F88833862C020B92E53324FEF8E2
:100CB00088338606088607188E2C020B9230090BA3
:100CC000E53314F88833862D020B92E53324FEF8C1
:100CD00088338606088607188E2D020B9230090A83
:100CE000E53314F888338602800FE53324FEF88854
:100CF000338603088604188B028A82120759020E73
:100D000069E53324FDF888338603088604088605E0
:100D100018188B248C258D268B828C838DF01212D3
:100D20004EAB82AC838B2E74FFB52D03852E2D2008
:100D3000041DC3E52E952C5016E52CC3952EF52CDD
:100D4000AB2C152CEB600875822012075980F185B9
:100D500024828525838526F01210FAFBFA6029ABE0
:100D60002D152DC3E464808BF063F08095F050184E
:100D70008A82120759AB24AC25AD260BBB00010CAF
:100D80008B248C258D2680C7200403020E69C3E5C1
:100D90002E952C4003020E69E52CC3952EF52CAB45
:100DA0002C152CEB7003020E6975822012075980F6
:100DB000EEE53324FDF888338603088604088605AB
:100DC00018188B248C258D26E526FB30E7047A4302
:100DD0008013EB546060047A50800AEB30E6047AAA
:100DE0004980027A588A82C00212075975823A12E3
:100DF0000759758230120759758278120759D00247
:100E0000BA4902800BBA5002800685258212078CEF
:100E100085248212078C8051D208752B0A804A756E
:100E20002B088045752B0A8040752B10803BD20122
:100E30008037D2028033D203802FE53324FDF88837
:100E400033860308860408860518188B248C258DA4
:100E5000268B828C838DF0E529121235A3E52A12A8
:100E6000123580058A8212075920010620020330BC
:100E70000370E53324FCF88833860308860408866B
:100E8000050886061818188B248C258D268E27E5D4
:100E900024E525E526E5278B828C838DF0EE121163
:100EA0001674FFB52D03752D06300327747F552763
:100EB000FB8B28E528EB2BFB8B28E52630E7067417
:100EC000014528F528E5282468400674992528401E
:100ED00002D202300206120A55020B431207E20246
:100EE0000B43E52B7003020B437B3930092BE533B1
:100EF00014F88833E6FC3395E0FDFEFF8C248D2545
:100F00008E268F2720085EAC247D007E007F008C1B
:100F1000248D258E268F27804C300A1FE53324FC34
:100F2000F888338604088605088606088607181898
:100F3000188C248D258E268F27802AE53324FEF8F1
:100F40008833860408860518ED3395E0FEFF8C246F
:100F50008D258E268F2720080CAC24AD257E007FA2
:100F6000008E268F27300B43E5244525452645274F
:100F700060397408B52B0C758230C003120759D044
:100F80000380287410B52B23758230C003120759D3
:100F9000D00330000C758278C003120759D003804B
:100FA0000A758258C003120759D003300825AC24B3
:100FB000AD25AE26E527FF30E717C3E49CFCE49D92
:100FC000FDE49EFEE49FFF8C248D258E268F2780D6
:100FD00002C208752E00D20C8B00752800C00012CA
:100FE00007A3D000200C0DE528C4FCE6FD4CF61844
:100FF00088038002A628052EB20CE5244525452647
:10100000452770D68803E52C7003752C0120051A3E
:10101000200417E52E04FCC3952C500E758220C0C9
:1010200003120759D003152C80E930080E75822D64
:10103000C003120759D003152C8024E52E60203000
:10104000060E75822BC003120759D003152C800F92
:1010500030070C758220C003120759D003152C20CD
:10106000041EAC2C152CC3E52E9C50273005047CA7
:101070003080027C208C82C003120759D00380E2AA
:10108000C3E52E952C5009E52CC3952EF52C800335
:10109000752C008B00AB2E152EEB6022B20C200CB1
:1010A0000A08E6C4540FFB8B2880078603740F5B85
:1010B000F528852882C000120773D00080D720044D
:1010C00003020B43AB2C152CEB7003020B43758210
:1010D0002012075980EE8A82120759020B43852994
:1010E00082852A8322AA82BA0A0810990280FB7597
:1010F000990D10990280FB8A992220F71430F6147A
:101100008883A88220F507E6A88375830022E28001
:10111000F7E49322E022C0E0F84582458345F07071
:1011200009F5F0FBFCFDFE0211E4E823A2F792E0D2
:10113000F8A982AA83D2F7ABF07C007E07C374972C
:1011400098404074FF2EFE740A89F0A4F985F0825D
:10115000740A8AF0A4FA85F083740A8BF0A4FB74F5
:101160000529F9EA3582FAEB3583FB740035F0FC8A
:10117000C3EC13FCEB13FBEA13FAE913F908EC7068
:10118000EF80BAE8C3947FF88B838EF0E4FBFCFD1C
:10119000FEFF08C3E933F9EA33FAE58333F583EB5D
:1011A0003BD4FBEC3CD4FCED3DD4FDEE3ED4FEEF55
:1011B0003FD4FF602D05F074052BD4FBE43CD4FC38
:1011C000E43DD4FDE43ED4FEE43FD4FF758204C385
:1011D000EF13FFEE13FEED13FDEC13FCEB13FBD549
:1011E00082EDD8AF7834D0E020E704762B80027609
:1011F0002D087906E7C4540F4430F608B906037683
:101200002E08E7540F4430F60819B902E77645086E
:10121000E5F020E704762B8004762DF4040875F0C1
:101220000A844430F608E5F04430F608E4F690000D
:101230003475F0402220F71030F6118883A8822000
:10124000F507F6A88375830022F280F7F022AA82C0
:10125000AB83ACF07D007E008A828B838CF0121011
:10126000FAFFA3AA82AB83EF60070DBD00EA0E80F0
:10127000E78D828E83220000000000000000000045
:00000001FF
